Archive member included to satisfy reference by file (symbol)

c:/nxp/mcuxpressoide_10.2.1_795/ide/tools/bin/../lib/gcc/arm-none-eabi/7.2.1/../../../../arm-none-eabi/lib/thumb/v6-m\libcr_semihost_nf.a(_cr__main.o)
                              ./startup/startup_mkl27z644.o (__main)
c:/nxp/mcuxpressoide_10.2.1_795/ide/tools/bin/../lib/gcc/arm-none-eabi/7.2.1/../../../../arm-none-eabi/lib/thumb/v6-m\libcr_semihost_nf.a(_cr_assert.o)
                              ./utilities/fsl_debug_console.o (__assertion_failed)
c:/nxp/mcuxpressoide_10.2.1_795/ide/tools/bin/../lib/gcc/arm-none-eabi/7.2.1/../../../../arm-none-eabi/lib/thumb/v6-m\libcr_semihost_nf.a(__ciob.o)
                              c:/nxp/mcuxpressoide_10.2.1_795/ide/tools/bin/../lib/gcc/arm-none-eabi/7.2.1/../../../../arm-none-eabi/lib/thumb/v6-m\libcr_semihost_nf.a(_cr_assert.o) (__Ciob)
c:/nxp/mcuxpressoide_10.2.1_795/ide/tools/bin/../lib/gcc/arm-none-eabi/7.2.1/../../../../arm-none-eabi/lib/thumb/v6-m\libcr_semihost_nf.a(__sys_appexit.o)
                              c:/nxp/mcuxpressoide_10.2.1_795/ide/tools/bin/../lib/gcc/arm-none-eabi/7.2.1/../../../../arm-none-eabi/lib/thumb/v6-m\libcr_semihost_nf.a(_cr_assert.o) (__sys_appexit)
c:/nxp/mcuxpressoide_10.2.1_795/ide/tools/bin/../lib/gcc/arm-none-eabi/7.2.1/../../../../arm-none-eabi/lib/thumb/v6-m\libcr_c.a(memcpy.o)
                              ./drivers/fsl_ftfx_cache.o (memcpy)
c:/nxp/mcuxpressoide_10.2.1_795/ide/tools/bin/../lib/gcc/arm-none-eabi/7.2.1/../../../../arm-none-eabi/lib/thumb/v6-m\libcr_c.a(memset.o)
                              ./drivers/fsl_ftfx_cache.o (memset)
c:/nxp/mcuxpressoide_10.2.1_795/ide/tools/bin/../lib/gcc/arm-none-eabi/7.2.1/../../../../arm-none-eabi/lib/thumb/v6-m\libcr_c.a(_deferredlazyseek.o)
                              c:/nxp/mcuxpressoide_10.2.1_795/ide/tools/bin/../lib/gcc/arm-none-eabi/7.2.1/../../../../arm-none-eabi/lib/thumb/v6-m\libcr_semihost_nf.a(_cr_assert.o) (__flsbuf)
c:/nxp/mcuxpressoide_10.2.1_795/ide/tools/bin/../lib/gcc/arm-none-eabi/7.2.1/../../../../arm-none-eabi/lib/thumb/v6-m\libcr_c.a(_fflush.o)
                              c:/nxp/mcuxpressoide_10.2.1_795/ide/tools/bin/../lib/gcc/arm-none-eabi/7.2.1/../../../../arm-none-eabi/lib/thumb/v6-m\libcr_c.a(_deferredlazyseek.o) (_fflush)
c:/nxp/mcuxpressoide_10.2.1_795/ide/tools/bin/../lib/gcc/arm-none-eabi/7.2.1/../../../../arm-none-eabi/lib/thumb/v6-m\libcr_c.a(_writebuf.o)
                              c:/nxp/mcuxpressoide_10.2.1_795/ide/tools/bin/../lib/gcc/arm-none-eabi/7.2.1/../../../../arm-none-eabi/lib/thumb/v6-m\libcr_c.a(_deferredlazyseek.o) (_Cwritebuf)
c:/nxp/mcuxpressoide_10.2.1_795/ide/tools/bin/../lib/gcc/arm-none-eabi/7.2.1/../../../../arm-none-eabi/lib/thumb/v6-m\libcr_c.a(alloc.o)
                              ./drivers/fsl_common.o (malloc)
c:/nxp/mcuxpressoide_10.2.1_795/ide/tools/bin/../lib/gcc/arm-none-eabi/7.2.1/../../../../arm-none-eabi/lib/thumb/v6-m\libcr_c.a(atan.o)
                              ./source/Proyecto_Final_V3.o (atan)
c:/nxp/mcuxpressoide_10.2.1_795/ide/tools/bin/../lib/gcc/arm-none-eabi/7.2.1/../../../../arm-none-eabi/lib/thumb/v6-m\libcr_c.a(fabs.o)
                              c:/nxp/mcuxpressoide_10.2.1_795/ide/tools/bin/../lib/gcc/arm-none-eabi/7.2.1/../../../../arm-none-eabi/lib/thumb/v6-m\libcr_c.a(atan.o) (fabs)
c:/nxp/mcuxpressoide_10.2.1_795/ide/tools/bin/../lib/gcc/arm-none-eabi/7.2.1/../../../../arm-none-eabi/lib/thumb/v6-m\libcr_c.a(fputs.o)
                              c:/nxp/mcuxpressoide_10.2.1_795/ide/tools/bin/../lib/gcc/arm-none-eabi/7.2.1/../../../../arm-none-eabi/lib/thumb/v6-m\libcr_semihost_nf.a(_cr_assert.o) (fputs)
c:/nxp/mcuxpressoide_10.2.1_795/ide/tools/bin/../lib/gcc/arm-none-eabi/7.2.1/../../../../arm-none-eabi/lib/thumb/v6-m\libcr_c.a(fseek.o)
                              c:/nxp/mcuxpressoide_10.2.1_795/ide/tools/bin/../lib/gcc/arm-none-eabi/7.2.1/../../../../arm-none-eabi/lib/thumb/v6-m\libcr_c.a(_deferredlazyseek.o) (fseek)
c:/nxp/mcuxpressoide_10.2.1_795/ide/tools/bin/../lib/gcc/arm-none-eabi/7.2.1/../../../../arm-none-eabi/lib/thumb/v6-m\libcr_c.a(ftell.o)
                              c:/nxp/mcuxpressoide_10.2.1_795/ide/tools/bin/../lib/gcc/arm-none-eabi/7.2.1/../../../../arm-none-eabi/lib/thumb/v6-m\libcr_c.a(fseek.o) (ftell)
c:/nxp/mcuxpressoide_10.2.1_795/ide/tools/bin/../lib/gcc/arm-none-eabi/7.2.1/../../../../arm-none-eabi/lib/thumb/v6-m\libcr_c.a(initio.o)
                              c:/nxp/mcuxpressoide_10.2.1_795/ide/tools/bin/../lib/gcc/arm-none-eabi/7.2.1/../../../../arm-none-eabi/lib/thumb/v6-m\libcr_semihost_nf.a(_cr__main.o) (_initio)
c:/nxp/mcuxpressoide_10.2.1_795/ide/tools/bin/../lib/gcc/arm-none-eabi/7.2.1/../../../../arm-none-eabi/lib/thumb/v6-m\libcr_c.a(setvbuf.o)
                              c:/nxp/mcuxpressoide_10.2.1_795/ide/tools/bin/../lib/gcc/arm-none-eabi/7.2.1/../../../../arm-none-eabi/lib/thumb/v6-m\libcr_c.a(initio.o) (setvbuf)
c:/nxp/mcuxpressoide_10.2.1_795/ide/tools/bin/../lib/gcc/arm-none-eabi/7.2.1/../../../../arm-none-eabi/lib/thumb/v6-m\libcr_c.a(strlen.o)
                              ./utilities/fsl_str.o (strlen)
c:/nxp/mcuxpressoide_10.2.1_795/ide/tools/bin/../lib/gcc/arm-none-eabi/7.2.1/../../../../arm-none-eabi/lib/thumb/v6-m\libcr_c.a(__init_alloc.o)
                              c:/nxp/mcuxpressoide_10.2.1_795/ide/tools/bin/../lib/gcc/arm-none-eabi/7.2.1/../../../../arm-none-eabi/lib/thumb/v6-m\libcr_c.a(alloc.o) (__heaps)
c:/nxp/mcuxpressoide_10.2.1_795/ide/tools/bin/../lib/gcc/arm-none-eabi/7.2.1/../../../../arm-none-eabi/lib/thumb/v6-m\libcr_c.a(_cr_sbrk.o)
                              c:/nxp/mcuxpressoide_10.2.1_795/ide/tools/bin/../lib/gcc/arm-none-eabi/7.2.1/../../../../arm-none-eabi/lib/thumb/v6-m\libcr_c.a(alloc.o) (_sbrk)
c:/nxp/mcuxpressoide_10.2.1_795/ide/tools/bin/../lib/gcc/arm-none-eabi/7.2.1/../../../../arm-none-eabi/lib/thumb/v6-m\libcr_c.a(_fdopen.o)
                              c:/nxp/mcuxpressoide_10.2.1_795/ide/tools/bin/../lib/gcc/arm-none-eabi/7.2.1/../../../../arm-none-eabi/lib/thumb/v6-m\libcr_c.a(initio.o) (_fdopen)
c:/nxp/mcuxpressoide_10.2.1_795/ide/tools/bin/../lib/gcc/arm-none-eabi/7.2.1/../../../../arm-none-eabi/lib/thumb/v6-m\libcr_c.a(errno.o)
                              c:/nxp/mcuxpressoide_10.2.1_795/ide/tools/bin/../lib/gcc/arm-none-eabi/7.2.1/../../../../arm-none-eabi/lib/thumb/v6-m\libcr_c.a(ftell.o) (errno)
c:/nxp/mcuxpressoide_10.2.1_795/ide/tools/bin/../lib/gcc/arm-none-eabi/7.2.1/../../../../arm-none-eabi/lib/thumb/v6-m\libcr_c.a(fclose.o)
                              c:/nxp/mcuxpressoide_10.2.1_795/ide/tools/bin/../lib/gcc/arm-none-eabi/7.2.1/../../../../arm-none-eabi/lib/thumb/v6-m\libcr_c.a(initio.o) (fclose)
c:/nxp/mcuxpressoide_10.2.1_795/ide/tools/bin/../lib/gcc/arm-none-eabi/7.2.1/../../../../arm-none-eabi/lib/thumb/v6-m\libcr_c.a(fflush.o)
                              c:/nxp/mcuxpressoide_10.2.1_795/ide/tools/bin/../lib/gcc/arm-none-eabi/7.2.1/../../../../arm-none-eabi/lib/thumb/v6-m\libcr_c.a(fclose.o) (fflush)
c:/nxp/mcuxpressoide_10.2.1_795/ide/tools/bin/../lib/gcc/arm-none-eabi/7.2.1/../../../../arm-none-eabi/lib/thumb/v6-m\libcr_c.a(remove.o)
                              c:/nxp/mcuxpressoide_10.2.1_795/ide/tools/bin/../lib/gcc/arm-none-eabi/7.2.1/../../../../arm-none-eabi/lib/thumb/v6-m\libcr_c.a(fclose.o) (remove)
c:/nxp/mcuxpressoide_10.2.1_795/ide/tools/bin/../lib/gcc/arm-none-eabi/7.2.1/../../../../arm-none-eabi/lib/thumb/v6-m\libcr_c.a(_cr_check_heap.o)
                              c:/nxp/mcuxpressoide_10.2.1_795/ide/tools/bin/../lib/gcc/arm-none-eabi/7.2.1/../../../../arm-none-eabi/lib/thumb/v6-m\libcr_c.a(_cr_sbrk.o) (__check_heap_overflow)
c:/nxp/mcuxpressoide_10.2.1_795/ide/tools/bin/../lib/gcc/arm-none-eabi/7.2.1/../../../../arm-none-eabi/lib/thumb/v6-m\libcr_c.a(_do_fflush.o)
                              c:/nxp/mcuxpressoide_10.2.1_795/ide/tools/bin/../lib/gcc/arm-none-eabi/7.2.1/../../../../arm-none-eabi/lib/thumb/v6-m\libcr_c.a(fflush.o) (_do_fflush)
c:/nxp/mcuxpressoide_10.2.1_795/ide/tools/bin/../lib/gcc/arm-none-eabi/7.2.1/thumb/v6-m\libcr_eabihelpers.a(division_32.o)
                              ./utilities/fsl_str.o (__aeabi_idiv)
c:/nxp/mcuxpressoide_10.2.1_795/ide/tools/bin/../lib/gcc/arm-none-eabi/7.2.1/thumb/v6-m\libcr_eabihelpers.a(division_idiv0.o)
                              c:/nxp/mcuxpressoide_10.2.1_795/ide/tools/bin/../lib/gcc/arm-none-eabi/7.2.1/thumb/v6-m\libcr_eabihelpers.a(division_32.o) (__aeabi_idiv0)
c:/nxp/mcuxpressoide_10.2.1_795/ide/tools/bin/../lib/gcc/arm-none-eabi/7.2.1/thumb/v6-m\libcr_eabihelpers.a(double.o)
                              ./source/Proyecto_Final_V3.o (__aeabi_dmul)
c:/nxp/mcuxpressoide_10.2.1_795/ide/tools/bin/../lib/gcc/arm-none-eabi/7.2.1/thumb/v6-m\libcr_eabihelpers.a(llong.o)
                              c:/nxp/mcuxpressoide_10.2.1_795/ide/tools/bin/../lib/gcc/arm-none-eabi/7.2.1/thumb/v6-m\libcr_eabihelpers.a(double.o) (__aeabi_lmul)
c:/nxp/mcuxpressoide_10.2.1_795/ide/tools/bin/../lib/gcc/arm-none-eabi/7.2.1/thumb/v6-m\libcr_eabihelpers.a(memcpy.o)
                              c:/nxp/mcuxpressoide_10.2.1_795/ide/tools/bin/../lib/gcc/arm-none-eabi/7.2.1/../../../../arm-none-eabi/lib/thumb/v6-m\libcr_c.a(memcpy.o) (__aeabi_memcpy)
c:/nxp/mcuxpressoide_10.2.1_795/ide/tools/bin/../lib/gcc/arm-none-eabi/7.2.1/../../../../arm-none-eabi/lib/thumb/v6-m\libcr_semihost_nf.a(__sys_close.o)
                              c:/nxp/mcuxpressoide_10.2.1_795/ide/tools/bin/../lib/gcc/arm-none-eabi/7.2.1/../../../../arm-none-eabi/lib/thumb/v6-m\libcr_c.a(fclose.o) (__sys_close)
c:/nxp/mcuxpressoide_10.2.1_795/ide/tools/bin/../lib/gcc/arm-none-eabi/7.2.1/../../../../arm-none-eabi/lib/thumb/v6-m\libcr_semihost_nf.a(__sys_flen.o)
                              c:/nxp/mcuxpressoide_10.2.1_795/ide/tools/bin/../lib/gcc/arm-none-eabi/7.2.1/../../../../arm-none-eabi/lib/thumb/v6-m\libcr_c.a(_writebuf.o) (__sys_flen)
c:/nxp/mcuxpressoide_10.2.1_795/ide/tools/bin/../lib/gcc/arm-none-eabi/7.2.1/../../../../arm-none-eabi/lib/thumb/v6-m\libcr_semihost_nf.a(__sys_istty.o)
                              c:/nxp/mcuxpressoide_10.2.1_795/ide/tools/bin/../lib/gcc/arm-none-eabi/7.2.1/../../../../arm-none-eabi/lib/thumb/v6-m\libcr_c.a(_deferredlazyseek.o) (__sys_istty)
c:/nxp/mcuxpressoide_10.2.1_795/ide/tools/bin/../lib/gcc/arm-none-eabi/7.2.1/../../../../arm-none-eabi/lib/thumb/v6-m\libcr_semihost_nf.a(__sys_remove.o)
                              c:/nxp/mcuxpressoide_10.2.1_795/ide/tools/bin/../lib/gcc/arm-none-eabi/7.2.1/../../../../arm-none-eabi/lib/thumb/v6-m\libcr_c.a(remove.o) (__sys_remove)
c:/nxp/mcuxpressoide_10.2.1_795/ide/tools/bin/../lib/gcc/arm-none-eabi/7.2.1/../../../../arm-none-eabi/lib/thumb/v6-m\libcr_semihost_nf.a(__sys_rename.o)
                              c:/nxp/mcuxpressoide_10.2.1_795/ide/tools/bin/../lib/gcc/arm-none-eabi/7.2.1/../../../../arm-none-eabi/lib/thumb/v6-m\libcr_c.a(remove.o) (__sys_rename)
c:/nxp/mcuxpressoide_10.2.1_795/ide/tools/bin/../lib/gcc/arm-none-eabi/7.2.1/../../../../arm-none-eabi/lib/thumb/v6-m\libcr_semihost_nf.a(__sys_seek.o)
                              c:/nxp/mcuxpressoide_10.2.1_795/ide/tools/bin/../lib/gcc/arm-none-eabi/7.2.1/../../../../arm-none-eabi/lib/thumb/v6-m\libcr_c.a(_writebuf.o) (__sys_seek)
c:/nxp/mcuxpressoide_10.2.1_795/ide/tools/bin/../lib/gcc/arm-none-eabi/7.2.1/../../../../arm-none-eabi/lib/thumb/v6-m\libcr_semihost_nf.a(__sys_tmpnam.o)
                              c:/nxp/mcuxpressoide_10.2.1_795/ide/tools/bin/../lib/gcc/arm-none-eabi/7.2.1/../../../../arm-none-eabi/lib/thumb/v6-m\libcr_c.a(fclose.o) (__sys_tmpnam)
c:/nxp/mcuxpressoide_10.2.1_795/ide/tools/bin/../lib/gcc/arm-none-eabi/7.2.1/../../../../arm-none-eabi/lib/thumb/v6-m\libcr_semihost_nf.a(__sys_write.o)
                              c:/nxp/mcuxpressoide_10.2.1_795/ide/tools/bin/../lib/gcc/arm-none-eabi/7.2.1/../../../../arm-none-eabi/lib/thumb/v6-m\libcr_c.a(_writebuf.o) (__sys_write)

Discarded input sections

 .group         0x00000000        0xc ./utilities/fsl_debug_console.o
 .group         0x00000000        0xc ./utilities/fsl_debug_console.o
 .group         0x00000000        0xc ./utilities/fsl_debug_console.o
 .group         0x00000000        0xc ./utilities/fsl_debug_console.o
 .group         0x00000000        0xc ./utilities/fsl_debug_console.o
 .group         0x00000000        0xc ./utilities/fsl_debug_console.o
 .group         0x00000000        0xc ./utilities/fsl_debug_console.o
 .group         0x00000000        0xc ./utilities/fsl_debug_console.o
 .group         0x00000000        0xc ./utilities/fsl_debug_console.o
 .group         0x00000000        0xc ./utilities/fsl_debug_console.o
 .group         0x00000000        0xc ./utilities/fsl_debug_console.o
 .group         0x00000000        0xc ./utilities/fsl_debug_console.o
 .group         0x00000000        0xc ./utilities/fsl_debug_console.o
 .group         0x00000000        0xc ./utilities/fsl_debug_console.o
 .group         0x00000000        0xc ./utilities/fsl_debug_console.o
 .group         0x00000000        0xc ./utilities/fsl_debug_console.o
 .group         0x00000000        0xc ./utilities/fsl_debug_console.o
 .group         0x00000000        0xc ./utilities/fsl_debug_console.o
Memory Configuration

Name             Origin             Length             Attributes
PROGRAM_FLASH    0x00000000         0x00010000         xr
SRAM             0x1ffff000         0x00004000         xrw
USB_RAM          0x400fe000         0x00000200         xrw
*default*        0x00000000         0xffffffff

Linker script and memory map

LOAD ./utilities/fsl_debug_console.o
LOAD ./utilities/fsl_io.o
LOAD ./utilities/fsl_log.o
LOAD ./utilities/fsl_str.o
LOAD ./startup/startup_mkl27z644.o
LOAD ./source/Proyecto_Final_V3.o
LOAD ./source/i2c_data_lib.o
LOAD ./source/mtb.o
LOAD ./source/semihost_hardfault.o
LOAD ./drivers/fsl_clock.o
LOAD ./drivers/fsl_common.o
LOAD ./drivers/fsl_ftfx_cache.o
LOAD ./drivers/fsl_ftfx_controller.o
LOAD ./drivers/fsl_ftfx_flash.o
LOAD ./drivers/fsl_ftfx_flexnvm.o
LOAD ./drivers/fsl_gpio.o
LOAD ./drivers/fsl_i2c.o
LOAD ./drivers/fsl_lpuart.o
LOAD ./drivers/fsl_smc.o
LOAD ./drivers/fsl_uart.o
LOAD ./board/board.o
LOAD ./board/clock_config.o
LOAD ./board/peripherals.o
LOAD ./board/pin_mux.o
LOAD ./CMSIS/system_MKL27Z644.o
START GROUP
LOAD c:/nxp/mcuxpressoide_10.2.1_795/ide/tools/bin/../lib/gcc/arm-none-eabi/7.2.1/../../../../arm-none-eabi/lib/thumb/v6-m\libcr_semihost_nf.a
LOAD c:/nxp/mcuxpressoide_10.2.1_795/ide/tools/bin/../lib/gcc/arm-none-eabi/7.2.1/../../../../arm-none-eabi/lib/thumb/v6-m\libcr_c.a
LOAD c:/nxp/mcuxpressoide_10.2.1_795/ide/tools/bin/../lib/gcc/arm-none-eabi/7.2.1/thumb/v6-m\libcr_eabihelpers.a
END GROUP
                0x00000000                __base_PROGRAM_FLASH = 0x0
                0x00000000                __base_Flash = 0x0
                0x00010000                __top_PROGRAM_FLASH = 0x10000
                0x00010000                __top_Flash = 0x10000
                0x1ffff000                __base_SRAM = 0x1ffff000
                0x1ffff000                __base_RAM = 0x1ffff000
                0x20003000                __top_SRAM = 0x20003000
                0x20003000                __top_RAM = 0x20003000
                0x400fe000                __base_USB_RAM = 0x400fe000
                0x400fe000                __base_RAM2 = 0x400fe000
                0x400fe200                __top_USB_RAM = 0x400fe200
                0x400fe200                __top_RAM2 = 0x400fe200

.text           0x00000000     0x3ee8
 FILL mask 0xff
                0x00000000                __vectors_start__ = ABSOLUTE (.)
 *(SORT_BY_ALIGNMENT(.isr_vector))
 .isr_vector    0x00000000       0xc0 ./startup/startup_mkl27z644.o
                0x00000000                g_pfnVectors
                0x00000000                __Vectors
                0x000000c0                . = ALIGN (0x4)
                0x000000c0                __section_table_start = .
                0x000000c0                __data_section_table = .
                0x000000c0        0x4 LONG 0x3ee8 LOADADDR (.data)
                0x000000c4        0x4 LONG 0x1ffff080 ADDR (.data)
                0x000000c8        0x4 LONG 0x8 SIZEOF (.data)
                0x000000cc        0x4 LONG 0x3ee8 LOADADDR (.data_RAM2)
                0x000000d0        0x4 LONG 0x400fe000 ADDR (.data_RAM2)
                0x000000d4        0x4 LONG 0x0 SIZEOF (.data_RAM2)
                0x000000d8                __data_section_table_end = .
                0x000000d8                __bss_section_table = .
                0x000000d8        0x4 LONG 0x1ffff088 ADDR (.bss)
                0x000000dc        0x4 LONG 0x104 SIZEOF (.bss)
                0x000000e0        0x4 LONG 0x400fe000 ADDR (.bss_RAM2)
                0x000000e4        0x4 LONG 0x0 SIZEOF (.bss_RAM2)
                0x000000e8                __bss_section_table_end = .
                0x000000e8                __section_table_end = .
 *(SORT_BY_ALIGNMENT(.after_vectors*))
 .after_vectors.reset
                0x000000e8       0x4c ./startup/startup_mkl27z644.o
                0x000000e8                ResetISR
 .after_vectors.init_data
                0x00000134       0x16 ./startup/startup_mkl27z644.o
                0x00000134                data_init
 .after_vectors.init_bss
                0x0000014a       0x12 ./startup/startup_mkl27z644.o
                0x0000014a                bss_init
 .after_vectors
                0x0000015c      0x10c ./startup/startup_mkl27z644.o
                0x0000015c                NMI_Handler
                0x00000160                SVC_Handler
                0x00000162                PendSV_Handler
                0x00000164                SysTick_Handler
                0x00000166                Reserved42_DriverIRQHandler
                0x00000166                SPI1_DriverIRQHandler
                0x00000166                LPTMR0_DriverIRQHandler
                0x00000166                DMA0_DriverIRQHandler
                0x00000166                Reserved43_DriverIRQHandler
                0x00000166                Reserved39_DriverIRQHandler
                0x00000166                PIT_DriverIRQHandler
                0x00000166                DMA2_DriverIRQHandler
                0x00000166                CMP0_DriverIRQHandler
                0x00000166                TPM2_DriverIRQHandler
                0x00000166                ADC0_DriverIRQHandler
                0x00000166                SPI0_DriverIRQHandler
                0x00000166                RTC_Seconds_DriverIRQHandler
                0x00000166                LLWU_DriverIRQHandler
                0x00000166                Reserved45_DriverIRQHandler
                0x00000166                DMA1_DriverIRQHandler
                0x00000166                PMC_DriverIRQHandler
                0x00000166                PORTB_PORTC_PORTD_PORTE_DriverIRQHandler
                0x00000166                RTC_DriverIRQHandler
                0x00000166                FTFA_DriverIRQHandler
                0x00000166                IntDefaultHandler
                0x00000166                USB0_DriverIRQHandler
                0x00000166                Reserved41_DriverIRQHandler
                0x00000166                TPM0_DriverIRQHandler
                0x00000166                TPM1_DriverIRQHandler
                0x00000166                PORTA_DriverIRQHandler
                0x00000166                Reserved20_DriverIRQHandler
                0x00000166                DMA3_DriverIRQHandler
                0x00000166                UART2_FLEXIO_DriverIRQHandler
                0x00000168                DMA0_IRQHandler
                0x00000170                DMA1_IRQHandler
                0x00000178                DMA2_IRQHandler
                0x00000180                DMA3_IRQHandler
                0x00000188                Reserved20_IRQHandler
                0x00000190                FTFA_IRQHandler
                0x00000198                PMC_IRQHandler
                0x000001a0                LLWU_IRQHandler
                0x000001a8                I2C0_IRQHandler
                0x000001b0                I2C1_IRQHandler
                0x000001b8                SPI0_IRQHandler
                0x000001c0                SPI1_IRQHandler
                0x000001c8                LPUART0_IRQHandler
                0x000001d0                LPUART1_IRQHandler
                0x000001d8                UART2_FLEXIO_IRQHandler
                0x000001e0                ADC0_IRQHandler
                0x000001e8                CMP0_IRQHandler
                0x000001f0                TPM0_IRQHandler
                0x000001f8                TPM1_IRQHandler
                0x00000208                RTC_IRQHandler
                0x00000210                RTC_Seconds_IRQHandler
                0x00000218                PIT_IRQHandler
                0x00000220                Reserved39_IRQHandler
                0x00000228                USB0_IRQHandler
                0x00000230                Reserved41_IRQHandler
                0x00000238                Reserved42_IRQHandler
                0x00000240                Reserved43_IRQHandler
                0x00000248                LPTMR0_IRQHandler
                0x00000250                Reserved45_IRQHandler
                0x00000258                PORTA_IRQHandler
                0x00000260                PORTB_PORTC_PORTD_PORTE_IRQHandler
                0x00000400                . = 0x400
 *fill*         0x00000268      0x198 ff
                0x00000400                PROVIDE (__FLASH_CONFIG_START__, .)
 *(SORT_BY_ALIGNMENT(.FlashConfig))
 .FlashConfig   0x00000400       0x10 ./startup/startup_mkl27z644.o
                0x00000400                Flash_Config
                0x00000410                PROVIDE (__FLASH_CONFIG_END__, .)
                0x00000001                ASSERT (! ((__FLASH_CONFIG_START__ == __FLASH_CONFIG_END__)), Linker Flash Config Support Enabled, but no .FlashConfig section provided within application)
 *(SORT_BY_ALIGNMENT(.text*))
 .text.DbgConsole_Init
                0x00000410       0x40 ./utilities/fsl_debug_console.o
                0x00000410                DbgConsole_Init
 .text.LPUART_EnableTx
                0x00000450       0x40 ./utilities/fsl_io.o
 .text.LPUART_EnableRx
                0x00000490       0x40 ./utilities/fsl_io.o
 .text.IO_Init  0x000004d0       0xc8 ./utilities/fsl_io.o
                0x000004d0                IO_Init
 .text.__NVIC_EnableIRQ
                0x00000598       0x34 ./source/Proyecto_Final_V3.o
 .text.PWM_Init_Servo
                0x000005cc       0x98 ./source/Proyecto_Final_V3.o
                0x000005cc                PWM_Init_Servo
 .text.PosServo
                0x00000664       0x30 ./source/Proyecto_Final_V3.o
                0x00000664                PosServo
 .text.PWM_Init_Motor
                0x00000694       0xe8 ./source/Proyecto_Final_V3.o
                0x00000694                PWM_Init_Motor
 .text.Avanzar  0x0000077c       0x74 ./source/Proyecto_Final_V3.o
                0x0000077c                Avanzar
 .text.Parar    0x000007f0       0x40 ./source/Proyecto_Final_V3.o
                0x000007f0                Parar
 .text.Input_Capturte_Init
                0x00000830       0x7c ./source/Proyecto_Final_V3.o
                0x00000830                Input_Capturte_Init
 .text.TPM2_IRQHandler
                0x000008ac       0x38 ./source/Proyecto_Final_V3.o
                0x000008ac                TPM2_IRQHandler
 .text.readacc  0x000008e4       0x9c ./source/Proyecto_Final_V3.o
                0x000008e4                readacc
 .text.Init_I2C_MAG3110
                0x00000980      0x128 ./source/Proyecto_Final_V3.o
                0x00000980                Init_I2C_MAG3110
 .text.PI_Controller_Mag
                0x00000aa8      0x1ac ./source/Proyecto_Final_V3.o
                0x00000aa8                PI_Controller_Mag
 .text.sensado_mag
                0x00000c54      0x154 ./source/Proyecto_Final_V3.o
                0x00000c54                sensado_mag
 .text.main     0x00000da8      0x210 ./source/Proyecto_Final_V3.o
                0x00000da8                main
 .text.i2c1_do_start
                0x00000fb8       0x60 ./source/i2c_data_lib.o
                0x00000fb8                i2c1_do_start
 .text.i2c1_do_repeat_start
                0x00001018       0x60 ./source/i2c_data_lib.o
                0x00001018                i2c1_do_repeat_start
 .text.i2c1_do_stop
                0x00001078       0x60 ./source/i2c_data_lib.o
                0x00001078                i2c1_do_stop
 .text.i2c1_write_address
                0x000010d8       0xe0 ./source/i2c_data_lib.o
                0x000010d8                i2c1_write_address
 .text.i2c1_write_data
                0x000011b8       0xf0 ./source/i2c_data_lib.o
                0x000011b8                i2c1_write_data
 .text.i2c1_read_data
                0x000012a8       0xe0 ./source/i2c_data_lib.o
                0x000012a8                i2c1_read_data
 .text.mag3110_init
                0x00001388       0x78 ./source/i2c_data_lib.o
                0x00001388                mag3110_init
 .text.HardFault_Handler
                0x00001400       0x30 ./source/semihost_hardfault.o
                0x00001400                HardFault_Handler
 .text.CLOCK_SetEr32kClock
                0x00001430       0x34 ./drivers/fsl_clock.o
 .text.CLOCK_SetSimConfig
                0x00001464       0x2c ./drivers/fsl_clock.o
                0x00001464                CLOCK_SetSimConfig
 .text.CLOCK_GetPeriphClkFreq
                0x00001490       0x34 ./drivers/fsl_clock.o
                0x00001490                CLOCK_GetPeriphClkFreq
 .text.CLOCK_SetMcgliteConfig
                0x000014c4      0x110 ./drivers/fsl_clock.o
                0x000014c4                CLOCK_SetMcgliteConfig
 .text.I2C_TransferCommonIRQHandler
                0x000015d4       0x54 ./drivers/fsl_i2c.o
 .text.I2C0_DriverIRQHandler
                0x00001628       0x20 ./drivers/fsl_i2c.o
                0x00001628                I2C0_DriverIRQHandler
 .text.I2C1_DriverIRQHandler
                0x00001648       0x20 ./drivers/fsl_i2c.o
                0x00001648                I2C1_DriverIRQHandler
 .text.CLOCK_EnableClock
                0x00001668       0x34 ./drivers/fsl_lpuart.o
 .text.LPUART_GetInstance
                0x0000169c       0x4c ./drivers/fsl_lpuart.o
                0x0000169c                LPUART_GetInstance
 .text.LPUART_Init
                0x000016e8      0x2ac ./drivers/fsl_lpuart.o
                0x000016e8                LPUART_Init
 .text.LPUART_GetDefaultConfig
                0x00001994       0x5c ./drivers/fsl_lpuart.o
                0x00001994                LPUART_GetDefaultConfig
 .text.LPUART0_DriverIRQHandler
                0x000019f0       0x24 ./drivers/fsl_lpuart.o
                0x000019f0                LPUART0_DriverIRQHandler
 .text.LPUART1_DriverIRQHandler
                0x00001a14       0x24 ./drivers/fsl_lpuart.o
                0x00001a14                LPUART1_DriverIRQHandler
 .text.CLOCK_EnableClock
                0x00001a38       0x34 ./drivers/fsl_uart.o
 .text.UART_GetInstance
                0x00001a6c       0x54 ./drivers/fsl_uart.o
                0x00001a6c                UART_GetInstance
 .text.UART_Init
                0x00001ac0      0x200 ./drivers/fsl_uart.o
                0x00001ac0                UART_Init
 .text.UART_GetDefaultConfig
                0x00001cc0       0x44 ./drivers/fsl_uart.o
                0x00001cc0                UART_GetDefaultConfig
 .text.CLOCK_SetLpuart0Clock
                0x00001d04       0x38 ./board/board.o
 .text.BOARD_InitDebugConsole
                0x00001d3c       0x30 ./board/board.o
                0x00001d3c                BOARD_InitDebugConsole
 .text.CLOCK_SetSimSafeDivs
                0x00001d6c       0x20 ./board/clock_config.o
 .text.BOARD_BootClockRUN
                0x00001d8c       0x34 ./board/clock_config.o
                0x00001d8c                BOARD_BootClockRUN
 .text.CLOCK_EnableClock
                0x00001dc0       0x34 ./board/pin_mux.o
 .text.PORT_SetPinConfig
                0x00001df4       0x38 ./board/pin_mux.o
 .text.BOARD_InitDEBUG_UART
                0x00001e2c       0x7c ./board/pin_mux.o
                0x00001e2c                BOARD_InitDEBUG_UART
 .text.SystemInit
                0x00001ea8       0x40 ./CMSIS/system_MKL27Z644.o
                0x00001ea8                SystemInit
 .text.__assertion_failed
                0x00001ee8       0x4c c:/nxp/mcuxpressoide_10.2.1_795/ide/tools/bin/../lib/gcc/arm-none-eabi/7.2.1/../../../../arm-none-eabi/lib/thumb/v6-m\libcr_semihost_nf.a(_cr_assert.o)
                0x00001ee8                __assertion_failed
 .text.__sys_appexit
                0x00001f34        0xc c:/nxp/mcuxpressoide_10.2.1_795/ide/tools/bin/../lib/gcc/arm-none-eabi/7.2.1/../../../../arm-none-eabi/lib/thumb/v6-m\libcr_semihost_nf.a(__sys_appexit.o)
                0x00001f34                __sys_appexit
                0x00001f34                __exit
 .text._deferredlazyseek
                0x00001f40       0x40 c:/nxp/mcuxpressoide_10.2.1_795/ide/tools/bin/../lib/gcc/arm-none-eabi/7.2.1/../../../../arm-none-eabi/lib/thumb/v6-m\libcr_c.a(_deferredlazyseek.o)
                0x00001f40                _deferredlazyseek
 .text.__flsbuf
                0x00001f80      0x14c c:/nxp/mcuxpressoide_10.2.1_795/ide/tools/bin/../lib/gcc/arm-none-eabi/7.2.1/../../../../arm-none-eabi/lib/thumb/v6-m\libcr_c.a(_deferredlazyseek.o)
                0x00001f80                __flsbuf
 .text._fflush  0x000020cc       0x5c c:/nxp/mcuxpressoide_10.2.1_795/ide/tools/bin/../lib/gcc/arm-none-eabi/7.2.1/../../../../arm-none-eabi/lib/thumb/v6-m\libcr_c.a(_fflush.o)
                0x000020cc                _fflush
 .text._Cwritebuf
                0x00002128       0x68 c:/nxp/mcuxpressoide_10.2.1_795/ide/tools/bin/../lib/gcc/arm-none-eabi/7.2.1/../../../../arm-none-eabi/lib/thumb/v6-m\libcr_c.a(_writebuf.o)
                0x00002128                _Cwritebuf
 .text.malloc   0x00002190       0xcc c:/nxp/mcuxpressoide_10.2.1_795/ide/tools/bin/../lib/gcc/arm-none-eabi/7.2.1/../../../../arm-none-eabi/lib/thumb/v6-m\libcr_c.a(alloc.o)
                0x00002190                malloc
 .text._Csys_alloc
                0x0000225c       0x20 c:/nxp/mcuxpressoide_10.2.1_795/ide/tools/bin/../lib/gcc/arm-none-eabi/7.2.1/../../../../arm-none-eabi/lib/thumb/v6-m\libcr_c.a(alloc.o)
                0x0000225c                _Csys_alloc
 .text.atan     0x0000227c      0x204 c:/nxp/mcuxpressoide_10.2.1_795/ide/tools/bin/../lib/gcc/arm-none-eabi/7.2.1/../../../../arm-none-eabi/lib/thumb/v6-m\libcr_c.a(atan.o)
                0x0000227c                atan
 .text.fseek    0x00002480       0xf0 c:/nxp/mcuxpressoide_10.2.1_795/ide/tools/bin/../lib/gcc/arm-none-eabi/7.2.1/../../../../arm-none-eabi/lib/thumb/v6-m\libcr_c.a(fseek.o)
                0x00002480                fseek
 .text.ftell    0x00002570       0x48 c:/nxp/mcuxpressoide_10.2.1_795/ide/tools/bin/../lib/gcc/arm-none-eabi/7.2.1/../../../../arm-none-eabi/lib/thumb/v6-m\libcr_c.a(ftell.o)
                0x00002570                ftell
 .text._initio  0x000025b8       0x7c c:/nxp/mcuxpressoide_10.2.1_795/ide/tools/bin/../lib/gcc/arm-none-eabi/7.2.1/../../../../arm-none-eabi/lib/thumb/v6-m\libcr_c.a(initio.o)
                0x000025b8                _initio
 .text.setvbuf  0x00002634       0x48 c:/nxp/mcuxpressoide_10.2.1_795/ide/tools/bin/../lib/gcc/arm-none-eabi/7.2.1/../../../../arm-none-eabi/lib/thumb/v6-m\libcr_c.a(setvbuf.o)
                0x00002634                setvbuf
 .text.strlen   0x0000267c       0x58 c:/nxp/mcuxpressoide_10.2.1_795/ide/tools/bin/../lib/gcc/arm-none-eabi/7.2.1/../../../../arm-none-eabi/lib/thumb/v6-m\libcr_c.a(strlen.o)
                0x0000267c                strlen
 .text._sbrk    0x000026d4       0x40 c:/nxp/mcuxpressoide_10.2.1_795/ide/tools/bin/../lib/gcc/arm-none-eabi/7.2.1/../../../../arm-none-eabi/lib/thumb/v6-m\libcr_c.a(_cr_sbrk.o)
                0x000026d4                _sbrk
 .text._fdopen  0x00002714       0x74 c:/nxp/mcuxpressoide_10.2.1_795/ide/tools/bin/../lib/gcc/arm-none-eabi/7.2.1/../../../../arm-none-eabi/lib/thumb/v6-m\libcr_c.a(_fdopen.o)
                0x00002714                _fdopen
 .text.fclose   0x00002788       0x5c c:/nxp/mcuxpressoide_10.2.1_795/ide/tools/bin/../lib/gcc/arm-none-eabi/7.2.1/../../../../arm-none-eabi/lib/thumb/v6-m\libcr_c.a(fclose.o)
                0x00002788                fclose
 .text.fflush   0x000027e4       0x44 c:/nxp/mcuxpressoide_10.2.1_795/ide/tools/bin/../lib/gcc/arm-none-eabi/7.2.1/../../../../arm-none-eabi/lib/thumb/v6-m\libcr_c.a(fflush.o)
                0x000027e4                fflush
 .text.__check_heap_overflow
                0x00002828       0x14 c:/nxp/mcuxpressoide_10.2.1_795/ide/tools/bin/../lib/gcc/arm-none-eabi/7.2.1/../../../../arm-none-eabi/lib/thumb/v6-m\libcr_c.a(_cr_check_heap.o)
                0x00002828                __check_heap_overflow
 .text._do_fflush
                0x0000283c       0x44 c:/nxp/mcuxpressoide_10.2.1_795/ide/tools/bin/../lib/gcc/arm-none-eabi/7.2.1/../../../../arm-none-eabi/lib/thumb/v6-m\libcr_c.a(_do_fflush.o)
                0x0000283c                _do_fflush
 .text.__aeabi_dmul
                0x00002880      0x184 c:/nxp/mcuxpressoide_10.2.1_795/ide/tools/bin/../lib/gcc/arm-none-eabi/7.2.1/thumb/v6-m\libcr_eabihelpers.a(double.o)
                0x00002880                __aeabi_dmul
 .text.__aeabi_ddiv
                0x00002a04      0x148 c:/nxp/mcuxpressoide_10.2.1_795/ide/tools/bin/../lib/gcc/arm-none-eabi/7.2.1/thumb/v6-m\libcr_eabihelpers.a(double.o)
                0x00002a04                __aeabi_ddiv
 .text.__aeabi_dsub
                0x00002b4c      0x1bc c:/nxp/mcuxpressoide_10.2.1_795/ide/tools/bin/../lib/gcc/arm-none-eabi/7.2.1/thumb/v6-m\libcr_eabihelpers.a(double.o)
                0x00002b4c                __aeabi_dsub
 .text.__aeabi_dadd
                0x00002d08      0x128 c:/nxp/mcuxpressoide_10.2.1_795/ide/tools/bin/../lib/gcc/arm-none-eabi/7.2.1/thumb/v6-m\libcr_eabihelpers.a(double.o)
                0x00002d08                __aeabi_dadd
 .text.__aeabi_d2iz
                0x00002e30       0x44 c:/nxp/mcuxpressoide_10.2.1_795/ide/tools/bin/../lib/gcc/arm-none-eabi/7.2.1/thumb/v6-m\libcr_eabihelpers.a(double.o)
                0x00002e30                __aeabi_d2iz
 .text.__aeabi_d2uiz
                0x00002e74       0x34 c:/nxp/mcuxpressoide_10.2.1_795/ide/tools/bin/../lib/gcc/arm-none-eabi/7.2.1/thumb/v6-m\libcr_eabihelpers.a(double.o)
                0x00002e74                __aeabi_d2uiz
 .text.__aeabi_dcmplt
                0x00002ea8       0x5c c:/nxp/mcuxpressoide_10.2.1_795/ide/tools/bin/../lib/gcc/arm-none-eabi/7.2.1/thumb/v6-m\libcr_eabihelpers.a(double.o)
                0x00002ea8                __aeabi_dcmplt
 .text.__aeabi_dcmpgt
                0x00002f04       0x5c c:/nxp/mcuxpressoide_10.2.1_795/ide/tools/bin/../lib/gcc/arm-none-eabi/7.2.1/thumb/v6-m\libcr_eabihelpers.a(double.o)
                0x00002f04                __aeabi_dcmpgt
 .text.UART_EnableTx
                0x00002f60       0x40 ./utilities/fsl_io.o
 .text.UART_EnableRx
                0x00002fa0       0x40 ./utilities/fsl_io.o
 .text.LOG_Init
                0x00002fe0       0x3a ./utilities/fsl_log.o
                0x00002fe0                LOG_Init
 .text.Delay_ms
                0x0000301a       0x34 ./source/Proyecto_Final_V3.o
                0x0000301a                Delay_ms
 .text.i2c1_single_byte_read
                0x0000304e       0x8e ./source/i2c_data_lib.o
                0x0000304e                i2c1_single_byte_read
 .text.i2c1_single_byte_write
                0x000030dc       0x66 ./source/i2c_data_lib.o
                0x000030dc                i2c1_single_byte_write
 .text.BOARD_InitBootClocks
                0x00003142        0xe ./board/clock_config.o
                0x00003142                BOARD_InitBootClocks
 .text.BOARD_InitPeripherals
                0x00003150        0xa ./board/peripherals.o
                0x00003150                BOARD_InitPeripherals
 .text.BOARD_InitBootPeripherals
                0x0000315a        0xe ./board/peripherals.o
                0x0000315a                BOARD_InitBootPeripherals
 .text.BOARD_InitBootPins
                0x00003168       0x12 ./board/pin_mux.o
                0x00003168                BOARD_InitBootPins
 .text.BOARD_InitPins
                0x0000317a        0xa ./board/pin_mux.o
                0x0000317a                BOARD_InitPins
 .text.SystemInitHook
                0x00003184        0xa ./CMSIS/system_MKL27Z644.o
                0x00003184                SystemInitHook
 .text.__main   0x0000318e        0xc c:/nxp/mcuxpressoide_10.2.1_795/ide/tools/bin/../lib/gcc/arm-none-eabi/7.2.1/../../../../arm-none-eabi/lib/thumb/v6-m\libcr_semihost_nf.a(_cr__main.o)
                0x0000318e                __CR_SEMIHOST
                0x0000318e                __main
 .text.memset   0x0000319a        0x8 c:/nxp/mcuxpressoide_10.2.1_795/ide/tools/bin/../lib/gcc/arm-none-eabi/7.2.1/../../../../arm-none-eabi/lib/thumb/v6-m\libcr_c.a(memset.o)
                0x0000319a                memset
 .text.free     0x000031a2       0x2c c:/nxp/mcuxpressoide_10.2.1_795/ide/tools/bin/../lib/gcc/arm-none-eabi/7.2.1/../../../../arm-none-eabi/lib/thumb/v6-m\libcr_c.a(alloc.o)
                0x000031a2                free
 .text.fabs     0x000031ce       0x22 c:/nxp/mcuxpressoide_10.2.1_795/ide/tools/bin/../lib/gcc/arm-none-eabi/7.2.1/../../../../arm-none-eabi/lib/thumb/v6-m\libcr_c.a(fabs.o)
                0x000031ce                fabs
 .text.fputs    0x000031f0       0x2e c:/nxp/mcuxpressoide_10.2.1_795/ide/tools/bin/../lib/gcc/arm-none-eabi/7.2.1/../../../../arm-none-eabi/lib/thumb/v6-m\libcr_c.a(fputs.o)
                0x000031f0                fputs
 .text.remove   0x0000321e       0x12 c:/nxp/mcuxpressoide_10.2.1_795/ide/tools/bin/../lib/gcc/arm-none-eabi/7.2.1/../../../../arm-none-eabi/lib/thumb/v6-m\libcr_c.a(remove.o)
                0x0000321e                remove
 .text.__aeabi_division_idivmod
                0x00003230       0x78 c:/nxp/mcuxpressoide_10.2.1_795/ide/tools/bin/../lib/gcc/arm-none-eabi/7.2.1/thumb/v6-m\libcr_eabihelpers.a(division_32.o)
                0x00003230                __aeabi_idivmod
                0x00003230                __aeabi_idiv
                0x00003236                __aeabi_uidivmod
                0x00003236                __aeabi_uidiv
 .text.__aeabi_division_idiv0
                0x000032a8        0x2 c:/nxp/mcuxpressoide_10.2.1_795/ide/tools/bin/../lib/gcc/arm-none-eabi/7.2.1/thumb/v6-m\libcr_eabihelpers.a(division_idiv0.o)
                0x000032a8                __aeabi_idiv0
 .text.__bhs_ui2d
                0x000032aa       0x5e c:/nxp/mcuxpressoide_10.2.1_795/ide/tools/bin/../lib/gcc/arm-none-eabi/7.2.1/thumb/v6-m\libcr_eabihelpers.a(double.o)
                0x000032aa                __bhs_ui2d
 .text.__aeabi_i2d
                0x00003308       0x18 c:/nxp/mcuxpressoide_10.2.1_795/ide/tools/bin/../lib/gcc/arm-none-eabi/7.2.1/thumb/v6-m\libcr_eabihelpers.a(double.o)
                0x00003308                __aeabi_i2d
 .text.__aeabi_llong_lmul
                0x00003320       0x2e c:/nxp/mcuxpressoide_10.2.1_795/ide/tools/bin/../lib/gcc/arm-none-eabi/7.2.1/thumb/v6-m\libcr_eabihelpers.a(llong.o)
                0x00003320                __aeabi_lmul
 .text.__aeabi_memset_lowlevel
                0x0000334e       0x2a c:/nxp/mcuxpressoide_10.2.1_795/ide/tools/bin/../lib/gcc/arm-none-eabi/7.2.1/thumb/v6-m\libcr_eabihelpers.a(memcpy.o)
                0x0000334e                __aeabi_lowlevel_memset
 .text.__sys_close
                0x00003378        0xc c:/nxp/mcuxpressoide_10.2.1_795/ide/tools/bin/../lib/gcc/arm-none-eabi/7.2.1/../../../../arm-none-eabi/lib/thumb/v6-m\libcr_semihost_nf.a(__sys_close.o)
                0x00003378                __sys_close
 .text.__sys_flen
                0x00003384        0xc c:/nxp/mcuxpressoide_10.2.1_795/ide/tools/bin/../lib/gcc/arm-none-eabi/7.2.1/../../../../arm-none-eabi/lib/thumb/v6-m\libcr_semihost_nf.a(__sys_flen.o)
                0x00003384                __sys_flen
 .text.__sys_istty
                0x00003390        0xc c:/nxp/mcuxpressoide_10.2.1_795/ide/tools/bin/../lib/gcc/arm-none-eabi/7.2.1/../../../../arm-none-eabi/lib/thumb/v6-m\libcr_semihost_nf.a(__sys_istty.o)
                0x00003390                __sys_istty
 .text.__sys_remove
                0x0000339c        0xc c:/nxp/mcuxpressoide_10.2.1_795/ide/tools/bin/../lib/gcc/arm-none-eabi/7.2.1/../../../../arm-none-eabi/lib/thumb/v6-m\libcr_semihost_nf.a(__sys_remove.o)
                0x0000339c                __sys_remove
 .text.__sys_seek
                0x000033a8        0xc c:/nxp/mcuxpressoide_10.2.1_795/ide/tools/bin/../lib/gcc/arm-none-eabi/7.2.1/../../../../arm-none-eabi/lib/thumb/v6-m\libcr_semihost_nf.a(__sys_seek.o)
                0x000033a8                __sys_seek
 .text.__sys_tmpnam
                0x000033b4        0xc c:/nxp/mcuxpressoide_10.2.1_795/ide/tools/bin/../lib/gcc/arm-none-eabi/7.2.1/../../../../arm-none-eabi/lib/thumb/v6-m\libcr_semihost_nf.a(__sys_tmpnam.o)
                0x000033b4                __sys_tmpnam
 .text.__sys_write
                0x000033c0        0xc c:/nxp/mcuxpressoide_10.2.1_795/ide/tools/bin/../lib/gcc/arm-none-eabi/7.2.1/../../../../arm-none-eabi/lib/thumb/v6-m\libcr_semihost_nf.a(__sys_write.o)
                0x000033c0                __sys_write
 *(SORT_BY_ALIGNMENT(.rodata) SORT_BY_ALIGNMENT(.rodata.*) SORT_BY_ALIGNMENT(.constdata) SORT_BY_ALIGNMENT(.constdata.*))
 *fill*         0x000033cc        0x4 ff
 .rodata.a.3920
                0x000033d0       0x20 c:/nxp/mcuxpressoide_10.2.1_795/ide/tools/bin/../lib/gcc/arm-none-eabi/7.2.1/../../../../arm-none-eabi/lib/thumb/v6-m\libcr_c.a(atan.o)
 .rodata        0x000033f0       0x50 ./utilities/fsl_debug_console.o
 .rodata        0x00003440       0x27 ./utilities/fsl_io.o
 *fill*         0x00003467        0x1 ff
 .rodata        0x00003468       0xae ./drivers/fsl_clock.o
 *fill*         0x00003516        0x2 ff
 .rodata.s_lpuartBases
                0x00003518        0x8 ./drivers/fsl_lpuart.o
 .rodata.s_lpuartClock
                0x00003520        0x8 ./drivers/fsl_lpuart.o
 .rodata        0x00003528      0x4da ./drivers/fsl_lpuart.o
 *fill*         0x00003a02        0x2 ff
 .rodata.s_uartBases
                0x00003a04        0xc ./drivers/fsl_uart.o
 .rodata.s_uartClock
                0x00003a10        0xc ./drivers/fsl_uart.o
 .rodata        0x00003a1c      0x45b ./drivers/fsl_uart.o
 *fill*         0x00003e77        0x1 ff
 .rodata.mcgliteConfig_BOARD_BootClockRUN
                0x00003e78        0x6 ./board/clock_config.o
                0x00003e78                mcgliteConfig_BOARD_BootClockRUN
 *fill*         0x00003e7e        0x2 ff
 .rodata.simConfig_BOARD_BootClockRUN
                0x00003e80        0x8 ./board/clock_config.o
                0x00003e80                simConfig_BOARD_BootClockRUN
 .rodata        0x00003e88       0x26 ./board/pin_mux.o
 *fill*         0x00003eae        0x2 ff
 .rodata.__num_Ciob_streams
                0x00003eb0        0x4 c:/nxp/mcuxpressoide_10.2.1_795/ide/tools/bin/../lib/gcc/arm-none-eabi/7.2.1/../../../../arm-none-eabi/lib/thumb/v6-m\libcr_semihost_nf.a(__ciob.o)
                0x00003eb0                __num_Ciob_streams
 .rodata.__assertion_failed.str1.1
                0x00003eb4       0x15 c:/nxp/mcuxpressoide_10.2.1_795/ide/tools/bin/../lib/gcc/arm-none-eabi/7.2.1/../../../../arm-none-eabi/lib/thumb/v6-m\libcr_semihost_nf.a(_cr_assert.o)
 .rodata._Csys_alloc.str1.1
                0x00003ec9       0x18 c:/nxp/mcuxpressoide_10.2.1_795/ide/tools/bin/../lib/gcc/arm-none-eabi/7.2.1/../../../../arm-none-eabi/lib/thumb/v6-m\libcr_c.a(alloc.o)
 .rodata._initio.str1.1
                0x00003ee1        0x4 c:/nxp/mcuxpressoide_10.2.1_795/ide/tools/bin/../lib/gcc/arm-none-eabi/7.2.1/../../../../arm-none-eabi/lib/thumb/v6-m\libcr_c.a(initio.o)
                0x00003ee8                . = ALIGN (0x4)
 *fill*         0x00003ee5        0x3 ff

.glue_7         0x00003ee8        0x0
 .glue_7        0x00003ee8        0x0 linker stubs

.glue_7t        0x00003ee8        0x0
 .glue_7t       0x00003ee8        0x0 linker stubs

.vfp11_veneer   0x00003ee8        0x0
 .vfp11_veneer  0x00003ee8        0x0 linker stubs

.v4_bx          0x00003ee8        0x0
 .v4_bx         0x00003ee8        0x0 linker stubs

.iplt           0x00003ee8        0x0
 .iplt          0x00003ee8        0x0 ./utilities/fsl_debug_console.o

.rel.dyn        0x00003ee8        0x0
 .rel.iplt      0x00003ee8        0x0 ./utilities/fsl_debug_console.o

.ARM.extab
 *(SORT_BY_ALIGNMENT(.ARM.extab*) SORT_BY_ALIGNMENT(.gnu.linkonce.armextab.*))
                0x00003ee8                __exidx_start = .

.ARM.exidx
 *(SORT_BY_ALIGNMENT(.ARM.exidx*) SORT_BY_ALIGNMENT(.gnu.linkonce.armexidx.*))
                0x00003ee8                __exidx_end = .
                0x00003ee8                _etext = .

.m_usb_data
 *(SORT_BY_ALIGNMENT(m_usb_bdt))

.mtb_buffer_RAM2
 *(SORT_BY_ALIGNMENT(.mtb.$RAM2*))
 *(SORT_BY_ALIGNMENT(.mtb.$USB_RAM*))

.data_RAM2      0x400fe000        0x0 load address 0x00003ee8
 FILL mask 0xff
                [!provide]                PROVIDE (__start_data_RAM2, .)
 *(SORT_BY_ALIGNMENT(.ramfunc.$RAM2))
 *(SORT_BY_ALIGNMENT(.ramfunc.$USB_RAM))
 *(SORT_BY_ALIGNMENT(.data.$RAM2*))
 *(SORT_BY_ALIGNMENT(.data.$USB_RAM*))
                0x400fe000                . = ALIGN (0x4)
                [!provide]                PROVIDE (__end_data_RAM2, .)

.mtb_buffer_default
                0x1ffff000       0x80
 *(SORT_BY_ALIGNMENT(.mtb*))
 .mtb.$RAM1     0x1ffff000       0x80 ./source/mtb.o
                0x1ffff000                __mtb_buffer__

.uninit_RESERVED
                0x1ffff080        0x0
 *(SORT_BY_ALIGNMENT(.bss.$RESERVED*))
                0x1ffff080                . = ALIGN (0x4)
                0x1ffff080                _end_uninit_RESERVED = .

.data           0x1ffff080        0x8 load address 0x00003ee8
 FILL mask 0xff
                0x1ffff080                _data = .
 *(SORT_BY_ALIGNMENT(vtable))
 *(SORT_BY_ALIGNMENT(.ramfunc*))
 *(SORT_BY_ALIGNMENT(.data*))
 .data.SystemCoreClock
                0x1ffff080        0x4 ./CMSIS/system_MKL27Z644.o
                0x1ffff080                SystemCoreClock
 .data.m_mag    0x1ffff084        0x1 ./source/Proyecto_Final_V3.o
                0x1ffff084                m_mag
                0x1ffff088                . = ALIGN (0x4)
 *fill*         0x1ffff085        0x3 ff
                0x1ffff088                _edata = .

.igot.plt       0x1ffff088        0x0 load address 0x00003ef0
 .igot.plt      0x1ffff088        0x0 ./utilities/fsl_debug_console.o

.bss_RAM2       0x400fe000        0x0
                [!provide]                PROVIDE (__start_bss_RAM2, .)
 *(SORT_BY_ALIGNMENT(.bss.$RAM2*))
 *(SORT_BY_ALIGNMENT(.bss.$USB_RAM*))
                0x400fe000                . = ALIGN ((. != 0x0)?0x4:0x1)
                [!provide]                PROVIDE (__end_bss_RAM2, .)

.bss            0x1ffff088      0x104
                0x1ffff088                _bss = .
 *(SORT_BY_ALIGNMENT(.bss*))
 .bss.angulo_mag
                0x1ffff088        0x8 ./source/Proyecto_Final_V3.o
                0x1ffff088                angulo_mag
 .bss.s_debugConsoleIO
                0x1ffff090        0x8 ./utilities/fsl_io.o
 .bss.i.8125    0x1ffff098        0x4 ./source/Proyecto_Final_V3.o
 .bss.i2c1_counter
                0x1ffff09c        0x4 ./source/i2c_data_lib.o
                0x1ffff09c                i2c1_counter
 .bss.timeout   0x1ffff0a0        0x4 ./source/i2c_data_lib.o
                0x1ffff0a0                timeout
 .bss.s_i2cHandle
                0x1ffff0a4        0x8 ./drivers/fsl_i2c.o
 .bss.s_i2cMasterIsr
                0x1ffff0ac        0x4 ./drivers/fsl_i2c.o
 .bss.s_i2cSlaveIsr
                0x1ffff0b0        0x4 ./drivers/fsl_i2c.o
 .bss.s_lpuartHandle
                0x1ffff0b4        0x8 ./drivers/fsl_lpuart.o
 .bss.s_lpuartIsr
                0x1ffff0bc        0x4 ./drivers/fsl_lpuart.o
 .bss.__Ciob    0x1ffff0c0       0xb4 c:/nxp/mcuxpressoide_10.2.1_795/ide/tools/bin/../lib/gcc/arm-none-eabi/7.2.1/../../../../arm-none-eabi/lib/thumb/v6-m\libcr_semihost_nf.a(__ciob.o)
                0x1ffff0c0                __Ciob
 .bss.__end_of_heap
                0x1ffff174        0x4 c:/nxp/mcuxpressoide_10.2.1_795/ide/tools/bin/../lib/gcc/arm-none-eabi/7.2.1/../../../../arm-none-eabi/lib/thumb/v6-m\libcr_c.a(__init_alloc.o)
                0x1ffff174                __end_of_heap
 .bss.__heaps   0x1ffff178        0x4 c:/nxp/mcuxpressoide_10.2.1_795/ide/tools/bin/../lib/gcc/arm-none-eabi/7.2.1/../../../../arm-none-eabi/lib/thumb/v6-m\libcr_c.a(__init_alloc.o)
                0x1ffff178                __heaps
 .bss.errno     0x1ffff17c        0x4 c:/nxp/mcuxpressoide_10.2.1_795/ide/tools/bin/../lib/gcc/arm-none-eabi/7.2.1/../../../../arm-none-eabi/lib/thumb/v6-m\libcr_c.a(errno.o)
                0x1ffff17c                errno
 .bss.conteo_hall
                0x1ffff180        0x2 ./source/Proyecto_Final_V3.o
                0x1ffff180                conteo_hall
 .bss.mx        0x1ffff182        0x2 ./source/Proyecto_Final_V3.o
                0x1ffff182                mx
 .bss.my        0x1ffff184        0x2 ./source/Proyecto_Final_V3.o
                0x1ffff184                my
 .bss.error_ant
                0x1ffff186        0x2 ./source/Proyecto_Final_V3.o
                0x1ffff186                error_ant
 .bss.flag_motor
                0x1ffff188        0x1 ./source/Proyecto_Final_V3.o
                0x1ffff188                flag_motor
 .bss.flag_dir_Motor
                0x1ffff189        0x1 ./source/Proyecto_Final_V3.o
                0x1ffff189                flag_dir_Motor
 .bss.i2c1_state
                0x1ffff18a        0x1 ./source/i2c_data_lib.o
                0x1ffff18a                i2c1_state
 .bss.dev_address
                0x1ffff18b        0x1 ./source/i2c_data_lib.o
                0x1ffff18b                dev_address
 *(SORT_BY_ALIGNMENT(COMMON))
                0x1ffff18c                . = ALIGN (0x4)
                0x1ffff18c                _ebss = .
                [!provide]                PROVIDE (end, .)

.noinit_RAM2    0x400fe000        0x0
 *(SORT_BY_ALIGNMENT(.noinit.$RAM2*))
 *(SORT_BY_ALIGNMENT(.noinit.$USB_RAM*))
                0x400fe000                . = ALIGN (0x4)

.noinit         0x1ffff18c        0x0
                0x1ffff18c                _noinit = .
 *(SORT_BY_ALIGNMENT(.noinit*))
                0x1ffff18c                . = ALIGN (0x4)
                0x1ffff18c                _end_noinit = .
                0x00000400                _HeapSize = 0x400

.heap           0x1ffff18c      0x400
                0x1ffff18c                _pvHeapStart = .
                0x1ffff58c                . = (. + _HeapSize)
 *fill*         0x1ffff18c      0x400 
                0x1ffff58c                . = ALIGN (0x4)
                0x1ffff58c                _pvHeapLimit = .
                0x00000400                _StackSize = 0x400

.heap2stackfill
                0x1ffff58c      0x400
                0x1ffff98c                . = (. + _StackSize)
 *fill*         0x1ffff58c      0x400 

.stack          0x20002c00        0x0
                0x20002c00                _vStackBase = .
                0x20002c00                . = ALIGN (0x4)
                0x20003000                _vStackTop = (. + _StackSize)
                0x00000000                _image_start = LOADADDR (.text)
                0x00003ef0                _image_end = (LOADADDR (.data) + SIZEOF (.data))
                0x00003ef0                _image_size = (_image_end - _image_start)
OUTPUT(Proyecto_Final_V3.axf elf32-littlearm)

.debug_info     0x00000000     0xd6a6
 .debug_info    0x00000000      0x2b3 ./utilities/fsl_debug_console.o
 .debug_info    0x000002b3      0xa6e ./utilities/fsl_io.o
 .debug_info    0x00000d21      0x329 ./utilities/fsl_log.o
 .debug_info    0x0000104a      0x49b ./startup/startup_mkl27z644.o
 .debug_info    0x000014e5     0x3c76 ./source/Proyecto_Final_V3.o
 .debug_info    0x0000515b      0xa92 ./source/i2c_data_lib.o
 .debug_info    0x00005bed       0x52 ./source/mtb.o
 .debug_info    0x00005c3f       0x3b ./source/semihost_hardfault.o
 .debug_info    0x00005c7a     0x113b ./drivers/fsl_clock.o
 .debug_info    0x00006db5     0x19c7 ./drivers/fsl_i2c.o
 .debug_info    0x0000877c     0x1511 ./drivers/fsl_lpuart.o
 .debug_info    0x00009c8d     0x1509 ./drivers/fsl_uart.o
 .debug_info    0x0000b196      0x6c0 ./board/board.o
 .debug_info    0x0000b856      0x930 ./board/clock_config.o
 .debug_info    0x0000c186      0x7c6 ./board/peripherals.o
 .debug_info    0x0000c94c      0x96d ./board/pin_mux.o
 .debug_info    0x0000d2b9      0x3ed ./CMSIS/system_MKL27Z644.o

.debug_abbrev   0x00000000     0x2098
 .debug_abbrev  0x00000000      0x100 ./utilities/fsl_debug_console.o
 .debug_abbrev  0x00000100      0x22b ./utilities/fsl_io.o
 .debug_abbrev  0x0000032b      0x179 ./utilities/fsl_log.o
 .debug_abbrev  0x000004a4      0x16d ./startup/startup_mkl27z644.o
 .debug_abbrev  0x00000611      0x3bc ./source/Proyecto_Final_V3.o
 .debug_abbrev  0x000009cd      0x1fb ./source/i2c_data_lib.o
 .debug_abbrev  0x00000bc8       0x44 ./source/mtb.o
 .debug_abbrev  0x00000c0c       0x2f ./source/semihost_hardfault.o
 .debug_abbrev  0x00000c3b      0x2d6 ./drivers/fsl_clock.o
 .debug_abbrev  0x00000f11      0x346 ./drivers/fsl_i2c.o
 .debug_abbrev  0x00001257      0x2d8 ./drivers/fsl_lpuart.o
 .debug_abbrev  0x0000152f      0x30a ./drivers/fsl_uart.o
 .debug_abbrev  0x00001839      0x176 ./board/board.o
 .debug_abbrev  0x000019af      0x1be ./board/clock_config.o
 .debug_abbrev  0x00001b6d      0x15c ./board/peripherals.o
 .debug_abbrev  0x00001cc9      0x27b ./board/pin_mux.o
 .debug_abbrev  0x00001f44      0x154 ./CMSIS/system_MKL27Z644.o

.debug_aranges  0x00000000      0xa28
 .debug_aranges
                0x00000000       0x30 ./utilities/fsl_debug_console.o
 .debug_aranges
                0x00000030       0x58 ./utilities/fsl_io.o
 .debug_aranges
                0x00000088       0x58 ./utilities/fsl_log.o
 .debug_aranges
                0x000000e0      0x160 ./startup/startup_mkl27z644.o
 .debug_aranges
                0x00000240       0xb0 ./source/Proyecto_Final_V3.o
 .debug_aranges
                0x000002f0       0x90 ./source/i2c_data_lib.o
 .debug_aranges
                0x00000380       0x18 ./source/mtb.o
 .debug_aranges
                0x00000398       0x20 ./source/semihost_hardfault.o
 .debug_aranges
                0x000003b8       0xd0 ./drivers/fsl_clock.o
 .debug_aranges
                0x00000488      0x178 ./drivers/fsl_i2c.o
 .debug_aranges
                0x00000600      0x120 ./drivers/fsl_lpuart.o
 .debug_aranges
                0x00000720      0x120 ./drivers/fsl_uart.o
 .debug_aranges
                0x00000840       0x28 ./board/board.o
 .debug_aranges
                0x00000868       0x50 ./board/clock_config.o
 .debug_aranges
                0x000008b8       0xb8 ./board/peripherals.o
 .debug_aranges
                0x00000970       0x88 ./board/pin_mux.o
 .debug_aranges
                0x000009f8       0x30 ./CMSIS/system_MKL27Z644.o

.debug_ranges   0x00000000      0x910
 .debug_ranges  0x00000000       0x20 ./utilities/fsl_debug_console.o
 .debug_ranges  0x00000020       0x48 ./utilities/fsl_io.o
 .debug_ranges  0x00000068       0x48 ./utilities/fsl_log.o
 .debug_ranges  0x000000b0      0x150 ./startup/startup_mkl27z644.o
 .debug_ranges  0x00000200       0xa0 ./source/Proyecto_Final_V3.o
 .debug_ranges  0x000002a0       0x80 ./source/i2c_data_lib.o
 .debug_ranges  0x00000320       0x10 ./source/semihost_hardfault.o
 .debug_ranges  0x00000330       0xc0 ./drivers/fsl_clock.o
 .debug_ranges  0x000003f0      0x168 ./drivers/fsl_i2c.o
 .debug_ranges  0x00000558      0x110 ./drivers/fsl_lpuart.o
 .debug_ranges  0x00000668      0x110 ./drivers/fsl_uart.o
 .debug_ranges  0x00000778       0x18 ./board/board.o
 .debug_ranges  0x00000790       0x40 ./board/clock_config.o
 .debug_ranges  0x000007d0       0xa8 ./board/peripherals.o
 .debug_ranges  0x00000878       0x78 ./board/pin_mux.o
 .debug_ranges  0x000008f0       0x20 ./CMSIS/system_MKL27Z644.o

.debug_macro    0x00000000     0xd2b5
 .debug_macro   0x00000000      0x139 ./utilities/fsl_debug_console.o
 .debug_macro   0x00000139      0xa7e ./utilities/fsl_debug_console.o
 .debug_macro   0x00000bb7       0x10 ./utilities/fsl_debug_console.o
 .debug_macro   0x00000bc7       0x16 ./utilities/fsl_debug_console.o
 .debug_macro   0x00000bdd       0x10 ./utilities/fsl_debug_console.o
 .debug_macro   0x00000bed      0x12d ./utilities/fsl_debug_console.o
 .debug_macro   0x00000d1a       0x28 ./utilities/fsl_debug_console.o
 .debug_macro   0x00000d42       0x16 ./utilities/fsl_debug_console.o
 .debug_macro   0x00000d58       0x22 ./utilities/fsl_debug_console.o
 .debug_macro   0x00000d7a      0x5b2 ./utilities/fsl_debug_console.o
 .debug_macro   0x0000132c       0x10 ./utilities/fsl_debug_console.o
 .debug_macro   0x0000133c       0x40 ./utilities/fsl_debug_console.o
 .debug_macro   0x0000137c       0x1c ./utilities/fsl_debug_console.o
 .debug_macro   0x00001398       0x22 ./utilities/fsl_debug_console.o
 .debug_macro   0x000013ba       0xb5 ./utilities/fsl_debug_console.o
 .debug_macro   0x0000146f      0x37c ./utilities/fsl_debug_console.o
 .debug_macro   0x000017eb       0x41 ./utilities/fsl_debug_console.o
 .debug_macro   0x0000182c     0x547b ./utilities/fsl_debug_console.o
 .debug_macro   0x00006ca7     0x10fb ./utilities/fsl_debug_console.o
 .debug_macro   0x00007da2       0x52 ./utilities/fsl_debug_console.o
 .debug_macro   0x00007df4       0xeb ./utilities/fsl_debug_console.o
 .debug_macro   0x00007edf       0x74 ./utilities/fsl_debug_console.o
 .debug_macro   0x00007f53       0xd2 ./utilities/fsl_debug_console.o
 .debug_macro   0x00008025       0x1c ./utilities/fsl_debug_console.o
 .debug_macro   0x00008041       0x50 ./utilities/fsl_debug_console.o
 .debug_macro   0x00008091      0x123 ./utilities/fsl_io.o
 .debug_macro   0x000081b4       0x1c ./utilities/fsl_io.o
 .debug_macro   0x000081d0       0x22 ./utilities/fsl_io.o
 .debug_macro   0x000081f2       0x10 ./utilities/fsl_io.o
 .debug_macro   0x00008202       0x10 ./utilities/fsl_io.o
 .debug_macro   0x00008212      0x147 ./utilities/fsl_log.o
 .debug_macro   0x00008359       0x29 ./startup/startup_mkl27z644.o
 .debug_macro   0x00008382      0x213 ./source/Proyecto_Final_V3.o
 .debug_macro   0x00008595       0xd8 ./source/Proyecto_Final_V3.o
 .debug_macro   0x0000866d       0xc4 ./source/Proyecto_Final_V3.o
 .debug_macro   0x00008731       0x17 ./source/Proyecto_Final_V3.o
 .debug_macro   0x00008748       0x10 ./source/Proyecto_Final_V3.o
 .debug_macro   0x00008758      0x1a0 ./source/Proyecto_Final_V3.o
 .debug_macro   0x000088f8       0x16 ./source/Proyecto_Final_V3.o
 .debug_macro   0x0000890e       0x1c ./source/Proyecto_Final_V3.o
 .debug_macro   0x0000892a       0x64 ./source/Proyecto_Final_V3.o
 .debug_macro   0x0000898e      0x18b ./source/Proyecto_Final_V3.o
 .debug_macro   0x00008b19       0x22 ./source/Proyecto_Final_V3.o
 .debug_macro   0x00008b3b     0x15a4 ./source/Proyecto_Final_V3.o
 .debug_macro   0x0000a0df     0x1271 ./source/Proyecto_Final_V3.o
 .debug_macro   0x0000b350      0x308 ./source/Proyecto_Final_V3.o
 .debug_macro   0x0000b658       0xca ./source/Proyecto_Final_V3.o
 .debug_macro   0x0000b722      0x517 ./source/Proyecto_Final_V3.o
 .debug_macro   0x0000bc39      0x4de ./source/Proyecto_Final_V3.o
 .debug_macro   0x0000c117      0x35c ./source/Proyecto_Final_V3.o
 .debug_macro   0x0000c473       0x61 ./source/i2c_data_lib.o
 .debug_macro   0x0000c4d4      0x356 ./source/i2c_data_lib.o
 .debug_macro   0x0000c82a       0x2f ./source/mtb.o
 .debug_macro   0x0000c859       0x82 ./source/mtb.o
 .debug_macro   0x0000c8db       0x10 ./source/mtb.o
 .debug_macro   0x0000c8eb       0x11 ./source/semihost_hardfault.o
 .debug_macro   0x0000c8fc      0x134 ./drivers/fsl_clock.o
 .debug_macro   0x0000ca30      0x107 ./drivers/fsl_i2c.o
 .debug_macro   0x0000cb37       0x16 ./drivers/fsl_i2c.o
 .debug_macro   0x0000cb4d      0x108 ./drivers/fsl_lpuart.o
 .debug_macro   0x0000cc55      0x10e ./drivers/fsl_uart.o
 .debug_macro   0x0000cd63      0x13b ./board/board.o
 .debug_macro   0x0000ce9e       0x1d ./board/board.o
 .debug_macro   0x0000cebb      0x12d ./board/clock_config.o
 .debug_macro   0x0000cfe8      0x129 ./board/peripherals.o
 .debug_macro   0x0000d111      0x10d ./board/pin_mux.o
 .debug_macro   0x0000d21e       0x97 ./CMSIS/system_MKL27Z644.o

.debug_line     0x00000000     0x409a
 .debug_line    0x00000000      0x29f ./utilities/fsl_debug_console.o
 .debug_line    0x0000029f      0x341 ./utilities/fsl_io.o
 .debug_line    0x000005e0      0x30b ./utilities/fsl_log.o
 .debug_line    0x000008eb      0x12a ./startup/startup_mkl27z644.o
 .debug_line    0x00000a15      0x5c2 ./source/Proyecto_Final_V3.o
 .debug_line    0x00000fd7      0x416 ./source/i2c_data_lib.o
 .debug_line    0x000013ed       0x95 ./source/mtb.o
 .debug_line    0x00001482       0x54 ./source/semihost_hardfault.o
 .debug_line    0x000014d6      0x48b ./drivers/fsl_clock.o
 .debug_line    0x00001961      0xa1e ./drivers/fsl_i2c.o
 .debug_line    0x0000237f      0x761 ./drivers/fsl_lpuart.o
 .debug_line    0x00002ae0      0x74e ./drivers/fsl_uart.o
 .debug_line    0x0000322e      0x26d ./board/board.o
 .debug_line    0x0000349b      0x2af ./board/clock_config.o
 .debug_line    0x0000374a      0x39f ./board/peripherals.o
 .debug_line    0x00003ae9      0x3de ./board/pin_mux.o
 .debug_line    0x00003ec7      0x1d3 ./CMSIS/system_MKL27Z644.o

.debug_str      0x00000000    0x4ed17
 .debug_str     0x00000000    0x338c8 ./utilities/fsl_debug_console.o
                              0x33ae0 (size before relaxing)
 .debug_str     0x000338c8      0xd67 ./utilities/fsl_io.o
                              0x3443d (size before relaxing)
 .debug_str     0x0003462f      0x1d8 ./utilities/fsl_log.o
                              0x33868 (size before relaxing)
 .debug_str     0x00034807      0x40c ./startup/startup_mkl27z644.o
                               0x314b (size before relaxing)
 .debug_str     0x00034c13    0x16971 ./source/Proyecto_Final_V3.o
                              0x4af5b (size before relaxing)
 .debug_str     0x0004b584      0x39f ./source/i2c_data_lib.o
                               0x561b (size before relaxing)
 .debug_str     0x0004b923      0x532 ./source/mtb.o
                               0x3229 (size before relaxing)
 .debug_str     0x0004be55       0x1f ./source/semihost_hardfault.o
                               0x2d16 (size before relaxing)
 .debug_str     0x0004be74      0xad1 ./drivers/fsl_clock.o
                              0x3485f (size before relaxing)
 .debug_str     0x0004c945      0xbd8 ./drivers/fsl_i2c.o
                              0x34b22 (size before relaxing)
 .debug_str     0x0004d51d      0x8a3 ./drivers/fsl_lpuart.o
                              0x34bdb (size before relaxing)
 .debug_str     0x0004ddc0      0x480 ./drivers/fsl_uart.o
                              0x349c2 (size before relaxing)
 .debug_str     0x0004e240       0x4d ./board/board.o
                              0x34904 (size before relaxing)
 .debug_str     0x0004e28d      0x32a ./board/clock_config.o
                              0x341e8 (size before relaxing)
 .debug_str     0x0004e5b7      0x1e3 ./board/peripherals.o
                              0x343d0 (size before relaxing)
 .debug_str     0x0004e79a      0x500 ./board/pin_mux.o
                              0x3420b (size before relaxing)
 .debug_str     0x0004ec9a       0x7d ./CMSIS/system_MKL27Z644.o
                              0x327f1 (size before relaxing)

.comment        0x00000000       0x7e
 .comment       0x00000000       0x7e ./utilities/fsl_debug_console.o
                                 0x7f (size before relaxing)
 .comment       0x0000007e       0x7f ./utilities/fsl_io.o
 .comment       0x0000007e       0x7f ./utilities/fsl_log.o
 .comment       0x0000007e       0x7f ./startup/startup_mkl27z644.o
 .comment       0x0000007e       0x7f ./source/Proyecto_Final_V3.o
 .comment       0x0000007e       0x7f ./source/i2c_data_lib.o
 .comment       0x0000007e       0x7f ./source/mtb.o
 .comment       0x0000007e       0x7f ./source/semihost_hardfault.o
 .comment       0x0000007e       0x7f ./drivers/fsl_clock.o
 .comment       0x0000007e       0x7f ./drivers/fsl_i2c.o
 .comment       0x0000007e       0x7f ./drivers/fsl_lpuart.o
 .comment       0x0000007e       0x7f ./drivers/fsl_uart.o
 .comment       0x0000007e       0x7f ./board/board.o
 .comment       0x0000007e       0x7f ./board/clock_config.o
 .comment       0x0000007e       0x7f ./board/peripherals.o
 .comment       0x0000007e       0x7f ./board/pin_mux.o
 .comment       0x0000007e       0x7f ./CMSIS/system_MKL27Z644.o
 .comment       0x0000007e       0x7f c:/nxp/mcuxpressoide_10.2.1_795/ide/tools/bin/../lib/gcc/arm-none-eabi/7.2.1/../../../../arm-none-eabi/lib/thumb/v6-m\libcr_semihost_nf.a(_cr__main.o)
 .comment       0x0000007e       0x7f c:/nxp/mcuxpressoide_10.2.1_795/ide/tools/bin/../lib/gcc/arm-none-eabi/7.2.1/../../../../arm-none-eabi/lib/thumb/v6-m\libcr_semihost_nf.a(_cr_assert.o)
 .comment       0x0000007e       0x7f c:/nxp/mcuxpressoide_10.2.1_795/ide/tools/bin/../lib/gcc/arm-none-eabi/7.2.1/../../../../arm-none-eabi/lib/thumb/v6-m\libcr_semihost_nf.a(__ciob.o)
 .comment       0x0000007e       0x7f c:/nxp/mcuxpressoide_10.2.1_795/ide/tools/bin/../lib/gcc/arm-none-eabi/7.2.1/../../../../arm-none-eabi/lib/thumb/v6-m\libcr_c.a(memset.o)
 .comment       0x0000007e       0x7f c:/nxp/mcuxpressoide_10.2.1_795/ide/tools/bin/../lib/gcc/arm-none-eabi/7.2.1/../../../../arm-none-eabi/lib/thumb/v6-m\libcr_c.a(_deferredlazyseek.o)
 .comment       0x0000007e       0x7f c:/nxp/mcuxpressoide_10.2.1_795/ide/tools/bin/../lib/gcc/arm-none-eabi/7.2.1/../../../../arm-none-eabi/lib/thumb/v6-m\libcr_c.a(_fflush.o)
 .comment       0x0000007e       0x7f c:/nxp/mcuxpressoide_10.2.1_795/ide/tools/bin/../lib/gcc/arm-none-eabi/7.2.1/../../../../arm-none-eabi/lib/thumb/v6-m\libcr_c.a(_writebuf.o)
 .comment       0x0000007e       0x7f c:/nxp/mcuxpressoide_10.2.1_795/ide/tools/bin/../lib/gcc/arm-none-eabi/7.2.1/../../../../arm-none-eabi/lib/thumb/v6-m\libcr_c.a(alloc.o)
 .comment       0x0000007e       0x7f c:/nxp/mcuxpressoide_10.2.1_795/ide/tools/bin/../lib/gcc/arm-none-eabi/7.2.1/../../../../arm-none-eabi/lib/thumb/v6-m\libcr_c.a(atan.o)
 .comment       0x0000007e       0x7f c:/nxp/mcuxpressoide_10.2.1_795/ide/tools/bin/../lib/gcc/arm-none-eabi/7.2.1/../../../../arm-none-eabi/lib/thumb/v6-m\libcr_c.a(fabs.o)
 .comment       0x0000007e       0x7f c:/nxp/mcuxpressoide_10.2.1_795/ide/tools/bin/../lib/gcc/arm-none-eabi/7.2.1/../../../../arm-none-eabi/lib/thumb/v6-m\libcr_c.a(fputs.o)
 .comment       0x0000007e       0x7f c:/nxp/mcuxpressoide_10.2.1_795/ide/tools/bin/../lib/gcc/arm-none-eabi/7.2.1/../../../../arm-none-eabi/lib/thumb/v6-m\libcr_c.a(fseek.o)
 .comment       0x0000007e       0x7f c:/nxp/mcuxpressoide_10.2.1_795/ide/tools/bin/../lib/gcc/arm-none-eabi/7.2.1/../../../../arm-none-eabi/lib/thumb/v6-m\libcr_c.a(ftell.o)
 .comment       0x0000007e       0x7f c:/nxp/mcuxpressoide_10.2.1_795/ide/tools/bin/../lib/gcc/arm-none-eabi/7.2.1/../../../../arm-none-eabi/lib/thumb/v6-m\libcr_c.a(initio.o)
 .comment       0x0000007e       0x7f c:/nxp/mcuxpressoide_10.2.1_795/ide/tools/bin/../lib/gcc/arm-none-eabi/7.2.1/../../../../arm-none-eabi/lib/thumb/v6-m\libcr_c.a(setvbuf.o)
 .comment       0x0000007e       0x7f c:/nxp/mcuxpressoide_10.2.1_795/ide/tools/bin/../lib/gcc/arm-none-eabi/7.2.1/../../../../arm-none-eabi/lib/thumb/v6-m\libcr_c.a(strlen.o)
 .comment       0x0000007e       0x7f c:/nxp/mcuxpressoide_10.2.1_795/ide/tools/bin/../lib/gcc/arm-none-eabi/7.2.1/../../../../arm-none-eabi/lib/thumb/v6-m\libcr_c.a(__init_alloc.o)
 .comment       0x0000007e       0x7f c:/nxp/mcuxpressoide_10.2.1_795/ide/tools/bin/../lib/gcc/arm-none-eabi/7.2.1/../../../../arm-none-eabi/lib/thumb/v6-m\libcr_c.a(_cr_sbrk.o)
 .comment       0x0000007e       0x7f c:/nxp/mcuxpressoide_10.2.1_795/ide/tools/bin/../lib/gcc/arm-none-eabi/7.2.1/../../../../arm-none-eabi/lib/thumb/v6-m\libcr_c.a(_fdopen.o)
 .comment       0x0000007e       0x7f c:/nxp/mcuxpressoide_10.2.1_795/ide/tools/bin/../lib/gcc/arm-none-eabi/7.2.1/../../../../arm-none-eabi/lib/thumb/v6-m\libcr_c.a(errno.o)
 .comment       0x0000007e       0x7f c:/nxp/mcuxpressoide_10.2.1_795/ide/tools/bin/../lib/gcc/arm-none-eabi/7.2.1/../../../../arm-none-eabi/lib/thumb/v6-m\libcr_c.a(fclose.o)
 .comment       0x0000007e       0x7f c:/nxp/mcuxpressoide_10.2.1_795/ide/tools/bin/../lib/gcc/arm-none-eabi/7.2.1/../../../../arm-none-eabi/lib/thumb/v6-m\libcr_c.a(fflush.o)
 .comment       0x0000007e       0x7f c:/nxp/mcuxpressoide_10.2.1_795/ide/tools/bin/../lib/gcc/arm-none-eabi/7.2.1/../../../../arm-none-eabi/lib/thumb/v6-m\libcr_c.a(remove.o)
 .comment       0x0000007e       0x7f c:/nxp/mcuxpressoide_10.2.1_795/ide/tools/bin/../lib/gcc/arm-none-eabi/7.2.1/../../../../arm-none-eabi/lib/thumb/v6-m\libcr_c.a(_cr_check_heap.o)
 .comment       0x0000007e       0x7f c:/nxp/mcuxpressoide_10.2.1_795/ide/tools/bin/../lib/gcc/arm-none-eabi/7.2.1/../../../../arm-none-eabi/lib/thumb/v6-m\libcr_c.a(_do_fflush.o)
 .comment       0x0000007e       0x7f c:/nxp/mcuxpressoide_10.2.1_795/ide/tools/bin/../lib/gcc/arm-none-eabi/7.2.1/thumb/v6-m\libcr_eabihelpers.a(double.o)

.ARM.attributes
                0x00000000       0x30
 .ARM.attributes
                0x00000000       0x32 ./utilities/fsl_debug_console.o
 .ARM.attributes
                0x00000032       0x32 ./utilities/fsl_io.o
 .ARM.attributes
                0x00000064       0x32 ./utilities/fsl_log.o
 .ARM.attributes
                0x00000096       0x32 ./startup/startup_mkl27z644.o
 .ARM.attributes
                0x000000c8       0x32 ./source/Proyecto_Final_V3.o
 .ARM.attributes
                0x000000fa       0x32 ./source/i2c_data_lib.o
 .ARM.attributes
                0x0000012c       0x32 ./source/mtb.o
 .ARM.attributes
                0x0000015e       0x32 ./source/semihost_hardfault.o
 .ARM.attributes
                0x00000190       0x32 ./drivers/fsl_clock.o
 .ARM.attributes
                0x000001c2       0x32 ./drivers/fsl_i2c.o
 .ARM.attributes
                0x000001f4       0x32 ./drivers/fsl_lpuart.o
 .ARM.attributes
                0x00000226       0x32 ./drivers/fsl_uart.o
 .ARM.attributes
                0x00000258       0x32 ./board/board.o
 .ARM.attributes
                0x0000028a       0x32 ./board/clock_config.o
 .ARM.attributes
                0x000002bc       0x32 ./board/peripherals.o
 .ARM.attributes
                0x000002ee       0x32 ./board/pin_mux.o
 .ARM.attributes
                0x00000320       0x32 ./CMSIS/system_MKL27Z644.o
 .ARM.attributes
                0x00000352       0x31 c:/nxp/mcuxpressoide_10.2.1_795/ide/tools/bin/../lib/gcc/arm-none-eabi/7.2.1/../../../../arm-none-eabi/lib/thumb/v6-m\libcr_semihost_nf.a(_cr__main.o)
 .ARM.attributes
                0x00000383       0x31 c:/nxp/mcuxpressoide_10.2.1_795/ide/tools/bin/../lib/gcc/arm-none-eabi/7.2.1/../../../../arm-none-eabi/lib/thumb/v6-m\libcr_semihost_nf.a(_cr_assert.o)
 .ARM.attributes
                0x000003b4       0x31 c:/nxp/mcuxpressoide_10.2.1_795/ide/tools/bin/../lib/gcc/arm-none-eabi/7.2.1/../../../../arm-none-eabi/lib/thumb/v6-m\libcr_semihost_nf.a(__ciob.o)
 .ARM.attributes
                0x000003e5       0x21 c:/nxp/mcuxpressoide_10.2.1_795/ide/tools/bin/../lib/gcc/arm-none-eabi/7.2.1/../../../../arm-none-eabi/lib/thumb/v6-m\libcr_semihost_nf.a(__sys_appexit.o)
 .ARM.attributes
                0x00000406       0x31 c:/nxp/mcuxpressoide_10.2.1_795/ide/tools/bin/../lib/gcc/arm-none-eabi/7.2.1/../../../../arm-none-eabi/lib/thumb/v6-m\libcr_c.a(memset.o)
 .ARM.attributes
                0x00000437       0x31 c:/nxp/mcuxpressoide_10.2.1_795/ide/tools/bin/../lib/gcc/arm-none-eabi/7.2.1/../../../../arm-none-eabi/lib/thumb/v6-m\libcr_c.a(_deferredlazyseek.o)
 .ARM.attributes
                0x00000468       0x31 c:/nxp/mcuxpressoide_10.2.1_795/ide/tools/bin/../lib/gcc/arm-none-eabi/7.2.1/../../../../arm-none-eabi/lib/thumb/v6-m\libcr_c.a(_fflush.o)
 .ARM.attributes
                0x00000499       0x31 c:/nxp/mcuxpressoide_10.2.1_795/ide/tools/bin/../lib/gcc/arm-none-eabi/7.2.1/../../../../arm-none-eabi/lib/thumb/v6-m\libcr_c.a(_writebuf.o)
 .ARM.attributes
                0x000004ca       0x31 c:/nxp/mcuxpressoide_10.2.1_795/ide/tools/bin/../lib/gcc/arm-none-eabi/7.2.1/../../../../arm-none-eabi/lib/thumb/v6-m\libcr_c.a(alloc.o)
 .ARM.attributes
                0x000004fb       0x31 c:/nxp/mcuxpressoide_10.2.1_795/ide/tools/bin/../lib/gcc/arm-none-eabi/7.2.1/../../../../arm-none-eabi/lib/thumb/v6-m\libcr_c.a(atan.o)
 .ARM.attributes
                0x0000052c       0x31 c:/nxp/mcuxpressoide_10.2.1_795/ide/tools/bin/../lib/gcc/arm-none-eabi/7.2.1/../../../../arm-none-eabi/lib/thumb/v6-m\libcr_c.a(fabs.o)
 .ARM.attributes
                0x0000055d       0x31 c:/nxp/mcuxpressoide_10.2.1_795/ide/tools/bin/../lib/gcc/arm-none-eabi/7.2.1/../../../../arm-none-eabi/lib/thumb/v6-m\libcr_c.a(fputs.o)
 .ARM.attributes
                0x0000058e       0x31 c:/nxp/mcuxpressoide_10.2.1_795/ide/tools/bin/../lib/gcc/arm-none-eabi/7.2.1/../../../../arm-none-eabi/lib/thumb/v6-m\libcr_c.a(fseek.o)
 .ARM.attributes
                0x000005bf       0x31 c:/nxp/mcuxpressoide_10.2.1_795/ide/tools/bin/../lib/gcc/arm-none-eabi/7.2.1/../../../../arm-none-eabi/lib/thumb/v6-m\libcr_c.a(ftell.o)
 .ARM.attributes
                0x000005f0       0x31 c:/nxp/mcuxpressoide_10.2.1_795/ide/tools/bin/../lib/gcc/arm-none-eabi/7.2.1/../../../../arm-none-eabi/lib/thumb/v6-m\libcr_c.a(initio.o)
 .ARM.attributes
                0x00000621       0x31 c:/nxp/mcuxpressoide_10.2.1_795/ide/tools/bin/../lib/gcc/arm-none-eabi/7.2.1/../../../../arm-none-eabi/lib/thumb/v6-m\libcr_c.a(setvbuf.o)
 .ARM.attributes
                0x00000652       0x31 c:/nxp/mcuxpressoide_10.2.1_795/ide/tools/bin/../lib/gcc/arm-none-eabi/7.2.1/../../../../arm-none-eabi/lib/thumb/v6-m\libcr_c.a(strlen.o)
 .ARM.attributes
                0x00000683       0x31 c:/nxp/mcuxpressoide_10.2.1_795/ide/tools/bin/../lib/gcc/arm-none-eabi/7.2.1/../../../../arm-none-eabi/lib/thumb/v6-m\libcr_c.a(__init_alloc.o)
 .ARM.attributes
                0x000006b4       0x31 c:/nxp/mcuxpressoide_10.2.1_795/ide/tools/bin/../lib/gcc/arm-none-eabi/7.2.1/../../../../arm-none-eabi/lib/thumb/v6-m\libcr_c.a(_cr_sbrk.o)
 .ARM.attributes
                0x000006e5       0x31 c:/nxp/mcuxpressoide_10.2.1_795/ide/tools/bin/../lib/gcc/arm-none-eabi/7.2.1/../../../../arm-none-eabi/lib/thumb/v6-m\libcr_c.a(_fdopen.o)
 .ARM.attributes
                0x00000716       0x31 c:/nxp/mcuxpressoide_10.2.1_795/ide/tools/bin/../lib/gcc/arm-none-eabi/7.2.1/../../../../arm-none-eabi/lib/thumb/v6-m\libcr_c.a(errno.o)
 .ARM.attributes
                0x00000747       0x31 c:/nxp/mcuxpressoide_10.2.1_795/ide/tools/bin/../lib/gcc/arm-none-eabi/7.2.1/../../../../arm-none-eabi/lib/thumb/v6-m\libcr_c.a(fclose.o)
 .ARM.attributes
                0x00000778       0x31 c:/nxp/mcuxpressoide_10.2.1_795/ide/tools/bin/../lib/gcc/arm-none-eabi/7.2.1/../../../../arm-none-eabi/lib/thumb/v6-m\libcr_c.a(fflush.o)
 .ARM.attributes
                0x000007a9       0x31 c:/nxp/mcuxpressoide_10.2.1_795/ide/tools/bin/../lib/gcc/arm-none-eabi/7.2.1/../../../../arm-none-eabi/lib/thumb/v6-m\libcr_c.a(remove.o)
 .ARM.attributes
                0x000007da       0x31 c:/nxp/mcuxpressoide_10.2.1_795/ide/tools/bin/../lib/gcc/arm-none-eabi/7.2.1/../../../../arm-none-eabi/lib/thumb/v6-m\libcr_c.a(_cr_check_heap.o)
 .ARM.attributes
                0x0000080b       0x31 c:/nxp/mcuxpressoide_10.2.1_795/ide/tools/bin/../lib/gcc/arm-none-eabi/7.2.1/../../../../arm-none-eabi/lib/thumb/v6-m\libcr_c.a(_do_fflush.o)
 .ARM.attributes
                0x0000083c       0x21 c:/nxp/mcuxpressoide_10.2.1_795/ide/tools/bin/../lib/gcc/arm-none-eabi/7.2.1/thumb/v6-m\libcr_eabihelpers.a(division_32.o)
 .ARM.attributes
                0x0000085d       0x21 c:/nxp/mcuxpressoide_10.2.1_795/ide/tools/bin/../lib/gcc/arm-none-eabi/7.2.1/thumb/v6-m\libcr_eabihelpers.a(division_idiv0.o)
 .ARM.attributes
                0x0000087e       0x31 c:/nxp/mcuxpressoide_10.2.1_795/ide/tools/bin/../lib/gcc/arm-none-eabi/7.2.1/thumb/v6-m\libcr_eabihelpers.a(double.o)
 .ARM.attributes
                0x000008af       0x21 c:/nxp/mcuxpressoide_10.2.1_795/ide/tools/bin/../lib/gcc/arm-none-eabi/7.2.1/thumb/v6-m\libcr_eabihelpers.a(llong.o)
 .ARM.attributes
                0x000008d0       0x21 c:/nxp/mcuxpressoide_10.2.1_795/ide/tools/bin/../lib/gcc/arm-none-eabi/7.2.1/thumb/v6-m\libcr_eabihelpers.a(memcpy.o)
 .ARM.attributes
                0x000008f1       0x21 c:/nxp/mcuxpressoide_10.2.1_795/ide/tools/bin/../lib/gcc/arm-none-eabi/7.2.1/../../../../arm-none-eabi/lib/thumb/v6-m\libcr_semihost_nf.a(__sys_close.o)
 .ARM.attributes
                0x00000912       0x21 c:/nxp/mcuxpressoide_10.2.1_795/ide/tools/bin/../lib/gcc/arm-none-eabi/7.2.1/../../../../arm-none-eabi/lib/thumb/v6-m\libcr_semihost_nf.a(__sys_flen.o)
 .ARM.attributes
                0x00000933       0x21 c:/nxp/mcuxpressoide_10.2.1_795/ide/tools/bin/../lib/gcc/arm-none-eabi/7.2.1/../../../../arm-none-eabi/lib/thumb/v6-m\libcr_semihost_nf.a(__sys_istty.o)
 .ARM.attributes
                0x00000954       0x21 c:/nxp/mcuxpressoide_10.2.1_795/ide/tools/bin/../lib/gcc/arm-none-eabi/7.2.1/../../../../arm-none-eabi/lib/thumb/v6-m\libcr_semihost_nf.a(__sys_remove.o)
 .ARM.attributes
                0x00000975       0x21 c:/nxp/mcuxpressoide_10.2.1_795/ide/tools/bin/../lib/gcc/arm-none-eabi/7.2.1/../../../../arm-none-eabi/lib/thumb/v6-m\libcr_semihost_nf.a(__sys_seek.o)
 .ARM.attributes
                0x00000996       0x21 c:/nxp/mcuxpressoide_10.2.1_795/ide/tools/bin/../lib/gcc/arm-none-eabi/7.2.1/../../../../arm-none-eabi/lib/thumb/v6-m\libcr_semihost_nf.a(__sys_tmpnam.o)
 .ARM.attributes
                0x000009b7       0x21 c:/nxp/mcuxpressoide_10.2.1_795/ide/tools/bin/../lib/gcc/arm-none-eabi/7.2.1/../../../../arm-none-eabi/lib/thumb/v6-m\libcr_semihost_nf.a(__sys_write.o)

.debug_frame    0x00000000     0x20d8
 .debug_frame   0x00000000       0x68 ./utilities/fsl_debug_console.o
 .debug_frame   0x00000068      0x108 ./utilities/fsl_io.o
 .debug_frame   0x00000170      0x108 ./utilities/fsl_log.o
 .debug_frame   0x00000278      0x3b0 ./startup/startup_mkl27z644.o
 .debug_frame   0x00000628      0x254 ./source/Proyecto_Final_V3.o
 .debug_frame   0x0000087c      0x1e4 ./source/i2c_data_lib.o
 .debug_frame   0x00000a60       0x20 ./source/semihost_hardfault.o
 .debug_frame   0x00000a80      0x2dc ./drivers/fsl_clock.o
 .debug_frame   0x00000d5c      0x588 ./drivers/fsl_i2c.o
 .debug_frame   0x000012e4      0x42c ./drivers/fsl_lpuart.o
 .debug_frame   0x00001710      0x434 ./drivers/fsl_uart.o
 .debug_frame   0x00001b44       0x50 ./board/board.o
 .debug_frame   0x00001b94       0xdc ./board/clock_config.o
 .debug_frame   0x00001c70      0x240 ./board/peripherals.o
 .debug_frame   0x00001eb0      0x1c0 ./board/pin_mux.o
 .debug_frame   0x00002070       0x68 ./CMSIS/system_MKL27Z644.o
