Archive member included to satisfy reference by file (symbol)

c:/nxp/mcuxpressoide_10.2.1_795/ide/tools/bin/../lib/gcc/arm-none-eabi/7.2.1/../../../../arm-none-eabi/lib/thumb/v6-m\libcr_semihost_nf.a(_cr__main.o)
                              ./startup/startup_mkl27z644.o (__main)
c:/nxp/mcuxpressoide_10.2.1_795/ide/tools/bin/../lib/gcc/arm-none-eabi/7.2.1/../../../../arm-none-eabi/lib/thumb/v6-m\libcr_semihost_nf.a(_cr_assert.o)
                              ./utilities/fsl_debug_console.o (__assertion_failed)
c:/nxp/mcuxpressoide_10.2.1_795/ide/tools/bin/../lib/gcc/arm-none-eabi/7.2.1/../../../../arm-none-eabi/lib/thumb/v6-m\libcr_semihost_nf.a(__ciob.o)
                              c:/nxp/mcuxpressoide_10.2.1_795/ide/tools/bin/../lib/gcc/arm-none-eabi/7.2.1/../../../../arm-none-eabi/lib/thumb/v6-m\libcr_semihost_nf.a(_cr_assert.o) (__Ciob)
c:/nxp/mcuxpressoide_10.2.1_795/ide/tools/bin/../lib/gcc/arm-none-eabi/7.2.1/../../../../arm-none-eabi/lib/thumb/v6-m\libcr_semihost_nf.a(__sys_appexit.o)
                              c:/nxp/mcuxpressoide_10.2.1_795/ide/tools/bin/../lib/gcc/arm-none-eabi/7.2.1/../../../../arm-none-eabi/lib/thumb/v6-m\libcr_semihost_nf.a(_cr_assert.o) (__sys_appexit)
c:/nxp/mcuxpressoide_10.2.1_795/ide/tools/bin/../lib/gcc/arm-none-eabi/7.2.1/../../../../arm-none-eabi/lib/thumb/v6-m\libcr_c.a(memcpy.o)
                              ./drivers/fsl_ftfx_cache.o (memcpy)
c:/nxp/mcuxpressoide_10.2.1_795/ide/tools/bin/../lib/gcc/arm-none-eabi/7.2.1/../../../../arm-none-eabi/lib/thumb/v6-m\libcr_c.a(memset.o)
                              ./drivers/fsl_ftfx_cache.o (memset)
c:/nxp/mcuxpressoide_10.2.1_795/ide/tools/bin/../lib/gcc/arm-none-eabi/7.2.1/../../../../arm-none-eabi/lib/thumb/v6-m\libcr_c.a(_deferredlazyseek.o)
                              c:/nxp/mcuxpressoide_10.2.1_795/ide/tools/bin/../lib/gcc/arm-none-eabi/7.2.1/../../../../arm-none-eabi/lib/thumb/v6-m\libcr_semihost_nf.a(_cr_assert.o) (__flsbuf)
c:/nxp/mcuxpressoide_10.2.1_795/ide/tools/bin/../lib/gcc/arm-none-eabi/7.2.1/../../../../arm-none-eabi/lib/thumb/v6-m\libcr_c.a(_fflush.o)
                              c:/nxp/mcuxpressoide_10.2.1_795/ide/tools/bin/../lib/gcc/arm-none-eabi/7.2.1/../../../../arm-none-eabi/lib/thumb/v6-m\libcr_c.a(_deferredlazyseek.o) (_fflush)
c:/nxp/mcuxpressoide_10.2.1_795/ide/tools/bin/../lib/gcc/arm-none-eabi/7.2.1/../../../../arm-none-eabi/lib/thumb/v6-m\libcr_c.a(_writebuf.o)
                              c:/nxp/mcuxpressoide_10.2.1_795/ide/tools/bin/../lib/gcc/arm-none-eabi/7.2.1/../../../../arm-none-eabi/lib/thumb/v6-m\libcr_c.a(_deferredlazyseek.o) (_Cwritebuf)
c:/nxp/mcuxpressoide_10.2.1_795/ide/tools/bin/../lib/gcc/arm-none-eabi/7.2.1/../../../../arm-none-eabi/lib/thumb/v6-m\libcr_c.a(alloc.o)
                              ./drivers/fsl_common.o (malloc)
c:/nxp/mcuxpressoide_10.2.1_795/ide/tools/bin/../lib/gcc/arm-none-eabi/7.2.1/../../../../arm-none-eabi/lib/thumb/v6-m\libcr_c.a(fputs.o)
                              c:/nxp/mcuxpressoide_10.2.1_795/ide/tools/bin/../lib/gcc/arm-none-eabi/7.2.1/../../../../arm-none-eabi/lib/thumb/v6-m\libcr_semihost_nf.a(_cr_assert.o) (fputs)
c:/nxp/mcuxpressoide_10.2.1_795/ide/tools/bin/../lib/gcc/arm-none-eabi/7.2.1/../../../../arm-none-eabi/lib/thumb/v6-m\libcr_c.a(fseek.o)
                              c:/nxp/mcuxpressoide_10.2.1_795/ide/tools/bin/../lib/gcc/arm-none-eabi/7.2.1/../../../../arm-none-eabi/lib/thumb/v6-m\libcr_c.a(_deferredlazyseek.o) (fseek)
c:/nxp/mcuxpressoide_10.2.1_795/ide/tools/bin/../lib/gcc/arm-none-eabi/7.2.1/../../../../arm-none-eabi/lib/thumb/v6-m\libcr_c.a(ftell.o)
                              c:/nxp/mcuxpressoide_10.2.1_795/ide/tools/bin/../lib/gcc/arm-none-eabi/7.2.1/../../../../arm-none-eabi/lib/thumb/v6-m\libcr_c.a(fseek.o) (ftell)
c:/nxp/mcuxpressoide_10.2.1_795/ide/tools/bin/../lib/gcc/arm-none-eabi/7.2.1/../../../../arm-none-eabi/lib/thumb/v6-m\libcr_c.a(initio.o)
                              c:/nxp/mcuxpressoide_10.2.1_795/ide/tools/bin/../lib/gcc/arm-none-eabi/7.2.1/../../../../arm-none-eabi/lib/thumb/v6-m\libcr_semihost_nf.a(_cr__main.o) (_initio)
c:/nxp/mcuxpressoide_10.2.1_795/ide/tools/bin/../lib/gcc/arm-none-eabi/7.2.1/../../../../arm-none-eabi/lib/thumb/v6-m\libcr_c.a(printf.o)
                              ./source/ADC_TERMISTOR.o (_printf)
c:/nxp/mcuxpressoide_10.2.1_795/ide/tools/bin/../lib/gcc/arm-none-eabi/7.2.1/../../../../arm-none-eabi/lib/thumb/v6-m\libcr_c.a(setvbuf.o)
                              c:/nxp/mcuxpressoide_10.2.1_795/ide/tools/bin/../lib/gcc/arm-none-eabi/7.2.1/../../../../arm-none-eabi/lib/thumb/v6-m\libcr_c.a(initio.o) (setvbuf)
c:/nxp/mcuxpressoide_10.2.1_795/ide/tools/bin/../lib/gcc/arm-none-eabi/7.2.1/../../../../arm-none-eabi/lib/thumb/v6-m\libcr_c.a(strlen.o)
                              ./utilities/fsl_str.o (strlen)
c:/nxp/mcuxpressoide_10.2.1_795/ide/tools/bin/../lib/gcc/arm-none-eabi/7.2.1/../../../../arm-none-eabi/lib/thumb/v6-m\libcr_c.a(__init_alloc.o)
                              c:/nxp/mcuxpressoide_10.2.1_795/ide/tools/bin/../lib/gcc/arm-none-eabi/7.2.1/../../../../arm-none-eabi/lib/thumb/v6-m\libcr_c.a(alloc.o) (__heaps)
c:/nxp/mcuxpressoide_10.2.1_795/ide/tools/bin/../lib/gcc/arm-none-eabi/7.2.1/../../../../arm-none-eabi/lib/thumb/v6-m\libcr_c.a(_cr_sbrk.o)
                              c:/nxp/mcuxpressoide_10.2.1_795/ide/tools/bin/../lib/gcc/arm-none-eabi/7.2.1/../../../../arm-none-eabi/lib/thumb/v6-m\libcr_c.a(alloc.o) (_sbrk)
c:/nxp/mcuxpressoide_10.2.1_795/ide/tools/bin/../lib/gcc/arm-none-eabi/7.2.1/../../../../arm-none-eabi/lib/thumb/v6-m\libcr_c.a(_fdopen.o)
                              c:/nxp/mcuxpressoide_10.2.1_795/ide/tools/bin/../lib/gcc/arm-none-eabi/7.2.1/../../../../arm-none-eabi/lib/thumb/v6-m\libcr_c.a(initio.o) (_fdopen)
c:/nxp/mcuxpressoide_10.2.1_795/ide/tools/bin/../lib/gcc/arm-none-eabi/7.2.1/../../../../arm-none-eabi/lib/thumb/v6-m\libcr_c.a(errno.o)
                              c:/nxp/mcuxpressoide_10.2.1_795/ide/tools/bin/../lib/gcc/arm-none-eabi/7.2.1/../../../../arm-none-eabi/lib/thumb/v6-m\libcr_c.a(ftell.o) (errno)
c:/nxp/mcuxpressoide_10.2.1_795/ide/tools/bin/../lib/gcc/arm-none-eabi/7.2.1/../../../../arm-none-eabi/lib/thumb/v6-m\libcr_c.a(fclose.o)
                              c:/nxp/mcuxpressoide_10.2.1_795/ide/tools/bin/../lib/gcc/arm-none-eabi/7.2.1/../../../../arm-none-eabi/lib/thumb/v6-m\libcr_c.a(initio.o) (fclose)
c:/nxp/mcuxpressoide_10.2.1_795/ide/tools/bin/../lib/gcc/arm-none-eabi/7.2.1/../../../../arm-none-eabi/lib/thumb/v6-m\libcr_c.a(fflush.o)
                              c:/nxp/mcuxpressoide_10.2.1_795/ide/tools/bin/../lib/gcc/arm-none-eabi/7.2.1/../../../../arm-none-eabi/lib/thumb/v6-m\libcr_c.a(fclose.o) (fflush)
c:/nxp/mcuxpressoide_10.2.1_795/ide/tools/bin/../lib/gcc/arm-none-eabi/7.2.1/../../../../arm-none-eabi/lib/thumb/v6-m\libcr_c.a(remove.o)
                              c:/nxp/mcuxpressoide_10.2.1_795/ide/tools/bin/../lib/gcc/arm-none-eabi/7.2.1/../../../../arm-none-eabi/lib/thumb/v6-m\libcr_c.a(fclose.o) (remove)
c:/nxp/mcuxpressoide_10.2.1_795/ide/tools/bin/../lib/gcc/arm-none-eabi/7.2.1/../../../../arm-none-eabi/lib/thumb/v6-m\libcr_c.a(_cr_check_heap.o)
                              c:/nxp/mcuxpressoide_10.2.1_795/ide/tools/bin/../lib/gcc/arm-none-eabi/7.2.1/../../../../arm-none-eabi/lib/thumb/v6-m\libcr_c.a(_cr_sbrk.o) (__check_heap_overflow)
c:/nxp/mcuxpressoide_10.2.1_795/ide/tools/bin/../lib/gcc/arm-none-eabi/7.2.1/../../../../arm-none-eabi/lib/thumb/v6-m\libcr_c.a(_do_fflush.o)
                              c:/nxp/mcuxpressoide_10.2.1_795/ide/tools/bin/../lib/gcc/arm-none-eabi/7.2.1/../../../../arm-none-eabi/lib/thumb/v6-m\libcr_c.a(fflush.o) (_do_fflush)
c:/nxp/mcuxpressoide_10.2.1_795/ide/tools/bin/../lib/gcc/arm-none-eabi/7.2.1/thumb/v6-m\libcr_eabihelpers.a(division_32.o)
                              ./utilities/fsl_str.o (__aeabi_idiv)
c:/nxp/mcuxpressoide_10.2.1_795/ide/tools/bin/../lib/gcc/arm-none-eabi/7.2.1/thumb/v6-m\libcr_eabihelpers.a(division_idiv0.o)
                              c:/nxp/mcuxpressoide_10.2.1_795/ide/tools/bin/../lib/gcc/arm-none-eabi/7.2.1/thumb/v6-m\libcr_eabihelpers.a(division_32.o) (__aeabi_idiv0)
c:/nxp/mcuxpressoide_10.2.1_795/ide/tools/bin/../lib/gcc/arm-none-eabi/7.2.1/thumb/v6-m\libcr_eabihelpers.a(llong.o)
                              c:/nxp/mcuxpressoide_10.2.1_795/ide/tools/bin/../lib/gcc/arm-none-eabi/7.2.1/../../../../arm-none-eabi/lib/thumb/v6-m\libcr_c.a(printf.o) (__aeabi_lmul)
c:/nxp/mcuxpressoide_10.2.1_795/ide/tools/bin/../lib/gcc/arm-none-eabi/7.2.1/thumb/v6-m\libcr_eabihelpers.a(memcpy.o)
                              c:/nxp/mcuxpressoide_10.2.1_795/ide/tools/bin/../lib/gcc/arm-none-eabi/7.2.1/../../../../arm-none-eabi/lib/thumb/v6-m\libcr_c.a(memcpy.o) (__aeabi_memcpy)
c:/nxp/mcuxpressoide_10.2.1_795/ide/tools/bin/../lib/gcc/arm-none-eabi/7.2.1/../../../../arm-none-eabi/lib/thumb/v6-m\libcr_semihost_nf.a(__sys_close.o)
                              c:/nxp/mcuxpressoide_10.2.1_795/ide/tools/bin/../lib/gcc/arm-none-eabi/7.2.1/../../../../arm-none-eabi/lib/thumb/v6-m\libcr_c.a(fclose.o) (__sys_close)
c:/nxp/mcuxpressoide_10.2.1_795/ide/tools/bin/../lib/gcc/arm-none-eabi/7.2.1/../../../../arm-none-eabi/lib/thumb/v6-m\libcr_semihost_nf.a(__sys_flen.o)
                              c:/nxp/mcuxpressoide_10.2.1_795/ide/tools/bin/../lib/gcc/arm-none-eabi/7.2.1/../../../../arm-none-eabi/lib/thumb/v6-m\libcr_c.a(_writebuf.o) (__sys_flen)
c:/nxp/mcuxpressoide_10.2.1_795/ide/tools/bin/../lib/gcc/arm-none-eabi/7.2.1/../../../../arm-none-eabi/lib/thumb/v6-m\libcr_semihost_nf.a(__sys_istty.o)
                              c:/nxp/mcuxpressoide_10.2.1_795/ide/tools/bin/../lib/gcc/arm-none-eabi/7.2.1/../../../../arm-none-eabi/lib/thumb/v6-m\libcr_c.a(_deferredlazyseek.o) (__sys_istty)
c:/nxp/mcuxpressoide_10.2.1_795/ide/tools/bin/../lib/gcc/arm-none-eabi/7.2.1/../../../../arm-none-eabi/lib/thumb/v6-m\libcr_semihost_nf.a(__sys_remove.o)
                              c:/nxp/mcuxpressoide_10.2.1_795/ide/tools/bin/../lib/gcc/arm-none-eabi/7.2.1/../../../../arm-none-eabi/lib/thumb/v6-m\libcr_c.a(remove.o) (__sys_remove)
c:/nxp/mcuxpressoide_10.2.1_795/ide/tools/bin/../lib/gcc/arm-none-eabi/7.2.1/../../../../arm-none-eabi/lib/thumb/v6-m\libcr_semihost_nf.a(__sys_rename.o)
                              c:/nxp/mcuxpressoide_10.2.1_795/ide/tools/bin/../lib/gcc/arm-none-eabi/7.2.1/../../../../arm-none-eabi/lib/thumb/v6-m\libcr_c.a(remove.o) (__sys_rename)
c:/nxp/mcuxpressoide_10.2.1_795/ide/tools/bin/../lib/gcc/arm-none-eabi/7.2.1/../../../../arm-none-eabi/lib/thumb/v6-m\libcr_semihost_nf.a(__sys_seek.o)
                              c:/nxp/mcuxpressoide_10.2.1_795/ide/tools/bin/../lib/gcc/arm-none-eabi/7.2.1/../../../../arm-none-eabi/lib/thumb/v6-m\libcr_c.a(_writebuf.o) (__sys_seek)
c:/nxp/mcuxpressoide_10.2.1_795/ide/tools/bin/../lib/gcc/arm-none-eabi/7.2.1/../../../../arm-none-eabi/lib/thumb/v6-m\libcr_semihost_nf.a(__sys_tmpnam.o)
                              c:/nxp/mcuxpressoide_10.2.1_795/ide/tools/bin/../lib/gcc/arm-none-eabi/7.2.1/../../../../arm-none-eabi/lib/thumb/v6-m\libcr_c.a(fclose.o) (__sys_tmpnam)
c:/nxp/mcuxpressoide_10.2.1_795/ide/tools/bin/../lib/gcc/arm-none-eabi/7.2.1/../../../../arm-none-eabi/lib/thumb/v6-m\libcr_semihost_nf.a(__sys_write.o)
                              c:/nxp/mcuxpressoide_10.2.1_795/ide/tools/bin/../lib/gcc/arm-none-eabi/7.2.1/../../../../arm-none-eabi/lib/thumb/v6-m\libcr_c.a(_writebuf.o) (__sys_write)

Discarded input sections

 .group         0x00000000        0xc ./utilities/fsl_debug_console.o
 .group         0x00000000        0xc ./utilities/fsl_debug_console.o
 .group         0x00000000        0xc ./utilities/fsl_debug_console.o
 .group         0x00000000        0xc ./utilities/fsl_debug_console.o
 .group         0x00000000        0xc ./utilities/fsl_debug_console.o
 .group         0x00000000        0xc ./utilities/fsl_debug_console.o
 .group         0x00000000        0xc ./utilities/fsl_debug_console.o
 .group         0x00000000        0xc ./utilities/fsl_debug_console.o
 .group         0x00000000        0xc ./utilities/fsl_debug_console.o
 .group         0x00000000        0xc ./utilities/fsl_debug_console.o
 .group         0x00000000        0xc ./utilities/fsl_debug_console.o
 .group         0x00000000        0xc ./utilities/fsl_debug_console.o
 .group         0x00000000        0xc ./utilities/fsl_debug_console.o
 .group         0x00000000        0xc ./utilities/fsl_debug_console.o
 .group         0x00000000        0xc ./utilities/fsl_debug_console.o
 .group         0x00000000        0xc ./utilities/fsl_debug_console.o
 .group         0x00000000        0xc ./utilities/fsl_debug_console.o
 .group         0x00000000        0xc ./utilities/fsl_debug_console.o
Memory Configuration

Name             Origin             Length             Attributes
PROGRAM_FLASH    0x00000000         0x00010000         xr
SRAM             0x1ffff000         0x00004000         xrw
USB_RAM          0x400fe000         0x00000200         xrw
*default*        0x00000000         0xffffffff

Linker script and memory map

LOAD ./utilities/fsl_debug_console.o
LOAD ./utilities/fsl_io.o
LOAD ./utilities/fsl_log.o
LOAD ./utilities/fsl_str.o
LOAD ./startup/startup_mkl27z644.o
LOAD ./source/ADC_TERMISTOR.o
LOAD ./source/mtb.o
LOAD ./source/semihost_hardfault.o
LOAD ./drivers/fsl_clock.o
LOAD ./drivers/fsl_common.o
LOAD ./drivers/fsl_ftfx_cache.o
LOAD ./drivers/fsl_ftfx_controller.o
LOAD ./drivers/fsl_ftfx_flash.o
LOAD ./drivers/fsl_ftfx_flexnvm.o
LOAD ./drivers/fsl_gpio.o
LOAD ./drivers/fsl_i2c.o
LOAD ./drivers/fsl_lpuart.o
LOAD ./drivers/fsl_smc.o
LOAD ./drivers/fsl_uart.o
LOAD ./board/board.o
LOAD ./board/clock_config.o
LOAD ./board/peripherals.o
LOAD ./board/pin_mux.o
LOAD ./CMSIS/system_MKL27Z644.o
START GROUP
LOAD c:/nxp/mcuxpressoide_10.2.1_795/ide/tools/bin/../lib/gcc/arm-none-eabi/7.2.1/../../../../arm-none-eabi/lib/thumb/v6-m\libcr_semihost_nf.a
LOAD c:/nxp/mcuxpressoide_10.2.1_795/ide/tools/bin/../lib/gcc/arm-none-eabi/7.2.1/../../../../arm-none-eabi/lib/thumb/v6-m\libcr_c.a
LOAD c:/nxp/mcuxpressoide_10.2.1_795/ide/tools/bin/../lib/gcc/arm-none-eabi/7.2.1/thumb/v6-m\libcr_eabihelpers.a
END GROUP
                0x00000000                __base_PROGRAM_FLASH = 0x0
                0x00000000                __base_Flash = 0x0
                0x00010000                __top_PROGRAM_FLASH = 0x10000
                0x00010000                __top_Flash = 0x10000
                0x1ffff000                __base_SRAM = 0x1ffff000
                0x1ffff000                __base_RAM = 0x1ffff000
                0x20003000                __top_SRAM = 0x20003000
                0x20003000                __top_RAM = 0x20003000
                0x400fe000                __base_USB_RAM = 0x400fe000
                0x400fe000                __base_RAM2 = 0x400fe000
                0x400fe200                __top_USB_RAM = 0x400fe200
                0x400fe200                __top_RAM2 = 0x400fe200

.text           0x00000000     0x3528
 FILL mask 0xff
                0x00000000                __vectors_start__ = ABSOLUTE (.)
 *(SORT_BY_ALIGNMENT(.isr_vector))
 .isr_vector    0x00000000       0xc0 ./startup/startup_mkl27z644.o
                0x00000000                g_pfnVectors
                0x00000000                __Vectors
                0x000000c0                . = ALIGN (0x4)
                0x000000c0                __section_table_start = .
                0x000000c0                __data_section_table = .
                0x000000c0        0x4 LONG 0x3528 LOADADDR (.data)
                0x000000c4        0x4 LONG 0x1ffff080 ADDR (.data)
                0x000000c8        0x4 LONG 0x4 SIZEOF (.data)
                0x000000cc        0x4 LONG 0x3528 LOADADDR (.data_RAM2)
                0x000000d0        0x4 LONG 0x400fe000 ADDR (.data_RAM2)
                0x000000d4        0x4 LONG 0x0 SIZEOF (.data_RAM2)
                0x000000d8                __data_section_table_end = .
                0x000000d8                __bss_section_table = .
                0x000000d8        0x4 LONG 0x1ffff084 ADDR (.bss)
                0x000000dc        0x4 LONG 0xe8 SIZEOF (.bss)
                0x000000e0        0x4 LONG 0x400fe000 ADDR (.bss_RAM2)
                0x000000e4        0x4 LONG 0x0 SIZEOF (.bss_RAM2)
                0x000000e8                __bss_section_table_end = .
                0x000000e8                __section_table_end = .
 *(SORT_BY_ALIGNMENT(.after_vectors*))
 .after_vectors.reset
                0x000000e8       0x4c ./startup/startup_mkl27z644.o
                0x000000e8                ResetISR
 .after_vectors.init_data
                0x00000134       0x16 ./startup/startup_mkl27z644.o
                0x00000134                data_init
 .after_vectors.init_bss
                0x0000014a       0x12 ./startup/startup_mkl27z644.o
                0x0000014a                bss_init
 .after_vectors
                0x0000015c      0x10c ./startup/startup_mkl27z644.o
                0x0000015c                NMI_Handler
                0x00000160                SVC_Handler
                0x00000162                PendSV_Handler
                0x00000164                SysTick_Handler
                0x00000166                PIT_DriverIRQHandler
                0x00000166                SPI1_DriverIRQHandler
                0x00000166                LPTMR0_DriverIRQHandler
                0x00000166                DMA0_DriverIRQHandler
                0x00000166                Reserved43_DriverIRQHandler
                0x00000166                Reserved39_DriverIRQHandler
                0x00000166                Reserved42_DriverIRQHandler
                0x00000166                DMA2_DriverIRQHandler
                0x00000166                CMP0_DriverIRQHandler
                0x00000166                TPM2_DriverIRQHandler
                0x00000166                ADC0_DriverIRQHandler
                0x00000166                SPI0_DriverIRQHandler
                0x00000166                RTC_Seconds_DriverIRQHandler
                0x00000166                LLWU_DriverIRQHandler
                0x00000166                Reserved45_DriverIRQHandler
                0x00000166                DMA1_DriverIRQHandler
                0x00000166                PORTB_PORTC_PORTD_PORTE_DriverIRQHandler
                0x00000166                PMC_DriverIRQHandler
                0x00000166                FTFA_DriverIRQHandler
                0x00000166                IntDefaultHandler
                0x00000166                USB0_DriverIRQHandler
                0x00000166                Reserved41_DriverIRQHandler
                0x00000166                TPM0_DriverIRQHandler
                0x00000166                RTC_DriverIRQHandler
                0x00000166                TPM1_DriverIRQHandler
                0x00000166                PORTA_DriverIRQHandler
                0x00000166                Reserved20_DriverIRQHandler
                0x00000166                DMA3_DriverIRQHandler
                0x00000166                UART2_FLEXIO_DriverIRQHandler
                0x00000168                DMA0_IRQHandler
                0x00000170                DMA1_IRQHandler
                0x00000178                DMA2_IRQHandler
                0x00000180                DMA3_IRQHandler
                0x00000188                Reserved20_IRQHandler
                0x00000190                FTFA_IRQHandler
                0x00000198                PMC_IRQHandler
                0x000001a0                LLWU_IRQHandler
                0x000001a8                I2C0_IRQHandler
                0x000001b0                I2C1_IRQHandler
                0x000001b8                SPI0_IRQHandler
                0x000001c0                SPI1_IRQHandler
                0x000001c8                LPUART0_IRQHandler
                0x000001d0                LPUART1_IRQHandler
                0x000001d8                UART2_FLEXIO_IRQHandler
                0x000001e8                CMP0_IRQHandler
                0x000001f0                TPM0_IRQHandler
                0x000001f8                TPM1_IRQHandler
                0x00000200                TPM2_IRQHandler
                0x00000208                RTC_IRQHandler
                0x00000210                RTC_Seconds_IRQHandler
                0x00000218                PIT_IRQHandler
                0x00000220                Reserved39_IRQHandler
                0x00000228                USB0_IRQHandler
                0x00000230                Reserved41_IRQHandler
                0x00000238                Reserved42_IRQHandler
                0x00000240                Reserved43_IRQHandler
                0x00000248                LPTMR0_IRQHandler
                0x00000250                Reserved45_IRQHandler
                0x00000258                PORTA_IRQHandler
                0x00000260                PORTB_PORTC_PORTD_PORTE_IRQHandler
                0x00000400                . = 0x400
 *fill*         0x00000268      0x198 ff
                0x00000400                PROVIDE (__FLASH_CONFIG_START__, .)
 *(SORT_BY_ALIGNMENT(.FlashConfig))
 .FlashConfig   0x00000400       0x10 ./startup/startup_mkl27z644.o
                0x00000400                Flash_Config
                0x00000410                PROVIDE (__FLASH_CONFIG_END__, .)
                0x00000001                ASSERT (! ((__FLASH_CONFIG_START__ == __FLASH_CONFIG_END__)), Linker Flash Config Support Enabled, but no .FlashConfig section provided within application)
 *(SORT_BY_ALIGNMENT(.text*))
 .text.DbgConsole_Init
                0x00000410       0x40 ./utilities/fsl_debug_console.o
                0x00000410                DbgConsole_Init
 .text.LPUART_EnableTx
                0x00000450       0x40 ./utilities/fsl_io.o
 .text.LPUART_EnableRx
                0x00000490       0x40 ./utilities/fsl_io.o
 .text.IO_Init  0x000004d0       0xc8 ./utilities/fsl_io.o
                0x000004d0                IO_Init
 .text.__NVIC_EnableIRQ
                0x00000598       0x34 ./source/ADC_TERMISTOR.o
 .text.PIT_Init
                0x000005cc       0x50 ./source/ADC_TERMISTOR.o
                0x000005cc                PIT_Init
 .text.ADC_Init
                0x0000061c       0x5c ./source/ADC_TERMISTOR.o
                0x0000061c                ADC_Init
 .text.ADC0_IRQHandler
                0x00000678       0x44 ./source/ADC_TERMISTOR.o
                0x00000678                ADC0_IRQHandler
 .text.main     0x000006bc       0x38 ./source/ADC_TERMISTOR.o
                0x000006bc                main
 .text.HardFault_Handler
                0x000006f4       0x30 ./source/semihost_hardfault.o
                0x000006f4                HardFault_Handler
 .text.CLOCK_SetEr32kClock
                0x00000724       0x34 ./drivers/fsl_clock.o
 .text.CLOCK_SetSimConfig
                0x00000758       0x2c ./drivers/fsl_clock.o
                0x00000758                CLOCK_SetSimConfig
 .text.CLOCK_GetPeriphClkFreq
                0x00000784       0x34 ./drivers/fsl_clock.o
                0x00000784                CLOCK_GetPeriphClkFreq
 .text.CLOCK_SetMcgliteConfig
                0x000007b8      0x110 ./drivers/fsl_clock.o
                0x000007b8                CLOCK_SetMcgliteConfig
 .text.I2C_TransferCommonIRQHandler
                0x000008c8       0x54 ./drivers/fsl_i2c.o
 .text.I2C0_DriverIRQHandler
                0x0000091c       0x20 ./drivers/fsl_i2c.o
                0x0000091c                I2C0_DriverIRQHandler
 .text.I2C1_DriverIRQHandler
                0x0000093c       0x20 ./drivers/fsl_i2c.o
                0x0000093c                I2C1_DriverIRQHandler
 .text.CLOCK_EnableClock
                0x0000095c       0x34 ./drivers/fsl_lpuart.o
 .text.LPUART_GetInstance
                0x00000990       0x4c ./drivers/fsl_lpuart.o
                0x00000990                LPUART_GetInstance
 .text.LPUART_Init
                0x000009dc      0x2ac ./drivers/fsl_lpuart.o
                0x000009dc                LPUART_Init
 .text.LPUART_GetDefaultConfig
                0x00000c88       0x5c ./drivers/fsl_lpuart.o
                0x00000c88                LPUART_GetDefaultConfig
 .text.LPUART0_DriverIRQHandler
                0x00000ce4       0x24 ./drivers/fsl_lpuart.o
                0x00000ce4                LPUART0_DriverIRQHandler
 .text.LPUART1_DriverIRQHandler
                0x00000d08       0x24 ./drivers/fsl_lpuart.o
                0x00000d08                LPUART1_DriverIRQHandler
 .text.CLOCK_EnableClock
                0x00000d2c       0x34 ./drivers/fsl_uart.o
 .text.UART_GetInstance
                0x00000d60       0x54 ./drivers/fsl_uart.o
                0x00000d60                UART_GetInstance
 .text.UART_Init
                0x00000db4      0x200 ./drivers/fsl_uart.o
                0x00000db4                UART_Init
 .text.UART_GetDefaultConfig
                0x00000fb4       0x44 ./drivers/fsl_uart.o
                0x00000fb4                UART_GetDefaultConfig
 .text.CLOCK_SetLpuart0Clock
                0x00000ff8       0x38 ./board/board.o
 .text.BOARD_InitDebugConsole
                0x00001030       0x30 ./board/board.o
                0x00001030                BOARD_InitDebugConsole
 .text.CLOCK_SetSimSafeDivs
                0x00001060       0x20 ./board/clock_config.o
 .text.BOARD_BootClockRUN
                0x00001080       0x34 ./board/clock_config.o
                0x00001080                BOARD_BootClockRUN
 .text.CLOCK_EnableClock
                0x000010b4       0x34 ./board/pin_mux.o
 .text.PORT_SetPinConfig
                0x000010e8       0x38 ./board/pin_mux.o
 .text.BOARD_InitDEBUG_UART
                0x00001120       0x7c ./board/pin_mux.o
                0x00001120                BOARD_InitDEBUG_UART
 .text.SystemInit
                0x0000119c       0x40 ./CMSIS/system_MKL27Z644.o
                0x0000119c                SystemInit
 .text.__assertion_failed
                0x000011dc       0x4c c:/nxp/mcuxpressoide_10.2.1_795/ide/tools/bin/../lib/gcc/arm-none-eabi/7.2.1/../../../../arm-none-eabi/lib/thumb/v6-m\libcr_semihost_nf.a(_cr_assert.o)
                0x000011dc                __assertion_failed
 .text.__sys_appexit
                0x00001228        0xc c:/nxp/mcuxpressoide_10.2.1_795/ide/tools/bin/../lib/gcc/arm-none-eabi/7.2.1/../../../../arm-none-eabi/lib/thumb/v6-m\libcr_semihost_nf.a(__sys_appexit.o)
                0x00001228                __sys_appexit
                0x00001228                __exit
 .text._deferredlazyseek
                0x00001234       0x40 c:/nxp/mcuxpressoide_10.2.1_795/ide/tools/bin/../lib/gcc/arm-none-eabi/7.2.1/../../../../arm-none-eabi/lib/thumb/v6-m\libcr_c.a(_deferredlazyseek.o)
                0x00001234                _deferredlazyseek
 .text.__flsbuf
                0x00001274      0x14c c:/nxp/mcuxpressoide_10.2.1_795/ide/tools/bin/../lib/gcc/arm-none-eabi/7.2.1/../../../../arm-none-eabi/lib/thumb/v6-m\libcr_c.a(_deferredlazyseek.o)
                0x00001274                __flsbuf
 .text._fflush  0x000013c0       0x5c c:/nxp/mcuxpressoide_10.2.1_795/ide/tools/bin/../lib/gcc/arm-none-eabi/7.2.1/../../../../arm-none-eabi/lib/thumb/v6-m\libcr_c.a(_fflush.o)
                0x000013c0                _fflush
 .text._Cwritebuf
                0x0000141c       0x68 c:/nxp/mcuxpressoide_10.2.1_795/ide/tools/bin/../lib/gcc/arm-none-eabi/7.2.1/../../../../arm-none-eabi/lib/thumb/v6-m\libcr_c.a(_writebuf.o)
                0x0000141c                _Cwritebuf
 .text.malloc   0x00001484       0xcc c:/nxp/mcuxpressoide_10.2.1_795/ide/tools/bin/../lib/gcc/arm-none-eabi/7.2.1/../../../../arm-none-eabi/lib/thumb/v6-m\libcr_c.a(alloc.o)
                0x00001484                malloc
 .text._Csys_alloc
                0x00001550       0x20 c:/nxp/mcuxpressoide_10.2.1_795/ide/tools/bin/../lib/gcc/arm-none-eabi/7.2.1/../../../../arm-none-eabi/lib/thumb/v6-m\libcr_c.a(alloc.o)
                0x00001550                _Csys_alloc
 .text.fseek    0x00001570       0xf0 c:/nxp/mcuxpressoide_10.2.1_795/ide/tools/bin/../lib/gcc/arm-none-eabi/7.2.1/../../../../arm-none-eabi/lib/thumb/v6-m\libcr_c.a(fseek.o)
                0x00001570                fseek
 .text.ftell    0x00001660       0x48 c:/nxp/mcuxpressoide_10.2.1_795/ide/tools/bin/../lib/gcc/arm-none-eabi/7.2.1/../../../../arm-none-eabi/lib/thumb/v6-m\libcr_c.a(ftell.o)
                0x00001660                ftell
 .text._initio  0x000016a8       0x7c c:/nxp/mcuxpressoide_10.2.1_795/ide/tools/bin/../lib/gcc/arm-none-eabi/7.2.1/../../../../arm-none-eabi/lib/thumb/v6-m\libcr_c.a(initio.o)
                0x000016a8                _initio
 .text.__vfprintf
                0x00001724      0xcd4 c:/nxp/mcuxpressoide_10.2.1_795/ide/tools/bin/../lib/gcc/arm-none-eabi/7.2.1/../../../../arm-none-eabi/lib/thumb/v6-m\libcr_c.a(printf.o)
                0x00001724                __vfprintf
 .text._vsnprintf
                0x000023f8       0x60 c:/nxp/mcuxpressoide_10.2.1_795/ide/tools/bin/../lib/gcc/arm-none-eabi/7.2.1/../../../../arm-none-eabi/lib/thumb/v6-m\libcr_c.a(printf.o)
                0x000023f8                _vsnprintf
 .text._printf  0x00002458       0x50 c:/nxp/mcuxpressoide_10.2.1_795/ide/tools/bin/../lib/gcc/arm-none-eabi/7.2.1/../../../../arm-none-eabi/lib/thumb/v6-m\libcr_c.a(printf.o)
                0x00002458                _printf
 .text.setvbuf  0x000024a8       0x48 c:/nxp/mcuxpressoide_10.2.1_795/ide/tools/bin/../lib/gcc/arm-none-eabi/7.2.1/../../../../arm-none-eabi/lib/thumb/v6-m\libcr_c.a(setvbuf.o)
                0x000024a8                setvbuf
 .text.strlen   0x000024f0       0x58 c:/nxp/mcuxpressoide_10.2.1_795/ide/tools/bin/../lib/gcc/arm-none-eabi/7.2.1/../../../../arm-none-eabi/lib/thumb/v6-m\libcr_c.a(strlen.o)
                0x000024f0                strlen
 .text._sbrk    0x00002548       0x40 c:/nxp/mcuxpressoide_10.2.1_795/ide/tools/bin/../lib/gcc/arm-none-eabi/7.2.1/../../../../arm-none-eabi/lib/thumb/v6-m\libcr_c.a(_cr_sbrk.o)
                0x00002548                _sbrk
 .text._fdopen  0x00002588       0x74 c:/nxp/mcuxpressoide_10.2.1_795/ide/tools/bin/../lib/gcc/arm-none-eabi/7.2.1/../../../../arm-none-eabi/lib/thumb/v6-m\libcr_c.a(_fdopen.o)
                0x00002588                _fdopen
 .text.fclose   0x000025fc       0x5c c:/nxp/mcuxpressoide_10.2.1_795/ide/tools/bin/../lib/gcc/arm-none-eabi/7.2.1/../../../../arm-none-eabi/lib/thumb/v6-m\libcr_c.a(fclose.o)
                0x000025fc                fclose
 .text.fflush   0x00002658       0x44 c:/nxp/mcuxpressoide_10.2.1_795/ide/tools/bin/../lib/gcc/arm-none-eabi/7.2.1/../../../../arm-none-eabi/lib/thumb/v6-m\libcr_c.a(fflush.o)
                0x00002658                fflush
 .text.__check_heap_overflow
                0x0000269c       0x14 c:/nxp/mcuxpressoide_10.2.1_795/ide/tools/bin/../lib/gcc/arm-none-eabi/7.2.1/../../../../arm-none-eabi/lib/thumb/v6-m\libcr_c.a(_cr_check_heap.o)
                0x0000269c                __check_heap_overflow
 .text._do_fflush
                0x000026b0       0x44 c:/nxp/mcuxpressoide_10.2.1_795/ide/tools/bin/../lib/gcc/arm-none-eabi/7.2.1/../../../../arm-none-eabi/lib/thumb/v6-m\libcr_c.a(_do_fflush.o)
                0x000026b0                _do_fflush
 .text.UART_EnableTx
                0x000026f4       0x40 ./utilities/fsl_io.o
 .text.UART_EnableRx
                0x00002734       0x40 ./utilities/fsl_io.o
 .text.LOG_Init
                0x00002774       0x3a ./utilities/fsl_log.o
                0x00002774                LOG_Init
 .text.EnableIRQ
                0x000027ae       0x30 ./source/ADC_TERMISTOR.o
 .text.BOARD_InitBootClocks
                0x000027de        0xe ./board/clock_config.o
                0x000027de                BOARD_InitBootClocks
 .text.BOARD_InitPeripherals
                0x000027ec        0xa ./board/peripherals.o
                0x000027ec                BOARD_InitPeripherals
 .text.BOARD_InitBootPeripherals
                0x000027f6        0xe ./board/peripherals.o
                0x000027f6                BOARD_InitBootPeripherals
 .text.BOARD_InitBootPins
                0x00002804       0x12 ./board/pin_mux.o
                0x00002804                BOARD_InitBootPins
 .text.BOARD_InitPins
                0x00002816        0xa ./board/pin_mux.o
                0x00002816                BOARD_InitPins
 .text.SystemInitHook
                0x00002820        0xa ./CMSIS/system_MKL27Z644.o
                0x00002820                SystemInitHook
 .text.__main   0x0000282a        0xc c:/nxp/mcuxpressoide_10.2.1_795/ide/tools/bin/../lib/gcc/arm-none-eabi/7.2.1/../../../../arm-none-eabi/lib/thumb/v6-m\libcr_semihost_nf.a(_cr__main.o)
                0x0000282a                __CR_SEMIHOST
                0x0000282a                __main
 .text.memset   0x00002836        0x8 c:/nxp/mcuxpressoide_10.2.1_795/ide/tools/bin/../lib/gcc/arm-none-eabi/7.2.1/../../../../arm-none-eabi/lib/thumb/v6-m\libcr_c.a(memset.o)
                0x00002836                memset
 .text.free     0x0000283e       0x2c c:/nxp/mcuxpressoide_10.2.1_795/ide/tools/bin/../lib/gcc/arm-none-eabi/7.2.1/../../../../arm-none-eabi/lib/thumb/v6-m\libcr_c.a(alloc.o)
                0x0000283e                free
 .text.fputs    0x0000286a       0x2e c:/nxp/mcuxpressoide_10.2.1_795/ide/tools/bin/../lib/gcc/arm-none-eabi/7.2.1/../../../../arm-none-eabi/lib/thumb/v6-m\libcr_c.a(fputs.o)
                0x0000286a                fputs
 .text.no_fp_display
                0x00002898        0x4 c:/nxp/mcuxpressoide_10.2.1_795/ide/tools/bin/../lib/gcc/arm-none-eabi/7.2.1/../../../../arm-none-eabi/lib/thumb/v6-m\libcr_c.a(printf.o)
 .text.remove   0x0000289c       0x12 c:/nxp/mcuxpressoide_10.2.1_795/ide/tools/bin/../lib/gcc/arm-none-eabi/7.2.1/../../../../arm-none-eabi/lib/thumb/v6-m\libcr_c.a(remove.o)
                0x0000289c                remove
 .text.__aeabi_division_idivmod
                0x000028ae       0x78 c:/nxp/mcuxpressoide_10.2.1_795/ide/tools/bin/../lib/gcc/arm-none-eabi/7.2.1/thumb/v6-m\libcr_eabihelpers.a(division_32.o)
                0x000028ae                __aeabi_idivmod
                0x000028ae                __aeabi_idiv
                0x000028b4                __aeabi_uidivmod
                0x000028b4                __aeabi_uidiv
 .text.__aeabi_division_idiv0
                0x00002926        0x2 c:/nxp/mcuxpressoide_10.2.1_795/ide/tools/bin/../lib/gcc/arm-none-eabi/7.2.1/thumb/v6-m\libcr_eabihelpers.a(division_idiv0.o)
                0x00002926                __aeabi_idiv0
 .text.__aeabi_llong_lmul
                0x00002928       0x2e c:/nxp/mcuxpressoide_10.2.1_795/ide/tools/bin/../lib/gcc/arm-none-eabi/7.2.1/thumb/v6-m\libcr_eabihelpers.a(llong.o)
                0x00002928                __aeabi_lmul
 .text.__aeabi_memset_lowlevel
                0x00002956       0x2a c:/nxp/mcuxpressoide_10.2.1_795/ide/tools/bin/../lib/gcc/arm-none-eabi/7.2.1/thumb/v6-m\libcr_eabihelpers.a(memcpy.o)
                0x00002956                __aeabi_lowlevel_memset
 .text.__sys_close
                0x00002980        0xc c:/nxp/mcuxpressoide_10.2.1_795/ide/tools/bin/../lib/gcc/arm-none-eabi/7.2.1/../../../../arm-none-eabi/lib/thumb/v6-m\libcr_semihost_nf.a(__sys_close.o)
                0x00002980                __sys_close
 .text.__sys_flen
                0x0000298c        0xc c:/nxp/mcuxpressoide_10.2.1_795/ide/tools/bin/../lib/gcc/arm-none-eabi/7.2.1/../../../../arm-none-eabi/lib/thumb/v6-m\libcr_semihost_nf.a(__sys_flen.o)
                0x0000298c                __sys_flen
 .text.__sys_istty
                0x00002998        0xc c:/nxp/mcuxpressoide_10.2.1_795/ide/tools/bin/../lib/gcc/arm-none-eabi/7.2.1/../../../../arm-none-eabi/lib/thumb/v6-m\libcr_semihost_nf.a(__sys_istty.o)
                0x00002998                __sys_istty
 .text.__sys_remove
                0x000029a4        0xc c:/nxp/mcuxpressoide_10.2.1_795/ide/tools/bin/../lib/gcc/arm-none-eabi/7.2.1/../../../../arm-none-eabi/lib/thumb/v6-m\libcr_semihost_nf.a(__sys_remove.o)
                0x000029a4                __sys_remove
 .text.__sys_seek
                0x000029b0        0xc c:/nxp/mcuxpressoide_10.2.1_795/ide/tools/bin/../lib/gcc/arm-none-eabi/7.2.1/../../../../arm-none-eabi/lib/thumb/v6-m\libcr_semihost_nf.a(__sys_seek.o)
                0x000029b0                __sys_seek
 .text.__sys_tmpnam
                0x000029bc        0xc c:/nxp/mcuxpressoide_10.2.1_795/ide/tools/bin/../lib/gcc/arm-none-eabi/7.2.1/../../../../arm-none-eabi/lib/thumb/v6-m\libcr_semihost_nf.a(__sys_tmpnam.o)
                0x000029bc                __sys_tmpnam
 .text.__sys_write
                0x000029c8        0xc c:/nxp/mcuxpressoide_10.2.1_795/ide/tools/bin/../lib/gcc/arm-none-eabi/7.2.1/../../../../arm-none-eabi/lib/thumb/v6-m\libcr_semihost_nf.a(__sys_write.o)
                0x000029c8                __sys_write
 *(SORT_BY_ALIGNMENT(.rodata) SORT_BY_ALIGNMENT(.rodata.*) SORT_BY_ALIGNMENT(.constdata) SORT_BY_ALIGNMENT(.constdata.*))
 .rodata        0x000029d4       0x50 ./utilities/fsl_debug_console.o
 .rodata        0x00002a24       0x27 ./utilities/fsl_io.o
 *fill*         0x00002a4b        0x1 ff
 .rodata        0x00002a4c       0x25 ./source/ADC_TERMISTOR.o
 *fill*         0x00002a71        0x3 ff
 .rodata        0x00002a74       0xae ./drivers/fsl_clock.o
 *fill*         0x00002b22        0x2 ff
 .rodata.s_lpuartBases
                0x00002b24        0x8 ./drivers/fsl_lpuart.o
 .rodata.s_lpuartClock
                0x00002b2c        0x8 ./drivers/fsl_lpuart.o
 .rodata        0x00002b34      0x4da ./drivers/fsl_lpuart.o
 *fill*         0x0000300e        0x2 ff
 .rodata.s_uartBases
                0x00003010        0xc ./drivers/fsl_uart.o
 .rodata.s_uartClock
                0x0000301c        0xc ./drivers/fsl_uart.o
 .rodata        0x00003028      0x45b ./drivers/fsl_uart.o
 *fill*         0x00003483        0x1 ff
 .rodata.mcgliteConfig_BOARD_BootClockRUN
                0x00003484        0x6 ./board/clock_config.o
                0x00003484                mcgliteConfig_BOARD_BootClockRUN
 *fill*         0x0000348a        0x2 ff
 .rodata.simConfig_BOARD_BootClockRUN
                0x0000348c        0x8 ./board/clock_config.o
                0x0000348c                simConfig_BOARD_BootClockRUN
 .rodata        0x00003494       0x26 ./board/pin_mux.o
 *fill*         0x000034ba        0x2 ff
 .rodata.__num_Ciob_streams
                0x000034bc        0x4 c:/nxp/mcuxpressoide_10.2.1_795/ide/tools/bin/../lib/gcc/arm-none-eabi/7.2.1/../../../../arm-none-eabi/lib/thumb/v6-m\libcr_semihost_nf.a(__ciob.o)
                0x000034bc                __num_Ciob_streams
 .rodata.__assertion_failed.str1.1
                0x000034c0       0x15 c:/nxp/mcuxpressoide_10.2.1_795/ide/tools/bin/../lib/gcc/arm-none-eabi/7.2.1/../../../../arm-none-eabi/lib/thumb/v6-m\libcr_semihost_nf.a(_cr_assert.o)
 .rodata._Csys_alloc.str1.1
                0x000034d5       0x18 c:/nxp/mcuxpressoide_10.2.1_795/ide/tools/bin/../lib/gcc/arm-none-eabi/7.2.1/../../../../arm-none-eabi/lib/thumb/v6-m\libcr_c.a(alloc.o)
 .rodata._initio.str1.1
                0x000034ed        0x4 c:/nxp/mcuxpressoide_10.2.1_795/ide/tools/bin/../lib/gcc/arm-none-eabi/7.2.1/../../../../arm-none-eabi/lib/thumb/v6-m\libcr_c.a(initio.o)
 .rodata.__vfprintf.str1.1
                0x000034f1       0x35 c:/nxp/mcuxpressoide_10.2.1_795/ide/tools/bin/../lib/gcc/arm-none-eabi/7.2.1/../../../../arm-none-eabi/lib/thumb/v6-m\libcr_c.a(printf.o)
                                 0x38 (size before relaxing)
                0x00003528                . = ALIGN (0x4)
 *fill*         0x00003526        0x2 ff

.glue_7         0x00003528        0x0
 .glue_7        0x00003528        0x0 linker stubs

.glue_7t        0x00003528        0x0
 .glue_7t       0x00003528        0x0 linker stubs

.vfp11_veneer   0x00003528        0x0
 .vfp11_veneer  0x00003528        0x0 linker stubs

.v4_bx          0x00003528        0x0
 .v4_bx         0x00003528        0x0 linker stubs

.iplt           0x00003528        0x0
 .iplt          0x00003528        0x0 ./utilities/fsl_debug_console.o

.rel.dyn        0x00003528        0x0
 .rel.iplt      0x00003528        0x0 ./utilities/fsl_debug_console.o

.ARM.extab
 *(SORT_BY_ALIGNMENT(.ARM.extab*) SORT_BY_ALIGNMENT(.gnu.linkonce.armextab.*))
                0x00003528                __exidx_start = .

.ARM.exidx
 *(SORT_BY_ALIGNMENT(.ARM.exidx*) SORT_BY_ALIGNMENT(.gnu.linkonce.armexidx.*))
                0x00003528                __exidx_end = .
                0x00003528                _etext = .

.m_usb_data
 *(SORT_BY_ALIGNMENT(m_usb_bdt))

.mtb_buffer_RAM2
 *(SORT_BY_ALIGNMENT(.mtb.$RAM2*))
 *(SORT_BY_ALIGNMENT(.mtb.$USB_RAM*))

.data_RAM2      0x400fe000        0x0 load address 0x00003528
 FILL mask 0xff
                [!provide]                PROVIDE (__start_data_RAM2, .)
 *(SORT_BY_ALIGNMENT(.ramfunc.$RAM2))
 *(SORT_BY_ALIGNMENT(.ramfunc.$USB_RAM))
 *(SORT_BY_ALIGNMENT(.data.$RAM2*))
 *(SORT_BY_ALIGNMENT(.data.$USB_RAM*))
                0x400fe000                . = ALIGN (0x4)
                [!provide]                PROVIDE (__end_data_RAM2, .)

.mtb_buffer_default
                0x1ffff000       0x80
 *(SORT_BY_ALIGNMENT(.mtb*))
 .mtb.$RAM1     0x1ffff000       0x80 ./source/mtb.o
                0x1ffff000                __mtb_buffer__

.uninit_RESERVED
                0x1ffff080        0x0
 *(SORT_BY_ALIGNMENT(.bss.$RESERVED*))
                0x1ffff080                . = ALIGN (0x4)
                0x1ffff080                _end_uninit_RESERVED = .

.data           0x1ffff080        0x4 load address 0x00003528
 FILL mask 0xff
                0x1ffff080                _data = .
 *(SORT_BY_ALIGNMENT(vtable))
 *(SORT_BY_ALIGNMENT(.ramfunc*))
 *(SORT_BY_ALIGNMENT(.data*))
 .data.SystemCoreClock
                0x1ffff080        0x4 ./CMSIS/system_MKL27Z644.o
                0x1ffff080                SystemCoreClock
                0x1ffff084                . = ALIGN (0x4)
                0x1ffff084                _edata = .

.igot.plt       0x1ffff084        0x0 load address 0x0000352c
 .igot.plt      0x1ffff084        0x0 ./utilities/fsl_debug_console.o

.bss_RAM2       0x400fe000        0x0
                [!provide]                PROVIDE (__start_bss_RAM2, .)
 *(SORT_BY_ALIGNMENT(.bss.$RAM2*))
 *(SORT_BY_ALIGNMENT(.bss.$USB_RAM*))
                0x400fe000                . = ALIGN ((. != 0x0)?0x4:0x1)
                [!provide]                PROVIDE (__end_bss_RAM2, .)

.bss            0x1ffff084       0xe8
                0x1ffff084                _bss = .
 *(SORT_BY_ALIGNMENT(.bss*))
 .bss.s_debugConsoleIO
                0x1ffff084        0x8 ./utilities/fsl_io.o
 .bss.i.7387    0x1ffff08c        0x4 ./source/ADC_TERMISTOR.o
 .bss.s_i2cHandle
                0x1ffff090        0x8 ./drivers/fsl_i2c.o
 .bss.s_i2cMasterIsr
                0x1ffff098        0x4 ./drivers/fsl_i2c.o
 .bss.s_i2cSlaveIsr
                0x1ffff09c        0x4 ./drivers/fsl_i2c.o
 .bss.s_lpuartHandle
                0x1ffff0a0        0x8 ./drivers/fsl_lpuart.o
 .bss.s_lpuartIsr
                0x1ffff0a8        0x4 ./drivers/fsl_lpuart.o
 .bss.__Ciob    0x1ffff0ac       0xb4 c:/nxp/mcuxpressoide_10.2.1_795/ide/tools/bin/../lib/gcc/arm-none-eabi/7.2.1/../../../../arm-none-eabi/lib/thumb/v6-m\libcr_semihost_nf.a(__ciob.o)
                0x1ffff0ac                __Ciob
 .bss.__end_of_heap
                0x1ffff160        0x4 c:/nxp/mcuxpressoide_10.2.1_795/ide/tools/bin/../lib/gcc/arm-none-eabi/7.2.1/../../../../arm-none-eabi/lib/thumb/v6-m\libcr_c.a(__init_alloc.o)
                0x1ffff160                __end_of_heap
 .bss.__heaps   0x1ffff164        0x4 c:/nxp/mcuxpressoide_10.2.1_795/ide/tools/bin/../lib/gcc/arm-none-eabi/7.2.1/../../../../arm-none-eabi/lib/thumb/v6-m\libcr_c.a(__init_alloc.o)
                0x1ffff164                __heaps
 .bss.errno     0x1ffff168        0x4 c:/nxp/mcuxpressoide_10.2.1_795/ide/tools/bin/../lib/gcc/arm-none-eabi/7.2.1/../../../../arm-none-eabi/lib/thumb/v6-m\libcr_c.a(errno.o)
                0x1ffff168                errno
 *(SORT_BY_ALIGNMENT(COMMON))
                0x1ffff16c                . = ALIGN (0x4)
                0x1ffff16c                _ebss = .
                [!provide]                PROVIDE (end, .)

.noinit_RAM2    0x400fe000        0x0
 *(SORT_BY_ALIGNMENT(.noinit.$RAM2*))
 *(SORT_BY_ALIGNMENT(.noinit.$USB_RAM*))
                0x400fe000                . = ALIGN (0x4)

.noinit         0x1ffff16c        0x0
                0x1ffff16c                _noinit = .
 *(SORT_BY_ALIGNMENT(.noinit*))
                0x1ffff16c                . = ALIGN (0x4)
                0x1ffff16c                _end_noinit = .
                0x00000400                _HeapSize = 0x400

.heap           0x1ffff16c      0x400
                0x1ffff16c                _pvHeapStart = .
                0x1ffff56c                . = (. + _HeapSize)
 *fill*         0x1ffff16c      0x400 
                0x1ffff56c                . = ALIGN (0x4)
                0x1ffff56c                _pvHeapLimit = .
                0x00000400                _StackSize = 0x400

.heap2stackfill
                0x1ffff56c      0x400
                0x1ffff96c                . = (. + _StackSize)
 *fill*         0x1ffff56c      0x400 

.stack          0x20002c00        0x0
                0x20002c00                _vStackBase = .
                0x20002c00                . = ALIGN (0x4)
                0x20003000                _vStackTop = (. + _StackSize)
                0x00000000                _image_start = LOADADDR (.text)
                0x0000352c                _image_end = (LOADADDR (.data) + SIZEOF (.data))
                0x0000352c                _image_size = (_image_end - _image_start)
OUTPUT(ADC_TERMISTOR.axf elf32-littlearm)

.debug_info     0x00000000     0xb1da
 .debug_info    0x00000000      0x2b3 ./utilities/fsl_debug_console.o
 .debug_info    0x000002b3      0xa6e ./utilities/fsl_io.o
 .debug_info    0x00000d21      0x329 ./utilities/fsl_log.o
 .debug_info    0x0000104a      0x49b ./startup/startup_mkl27z644.o
 .debug_info    0x000014e5     0x223c ./source/ADC_TERMISTOR.o
 .debug_info    0x00003721       0x52 ./source/mtb.o
 .debug_info    0x00003773       0x3b ./source/semihost_hardfault.o
 .debug_info    0x000037ae     0x113b ./drivers/fsl_clock.o
 .debug_info    0x000048e9     0x19c7 ./drivers/fsl_i2c.o
 .debug_info    0x000062b0     0x1511 ./drivers/fsl_lpuart.o
 .debug_info    0x000077c1     0x1509 ./drivers/fsl_uart.o
 .debug_info    0x00008cca      0x6c0 ./board/board.o
 .debug_info    0x0000938a      0x930 ./board/clock_config.o
 .debug_info    0x00009cba      0x7c6 ./board/peripherals.o
 .debug_info    0x0000a480      0x96d ./board/pin_mux.o
 .debug_info    0x0000aded      0x3ed ./CMSIS/system_MKL27Z644.o

.debug_abbrev   0x00000000     0x1da5
 .debug_abbrev  0x00000000      0x100 ./utilities/fsl_debug_console.o
 .debug_abbrev  0x00000100      0x22b ./utilities/fsl_io.o
 .debug_abbrev  0x0000032b      0x179 ./utilities/fsl_log.o
 .debug_abbrev  0x000004a4      0x16d ./startup/startup_mkl27z644.o
 .debug_abbrev  0x00000611      0x2c4 ./source/ADC_TERMISTOR.o
 .debug_abbrev  0x000008d5       0x44 ./source/mtb.o
 .debug_abbrev  0x00000919       0x2f ./source/semihost_hardfault.o
 .debug_abbrev  0x00000948      0x2d6 ./drivers/fsl_clock.o
 .debug_abbrev  0x00000c1e      0x346 ./drivers/fsl_i2c.o
 .debug_abbrev  0x00000f64      0x2d8 ./drivers/fsl_lpuart.o
 .debug_abbrev  0x0000123c      0x30a ./drivers/fsl_uart.o
 .debug_abbrev  0x00001546      0x176 ./board/board.o
 .debug_abbrev  0x000016bc      0x1be ./board/clock_config.o
 .debug_abbrev  0x0000187a      0x15c ./board/peripherals.o
 .debug_abbrev  0x000019d6      0x27b ./board/pin_mux.o
 .debug_abbrev  0x00001c51      0x154 ./CMSIS/system_MKL27Z644.o

.debug_aranges  0x00000000      0x930
 .debug_aranges
                0x00000000       0x30 ./utilities/fsl_debug_console.o
 .debug_aranges
                0x00000030       0x58 ./utilities/fsl_io.o
 .debug_aranges
                0x00000088       0x58 ./utilities/fsl_log.o
 .debug_aranges
                0x000000e0      0x160 ./startup/startup_mkl27z644.o
 .debug_aranges
                0x00000240       0x48 ./source/ADC_TERMISTOR.o
 .debug_aranges
                0x00000288       0x18 ./source/mtb.o
 .debug_aranges
                0x000002a0       0x20 ./source/semihost_hardfault.o
 .debug_aranges
                0x000002c0       0xd0 ./drivers/fsl_clock.o
 .debug_aranges
                0x00000390      0x178 ./drivers/fsl_i2c.o
 .debug_aranges
                0x00000508      0x120 ./drivers/fsl_lpuart.o
 .debug_aranges
                0x00000628      0x120 ./drivers/fsl_uart.o
 .debug_aranges
                0x00000748       0x28 ./board/board.o
 .debug_aranges
                0x00000770       0x50 ./board/clock_config.o
 .debug_aranges
                0x000007c0       0xb8 ./board/peripherals.o
 .debug_aranges
                0x00000878       0x88 ./board/pin_mux.o
 .debug_aranges
                0x00000900       0x30 ./CMSIS/system_MKL27Z644.o

.debug_ranges   0x00000000      0x828
 .debug_ranges  0x00000000       0x20 ./utilities/fsl_debug_console.o
 .debug_ranges  0x00000020       0x48 ./utilities/fsl_io.o
 .debug_ranges  0x00000068       0x48 ./utilities/fsl_log.o
 .debug_ranges  0x000000b0      0x150 ./startup/startup_mkl27z644.o
 .debug_ranges  0x00000200       0x38 ./source/ADC_TERMISTOR.o
 .debug_ranges  0x00000238       0x10 ./source/semihost_hardfault.o
 .debug_ranges  0x00000248       0xc0 ./drivers/fsl_clock.o
 .debug_ranges  0x00000308      0x168 ./drivers/fsl_i2c.o
 .debug_ranges  0x00000470      0x110 ./drivers/fsl_lpuart.o
 .debug_ranges  0x00000580      0x110 ./drivers/fsl_uart.o
 .debug_ranges  0x00000690       0x18 ./board/board.o
 .debug_ranges  0x000006a8       0x40 ./board/clock_config.o
 .debug_ranges  0x000006e8       0xa8 ./board/peripherals.o
 .debug_ranges  0x00000790       0x78 ./board/pin_mux.o
 .debug_ranges  0x00000808       0x20 ./CMSIS/system_MKL27Z644.o

.debug_macro    0x00000000     0xad1d
 .debug_macro   0x00000000      0x139 ./utilities/fsl_debug_console.o
 .debug_macro   0x00000139      0xa7e ./utilities/fsl_debug_console.o
 .debug_macro   0x00000bb7       0x10 ./utilities/fsl_debug_console.o
 .debug_macro   0x00000bc7       0x16 ./utilities/fsl_debug_console.o
 .debug_macro   0x00000bdd       0x10 ./utilities/fsl_debug_console.o
 .debug_macro   0x00000bed      0x12d ./utilities/fsl_debug_console.o
 .debug_macro   0x00000d1a       0x28 ./utilities/fsl_debug_console.o
 .debug_macro   0x00000d42       0x16 ./utilities/fsl_debug_console.o
 .debug_macro   0x00000d58       0x22 ./utilities/fsl_debug_console.o
 .debug_macro   0x00000d7a      0x5b2 ./utilities/fsl_debug_console.o
 .debug_macro   0x0000132c       0x10 ./utilities/fsl_debug_console.o
 .debug_macro   0x0000133c       0x40 ./utilities/fsl_debug_console.o
 .debug_macro   0x0000137c       0x1c ./utilities/fsl_debug_console.o
 .debug_macro   0x00001398       0x22 ./utilities/fsl_debug_console.o
 .debug_macro   0x000013ba       0xb5 ./utilities/fsl_debug_console.o
 .debug_macro   0x0000146f      0x37c ./utilities/fsl_debug_console.o
 .debug_macro   0x000017eb       0x41 ./utilities/fsl_debug_console.o
 .debug_macro   0x0000182c     0x547b ./utilities/fsl_debug_console.o
 .debug_macro   0x00006ca7     0x10fb ./utilities/fsl_debug_console.o
 .debug_macro   0x00007da2       0x52 ./utilities/fsl_debug_console.o
 .debug_macro   0x00007df4       0xeb ./utilities/fsl_debug_console.o
 .debug_macro   0x00007edf       0x74 ./utilities/fsl_debug_console.o
 .debug_macro   0x00007f53       0xd2 ./utilities/fsl_debug_console.o
 .debug_macro   0x00008025       0x1c ./utilities/fsl_debug_console.o
 .debug_macro   0x00008041       0x50 ./utilities/fsl_debug_console.o
 .debug_macro   0x00008091      0x123 ./utilities/fsl_io.o
 .debug_macro   0x000081b4       0x1c ./utilities/fsl_io.o
 .debug_macro   0x000081d0       0x22 ./utilities/fsl_io.o
 .debug_macro   0x000081f2       0x10 ./utilities/fsl_io.o
 .debug_macro   0x00008202       0x10 ./utilities/fsl_io.o
 .debug_macro   0x00008212      0x147 ./utilities/fsl_log.o
 .debug_macro   0x00008359       0x29 ./startup/startup_mkl27z644.o
 .debug_macro   0x00008382      0x198 ./source/ADC_TERMISTOR.o
 .debug_macro   0x0000851a       0xd8 ./source/ADC_TERMISTOR.o
 .debug_macro   0x000085f2       0x17 ./source/ADC_TERMISTOR.o
 .debug_macro   0x00008609       0x10 ./source/ADC_TERMISTOR.o
 .debug_macro   0x00008619      0x1a0 ./source/ADC_TERMISTOR.o
 .debug_macro   0x000087b9       0x16 ./source/ADC_TERMISTOR.o
 .debug_macro   0x000087cf       0x1c ./source/ADC_TERMISTOR.o
 .debug_macro   0x000087eb       0x64 ./source/ADC_TERMISTOR.o
 .debug_macro   0x0000884f      0x18b ./source/ADC_TERMISTOR.o
 .debug_macro   0x000089da       0x22 ./source/ADC_TERMISTOR.o
 .debug_macro   0x000089fc      0x308 ./source/ADC_TERMISTOR.o
 .debug_macro   0x00008d04     0x1271 ./source/ADC_TERMISTOR.o
 .debug_macro   0x00009f75      0x253 ./source/ADC_TERMISTOR.o
 .debug_macro   0x0000a1c8       0xca ./source/ADC_TERMISTOR.o
 .debug_macro   0x0000a292       0x2f ./source/mtb.o
 .debug_macro   0x0000a2c1       0x82 ./source/mtb.o
 .debug_macro   0x0000a343       0x10 ./source/mtb.o
 .debug_macro   0x0000a353       0x11 ./source/semihost_hardfault.o
 .debug_macro   0x0000a364      0x134 ./drivers/fsl_clock.o
 .debug_macro   0x0000a498      0x107 ./drivers/fsl_i2c.o
 .debug_macro   0x0000a59f       0x16 ./drivers/fsl_i2c.o
 .debug_macro   0x0000a5b5      0x108 ./drivers/fsl_lpuart.o
 .debug_macro   0x0000a6bd      0x10e ./drivers/fsl_uart.o
 .debug_macro   0x0000a7cb      0x13b ./board/board.o
 .debug_macro   0x0000a906       0x1d ./board/board.o
 .debug_macro   0x0000a923      0x12d ./board/clock_config.o
 .debug_macro   0x0000aa50      0x129 ./board/peripherals.o
 .debug_macro   0x0000ab79      0x10d ./board/pin_mux.o
 .debug_macro   0x0000ac86       0x97 ./CMSIS/system_MKL27Z644.o

.debug_line     0x00000000     0x3a29
 .debug_line    0x00000000      0x29f ./utilities/fsl_debug_console.o
 .debug_line    0x0000029f      0x341 ./utilities/fsl_io.o
 .debug_line    0x000005e0      0x30b ./utilities/fsl_log.o
 .debug_line    0x000008eb      0x12a ./startup/startup_mkl27z644.o
 .debug_line    0x00000a15      0x367 ./source/ADC_TERMISTOR.o
 .debug_line    0x00000d7c       0x95 ./source/mtb.o
 .debug_line    0x00000e11       0x54 ./source/semihost_hardfault.o
 .debug_line    0x00000e65      0x48b ./drivers/fsl_clock.o
 .debug_line    0x000012f0      0xa1e ./drivers/fsl_i2c.o
 .debug_line    0x00001d0e      0x761 ./drivers/fsl_lpuart.o
 .debug_line    0x0000246f      0x74e ./drivers/fsl_uart.o
 .debug_line    0x00002bbd      0x26d ./board/board.o
 .debug_line    0x00002e2a      0x2af ./board/clock_config.o
 .debug_line    0x000030d9      0x39f ./board/peripherals.o
 .debug_line    0x00003478      0x3de ./board/pin_mux.o
 .debug_line    0x00003856      0x1d3 ./CMSIS/system_MKL27Z644.o

.debug_str      0x00000000    0x421ca
 .debug_str     0x00000000    0x338cd ./utilities/fsl_debug_console.o
                              0x33adc (size before relaxing)
 .debug_str     0x000338cd      0xd67 ./utilities/fsl_io.o
                              0x34439 (size before relaxing)
 .debug_str     0x00034634      0x1d8 ./utilities/fsl_log.o
                              0x33864 (size before relaxing)
 .debug_str     0x0003480c      0x40c ./startup/startup_mkl27z644.o
                               0x3147 (size before relaxing)
 .debug_str     0x00034c18     0xa180 ./source/ADC_TERMISTOR.o
                              0x3e5c5 (size before relaxing)
 .debug_str     0x0003ed98      0x532 ./source/mtb.o
                               0x3225 (size before relaxing)
 .debug_str     0x0003f2ca       0x1f ./source/semihost_hardfault.o
                               0x2d12 (size before relaxing)
 .debug_str     0x0003f2e9      0xadc ./drivers/fsl_clock.o
                              0x3485b (size before relaxing)
 .debug_str     0x0003fdc5      0xbdc ./drivers/fsl_i2c.o
                              0x34b1e (size before relaxing)
 .debug_str     0x000409a1      0x8a3 ./drivers/fsl_lpuart.o
                              0x34bd7 (size before relaxing)
 .debug_str     0x00041244      0x480 ./drivers/fsl_uart.o
                              0x349be (size before relaxing)
 .debug_str     0x000416c4       0x4d ./board/board.o
                              0x34900 (size before relaxing)
 .debug_str     0x00041711      0x32a ./board/clock_config.o
                              0x341e4 (size before relaxing)
 .debug_str     0x00041a3b      0x1e3 ./board/peripherals.o
                              0x343cc (size before relaxing)
 .debug_str     0x00041c1e      0x52f ./board/pin_mux.o
                              0x34207 (size before relaxing)
 .debug_str     0x0004214d       0x7d ./CMSIS/system_MKL27Z644.o
                              0x327ed (size before relaxing)

.comment        0x00000000       0x7e
 .comment       0x00000000       0x7e ./utilities/fsl_debug_console.o
                                 0x7f (size before relaxing)
 .comment       0x0000007e       0x7f ./utilities/fsl_io.o
 .comment       0x0000007e       0x7f ./utilities/fsl_log.o
 .comment       0x0000007e       0x7f ./startup/startup_mkl27z644.o
 .comment       0x0000007e       0x7f ./source/ADC_TERMISTOR.o
 .comment       0x0000007e       0x7f ./source/mtb.o
 .comment       0x0000007e       0x7f ./source/semihost_hardfault.o
 .comment       0x0000007e       0x7f ./drivers/fsl_clock.o
 .comment       0x0000007e       0x7f ./drivers/fsl_i2c.o
 .comment       0x0000007e       0x7f ./drivers/fsl_lpuart.o
 .comment       0x0000007e       0x7f ./drivers/fsl_uart.o
 .comment       0x0000007e       0x7f ./board/board.o
 .comment       0x0000007e       0x7f ./board/clock_config.o
 .comment       0x0000007e       0x7f ./board/peripherals.o
 .comment       0x0000007e       0x7f ./board/pin_mux.o
 .comment       0x0000007e       0x7f ./CMSIS/system_MKL27Z644.o
 .comment       0x0000007e       0x7f c:/nxp/mcuxpressoide_10.2.1_795/ide/tools/bin/../lib/gcc/arm-none-eabi/7.2.1/../../../../arm-none-eabi/lib/thumb/v6-m\libcr_semihost_nf.a(_cr__main.o)
 .comment       0x0000007e       0x7f c:/nxp/mcuxpressoide_10.2.1_795/ide/tools/bin/../lib/gcc/arm-none-eabi/7.2.1/../../../../arm-none-eabi/lib/thumb/v6-m\libcr_semihost_nf.a(_cr_assert.o)
 .comment       0x0000007e       0x7f c:/nxp/mcuxpressoide_10.2.1_795/ide/tools/bin/../lib/gcc/arm-none-eabi/7.2.1/../../../../arm-none-eabi/lib/thumb/v6-m\libcr_semihost_nf.a(__ciob.o)
 .comment       0x0000007e       0x7f c:/nxp/mcuxpressoide_10.2.1_795/ide/tools/bin/../lib/gcc/arm-none-eabi/7.2.1/../../../../arm-none-eabi/lib/thumb/v6-m\libcr_c.a(memset.o)
 .comment       0x0000007e       0x7f c:/nxp/mcuxpressoide_10.2.1_795/ide/tools/bin/../lib/gcc/arm-none-eabi/7.2.1/../../../../arm-none-eabi/lib/thumb/v6-m\libcr_c.a(_deferredlazyseek.o)
 .comment       0x0000007e       0x7f c:/nxp/mcuxpressoide_10.2.1_795/ide/tools/bin/../lib/gcc/arm-none-eabi/7.2.1/../../../../arm-none-eabi/lib/thumb/v6-m\libcr_c.a(_fflush.o)
 .comment       0x0000007e       0x7f c:/nxp/mcuxpressoide_10.2.1_795/ide/tools/bin/../lib/gcc/arm-none-eabi/7.2.1/../../../../arm-none-eabi/lib/thumb/v6-m\libcr_c.a(_writebuf.o)
 .comment       0x0000007e       0x7f c:/nxp/mcuxpressoide_10.2.1_795/ide/tools/bin/../lib/gcc/arm-none-eabi/7.2.1/../../../../arm-none-eabi/lib/thumb/v6-m\libcr_c.a(alloc.o)
 .comment       0x0000007e       0x7f c:/nxp/mcuxpressoide_10.2.1_795/ide/tools/bin/../lib/gcc/arm-none-eabi/7.2.1/../../../../arm-none-eabi/lib/thumb/v6-m\libcr_c.a(fputs.o)
 .comment       0x0000007e       0x7f c:/nxp/mcuxpressoide_10.2.1_795/ide/tools/bin/../lib/gcc/arm-none-eabi/7.2.1/../../../../arm-none-eabi/lib/thumb/v6-m\libcr_c.a(fseek.o)
 .comment       0x0000007e       0x7f c:/nxp/mcuxpressoide_10.2.1_795/ide/tools/bin/../lib/gcc/arm-none-eabi/7.2.1/../../../../arm-none-eabi/lib/thumb/v6-m\libcr_c.a(ftell.o)
 .comment       0x0000007e       0x7f c:/nxp/mcuxpressoide_10.2.1_795/ide/tools/bin/../lib/gcc/arm-none-eabi/7.2.1/../../../../arm-none-eabi/lib/thumb/v6-m\libcr_c.a(initio.o)
 .comment       0x0000007e       0x7f c:/nxp/mcuxpressoide_10.2.1_795/ide/tools/bin/../lib/gcc/arm-none-eabi/7.2.1/../../../../arm-none-eabi/lib/thumb/v6-m\libcr_c.a(printf.o)
 .comment       0x0000007e       0x7f c:/nxp/mcuxpressoide_10.2.1_795/ide/tools/bin/../lib/gcc/arm-none-eabi/7.2.1/../../../../arm-none-eabi/lib/thumb/v6-m\libcr_c.a(setvbuf.o)
 .comment       0x0000007e       0x7f c:/nxp/mcuxpressoide_10.2.1_795/ide/tools/bin/../lib/gcc/arm-none-eabi/7.2.1/../../../../arm-none-eabi/lib/thumb/v6-m\libcr_c.a(strlen.o)
 .comment       0x0000007e       0x7f c:/nxp/mcuxpressoide_10.2.1_795/ide/tools/bin/../lib/gcc/arm-none-eabi/7.2.1/../../../../arm-none-eabi/lib/thumb/v6-m\libcr_c.a(__init_alloc.o)
 .comment       0x0000007e       0x7f c:/nxp/mcuxpressoide_10.2.1_795/ide/tools/bin/../lib/gcc/arm-none-eabi/7.2.1/../../../../arm-none-eabi/lib/thumb/v6-m\libcr_c.a(_cr_sbrk.o)
 .comment       0x0000007e       0x7f c:/nxp/mcuxpressoide_10.2.1_795/ide/tools/bin/../lib/gcc/arm-none-eabi/7.2.1/../../../../arm-none-eabi/lib/thumb/v6-m\libcr_c.a(_fdopen.o)
 .comment       0x0000007e       0x7f c:/nxp/mcuxpressoide_10.2.1_795/ide/tools/bin/../lib/gcc/arm-none-eabi/7.2.1/../../../../arm-none-eabi/lib/thumb/v6-m\libcr_c.a(errno.o)
 .comment       0x0000007e       0x7f c:/nxp/mcuxpressoide_10.2.1_795/ide/tools/bin/../lib/gcc/arm-none-eabi/7.2.1/../../../../arm-none-eabi/lib/thumb/v6-m\libcr_c.a(fclose.o)
 .comment       0x0000007e       0x7f c:/nxp/mcuxpressoide_10.2.1_795/ide/tools/bin/../lib/gcc/arm-none-eabi/7.2.1/../../../../arm-none-eabi/lib/thumb/v6-m\libcr_c.a(fflush.o)
 .comment       0x0000007e       0x7f c:/nxp/mcuxpressoide_10.2.1_795/ide/tools/bin/../lib/gcc/arm-none-eabi/7.2.1/../../../../arm-none-eabi/lib/thumb/v6-m\libcr_c.a(remove.o)
 .comment       0x0000007e       0x7f c:/nxp/mcuxpressoide_10.2.1_795/ide/tools/bin/../lib/gcc/arm-none-eabi/7.2.1/../../../../arm-none-eabi/lib/thumb/v6-m\libcr_c.a(_cr_check_heap.o)
 .comment       0x0000007e       0x7f c:/nxp/mcuxpressoide_10.2.1_795/ide/tools/bin/../lib/gcc/arm-none-eabi/7.2.1/../../../../arm-none-eabi/lib/thumb/v6-m\libcr_c.a(_do_fflush.o)

.ARM.attributes
                0x00000000       0x30
 .ARM.attributes
                0x00000000       0x32 ./utilities/fsl_debug_console.o
 .ARM.attributes
                0x00000032       0x32 ./utilities/fsl_io.o
 .ARM.attributes
                0x00000064       0x32 ./utilities/fsl_log.o
 .ARM.attributes
                0x00000096       0x32 ./startup/startup_mkl27z644.o
 .ARM.attributes
                0x000000c8       0x32 ./source/ADC_TERMISTOR.o
 .ARM.attributes
                0x000000fa       0x32 ./source/mtb.o
 .ARM.attributes
                0x0000012c       0x32 ./source/semihost_hardfault.o
 .ARM.attributes
                0x0000015e       0x32 ./drivers/fsl_clock.o
 .ARM.attributes
                0x00000190       0x32 ./drivers/fsl_i2c.o
 .ARM.attributes
                0x000001c2       0x32 ./drivers/fsl_lpuart.o
 .ARM.attributes
                0x000001f4       0x32 ./drivers/fsl_uart.o
 .ARM.attributes
                0x00000226       0x32 ./board/board.o
 .ARM.attributes
                0x00000258       0x32 ./board/clock_config.o
 .ARM.attributes
                0x0000028a       0x32 ./board/peripherals.o
 .ARM.attributes
                0x000002bc       0x32 ./board/pin_mux.o
 .ARM.attributes
                0x000002ee       0x32 ./CMSIS/system_MKL27Z644.o
 .ARM.attributes
                0x00000320       0x31 c:/nxp/mcuxpressoide_10.2.1_795/ide/tools/bin/../lib/gcc/arm-none-eabi/7.2.1/../../../../arm-none-eabi/lib/thumb/v6-m\libcr_semihost_nf.a(_cr__main.o)
 .ARM.attributes
                0x00000351       0x31 c:/nxp/mcuxpressoide_10.2.1_795/ide/tools/bin/../lib/gcc/arm-none-eabi/7.2.1/../../../../arm-none-eabi/lib/thumb/v6-m\libcr_semihost_nf.a(_cr_assert.o)
 .ARM.attributes
                0x00000382       0x31 c:/nxp/mcuxpressoide_10.2.1_795/ide/tools/bin/../lib/gcc/arm-none-eabi/7.2.1/../../../../arm-none-eabi/lib/thumb/v6-m\libcr_semihost_nf.a(__ciob.o)
 .ARM.attributes
                0x000003b3       0x21 c:/nxp/mcuxpressoide_10.2.1_795/ide/tools/bin/../lib/gcc/arm-none-eabi/7.2.1/../../../../arm-none-eabi/lib/thumb/v6-m\libcr_semihost_nf.a(__sys_appexit.o)
 .ARM.attributes
                0x000003d4       0x31 c:/nxp/mcuxpressoide_10.2.1_795/ide/tools/bin/../lib/gcc/arm-none-eabi/7.2.1/../../../../arm-none-eabi/lib/thumb/v6-m\libcr_c.a(memset.o)
 .ARM.attributes
                0x00000405       0x31 c:/nxp/mcuxpressoide_10.2.1_795/ide/tools/bin/../lib/gcc/arm-none-eabi/7.2.1/../../../../arm-none-eabi/lib/thumb/v6-m\libcr_c.a(_deferredlazyseek.o)
 .ARM.attributes
                0x00000436       0x31 c:/nxp/mcuxpressoide_10.2.1_795/ide/tools/bin/../lib/gcc/arm-none-eabi/7.2.1/../../../../arm-none-eabi/lib/thumb/v6-m\libcr_c.a(_fflush.o)
 .ARM.attributes
                0x00000467       0x31 c:/nxp/mcuxpressoide_10.2.1_795/ide/tools/bin/../lib/gcc/arm-none-eabi/7.2.1/../../../../arm-none-eabi/lib/thumb/v6-m\libcr_c.a(_writebuf.o)
 .ARM.attributes
                0x00000498       0x31 c:/nxp/mcuxpressoide_10.2.1_795/ide/tools/bin/../lib/gcc/arm-none-eabi/7.2.1/../../../../arm-none-eabi/lib/thumb/v6-m\libcr_c.a(alloc.o)
 .ARM.attributes
                0x000004c9       0x31 c:/nxp/mcuxpressoide_10.2.1_795/ide/tools/bin/../lib/gcc/arm-none-eabi/7.2.1/../../../../arm-none-eabi/lib/thumb/v6-m\libcr_c.a(fputs.o)
 .ARM.attributes
                0x000004fa       0x31 c:/nxp/mcuxpressoide_10.2.1_795/ide/tools/bin/../lib/gcc/arm-none-eabi/7.2.1/../../../../arm-none-eabi/lib/thumb/v6-m\libcr_c.a(fseek.o)
 .ARM.attributes
                0x0000052b       0x31 c:/nxp/mcuxpressoide_10.2.1_795/ide/tools/bin/../lib/gcc/arm-none-eabi/7.2.1/../../../../arm-none-eabi/lib/thumb/v6-m\libcr_c.a(ftell.o)
 .ARM.attributes
                0x0000055c       0x31 c:/nxp/mcuxpressoide_10.2.1_795/ide/tools/bin/../lib/gcc/arm-none-eabi/7.2.1/../../../../arm-none-eabi/lib/thumb/v6-m\libcr_c.a(initio.o)
 .ARM.attributes
                0x0000058d       0x31 c:/nxp/mcuxpressoide_10.2.1_795/ide/tools/bin/../lib/gcc/arm-none-eabi/7.2.1/../../../../arm-none-eabi/lib/thumb/v6-m\libcr_c.a(printf.o)
 .ARM.attributes
                0x000005be       0x31 c:/nxp/mcuxpressoide_10.2.1_795/ide/tools/bin/../lib/gcc/arm-none-eabi/7.2.1/../../../../arm-none-eabi/lib/thumb/v6-m\libcr_c.a(setvbuf.o)
 .ARM.attributes
                0x000005ef       0x31 c:/nxp/mcuxpressoide_10.2.1_795/ide/tools/bin/../lib/gcc/arm-none-eabi/7.2.1/../../../../arm-none-eabi/lib/thumb/v6-m\libcr_c.a(strlen.o)
 .ARM.attributes
                0x00000620       0x31 c:/nxp/mcuxpressoide_10.2.1_795/ide/tools/bin/../lib/gcc/arm-none-eabi/7.2.1/../../../../arm-none-eabi/lib/thumb/v6-m\libcr_c.a(__init_alloc.o)
 .ARM.attributes
                0x00000651       0x31 c:/nxp/mcuxpressoide_10.2.1_795/ide/tools/bin/../lib/gcc/arm-none-eabi/7.2.1/../../../../arm-none-eabi/lib/thumb/v6-m\libcr_c.a(_cr_sbrk.o)
 .ARM.attributes
                0x00000682       0x31 c:/nxp/mcuxpressoide_10.2.1_795/ide/tools/bin/../lib/gcc/arm-none-eabi/7.2.1/../../../../arm-none-eabi/lib/thumb/v6-m\libcr_c.a(_fdopen.o)
 .ARM.attributes
                0x000006b3       0x31 c:/nxp/mcuxpressoide_10.2.1_795/ide/tools/bin/../lib/gcc/arm-none-eabi/7.2.1/../../../../arm-none-eabi/lib/thumb/v6-m\libcr_c.a(errno.o)
 .ARM.attributes
                0x000006e4       0x31 c:/nxp/mcuxpressoide_10.2.1_795/ide/tools/bin/../lib/gcc/arm-none-eabi/7.2.1/../../../../arm-none-eabi/lib/thumb/v6-m\libcr_c.a(fclose.o)
 .ARM.attributes
                0x00000715       0x31 c:/nxp/mcuxpressoide_10.2.1_795/ide/tools/bin/../lib/gcc/arm-none-eabi/7.2.1/../../../../arm-none-eabi/lib/thumb/v6-m\libcr_c.a(fflush.o)
 .ARM.attributes
                0x00000746       0x31 c:/nxp/mcuxpressoide_10.2.1_795/ide/tools/bin/../lib/gcc/arm-none-eabi/7.2.1/../../../../arm-none-eabi/lib/thumb/v6-m\libcr_c.a(remove.o)
 .ARM.attributes
                0x00000777       0x31 c:/nxp/mcuxpressoide_10.2.1_795/ide/tools/bin/../lib/gcc/arm-none-eabi/7.2.1/../../../../arm-none-eabi/lib/thumb/v6-m\libcr_c.a(_cr_check_heap.o)
 .ARM.attributes
                0x000007a8       0x31 c:/nxp/mcuxpressoide_10.2.1_795/ide/tools/bin/../lib/gcc/arm-none-eabi/7.2.1/../../../../arm-none-eabi/lib/thumb/v6-m\libcr_c.a(_do_fflush.o)
 .ARM.attributes
                0x000007d9       0x21 c:/nxp/mcuxpressoide_10.2.1_795/ide/tools/bin/../lib/gcc/arm-none-eabi/7.2.1/thumb/v6-m\libcr_eabihelpers.a(division_32.o)
 .ARM.attributes
                0x000007fa       0x21 c:/nxp/mcuxpressoide_10.2.1_795/ide/tools/bin/../lib/gcc/arm-none-eabi/7.2.1/thumb/v6-m\libcr_eabihelpers.a(division_idiv0.o)
 .ARM.attributes
                0x0000081b       0x21 c:/nxp/mcuxpressoide_10.2.1_795/ide/tools/bin/../lib/gcc/arm-none-eabi/7.2.1/thumb/v6-m\libcr_eabihelpers.a(llong.o)
 .ARM.attributes
                0x0000083c       0x21 c:/nxp/mcuxpressoide_10.2.1_795/ide/tools/bin/../lib/gcc/arm-none-eabi/7.2.1/thumb/v6-m\libcr_eabihelpers.a(memcpy.o)
 .ARM.attributes
                0x0000085d       0x21 c:/nxp/mcuxpressoide_10.2.1_795/ide/tools/bin/../lib/gcc/arm-none-eabi/7.2.1/../../../../arm-none-eabi/lib/thumb/v6-m\libcr_semihost_nf.a(__sys_close.o)
 .ARM.attributes
                0x0000087e       0x21 c:/nxp/mcuxpressoide_10.2.1_795/ide/tools/bin/../lib/gcc/arm-none-eabi/7.2.1/../../../../arm-none-eabi/lib/thumb/v6-m\libcr_semihost_nf.a(__sys_flen.o)
 .ARM.attributes
                0x0000089f       0x21 c:/nxp/mcuxpressoide_10.2.1_795/ide/tools/bin/../lib/gcc/arm-none-eabi/7.2.1/../../../../arm-none-eabi/lib/thumb/v6-m\libcr_semihost_nf.a(__sys_istty.o)
 .ARM.attributes
                0x000008c0       0x21 c:/nxp/mcuxpressoide_10.2.1_795/ide/tools/bin/../lib/gcc/arm-none-eabi/7.2.1/../../../../arm-none-eabi/lib/thumb/v6-m\libcr_semihost_nf.a(__sys_remove.o)
 .ARM.attributes
                0x000008e1       0x21 c:/nxp/mcuxpressoide_10.2.1_795/ide/tools/bin/../lib/gcc/arm-none-eabi/7.2.1/../../../../arm-none-eabi/lib/thumb/v6-m\libcr_semihost_nf.a(__sys_seek.o)
 .ARM.attributes
                0x00000902       0x21 c:/nxp/mcuxpressoide_10.2.1_795/ide/tools/bin/../lib/gcc/arm-none-eabi/7.2.1/../../../../arm-none-eabi/lib/thumb/v6-m\libcr_semihost_nf.a(__sys_tmpnam.o)
 .ARM.attributes
                0x00000923       0x21 c:/nxp/mcuxpressoide_10.2.1_795/ide/tools/bin/../lib/gcc/arm-none-eabi/7.2.1/../../../../arm-none-eabi/lib/thumb/v6-m\libcr_semihost_nf.a(__sys_write.o)

.debug_frame    0x00000000     0x1d60
 .debug_frame   0x00000000       0x68 ./utilities/fsl_debug_console.o
 .debug_frame   0x00000068      0x108 ./utilities/fsl_io.o
 .debug_frame   0x00000170      0x108 ./utilities/fsl_log.o
 .debug_frame   0x00000278      0x3b0 ./startup/startup_mkl27z644.o
 .debug_frame   0x00000628       0xc0 ./source/ADC_TERMISTOR.o
 .debug_frame   0x000006e8       0x20 ./source/semihost_hardfault.o
 .debug_frame   0x00000708      0x2dc ./drivers/fsl_clock.o
 .debug_frame   0x000009e4      0x588 ./drivers/fsl_i2c.o
 .debug_frame   0x00000f6c      0x42c ./drivers/fsl_lpuart.o
 .debug_frame   0x00001398      0x434 ./drivers/fsl_uart.o
 .debug_frame   0x000017cc       0x50 ./board/board.o
 .debug_frame   0x0000181c       0xdc ./board/clock_config.o
 .debug_frame   0x000018f8      0x240 ./board/peripherals.o
 .debug_frame   0x00001b38      0x1c0 ./board/pin_mux.o
 .debug_frame   0x00001cf8       0x68 ./CMSIS/system_MKL27Z644.o
