Archive member included to satisfy reference by file (symbol)

c:/nxp/mcuxpressoide_10.1.1_606/ide/tools/bin/../lib/gcc/arm-none-eabi/6.3.1/../../../../arm-none-eabi/lib/thumb/v6-m\libcr_semihost_nf.a(_cr__main.o)
                              ./startup/startup_mkl27z644.o (__main)
c:/nxp/mcuxpressoide_10.1.1_606/ide/tools/bin/../lib/gcc/arm-none-eabi/6.3.1/../../../../arm-none-eabi/lib/thumb/v6-m\libcr_semihost_nf.a(_cr_assert.o)
                              ./drivers/fsl_clock.o (__assertion_failed)
c:/nxp/mcuxpressoide_10.1.1_606/ide/tools/bin/../lib/gcc/arm-none-eabi/6.3.1/../../../../arm-none-eabi/lib/thumb/v6-m\libcr_semihost_nf.a(__ciob.o)
                              c:/nxp/mcuxpressoide_10.1.1_606/ide/tools/bin/../lib/gcc/arm-none-eabi/6.3.1/../../../../arm-none-eabi/lib/thumb/v6-m\libcr_semihost_nf.a(_cr_assert.o) (__Ciob)
c:/nxp/mcuxpressoide_10.1.1_606/ide/tools/bin/../lib/gcc/arm-none-eabi/6.3.1/../../../../arm-none-eabi/lib/thumb/v6-m\libcr_semihost_nf.a(__sys_appexit.o)
                              c:/nxp/mcuxpressoide_10.1.1_606/ide/tools/bin/../lib/gcc/arm-none-eabi/6.3.1/../../../../arm-none-eabi/lib/thumb/v6-m\libcr_semihost_nf.a(_cr_assert.o) (__sys_appexit)
c:/nxp/mcuxpressoide_10.1.1_606/ide/tools/bin/../lib/gcc/arm-none-eabi/6.3.1/../../../../arm-none-eabi/lib/thumb/v6-m\libcr_c.a(memcpy.o)
                              ./drivers/fsl_flash.o (memcpy)
c:/nxp/mcuxpressoide_10.1.1_606/ide/tools/bin/../lib/gcc/arm-none-eabi/6.3.1/../../../../arm-none-eabi/lib/thumb/v6-m\libcr_c.a(memset.o)
                              ./drivers/fsl_flash.o (memset)
c:/nxp/mcuxpressoide_10.1.1_606/ide/tools/bin/../lib/gcc/arm-none-eabi/6.3.1/../../../../arm-none-eabi/lib/thumb/v6-m\libcr_c.a(_deferredlazyseek.o)
                              c:/nxp/mcuxpressoide_10.1.1_606/ide/tools/bin/../lib/gcc/arm-none-eabi/6.3.1/../../../../arm-none-eabi/lib/thumb/v6-m\libcr_semihost_nf.a(_cr_assert.o) (__flsbuf)
c:/nxp/mcuxpressoide_10.1.1_606/ide/tools/bin/../lib/gcc/arm-none-eabi/6.3.1/../../../../arm-none-eabi/lib/thumb/v6-m\libcr_c.a(_fflush.o)
                              c:/nxp/mcuxpressoide_10.1.1_606/ide/tools/bin/../lib/gcc/arm-none-eabi/6.3.1/../../../../arm-none-eabi/lib/thumb/v6-m\libcr_c.a(_deferredlazyseek.o) (_fflush)
c:/nxp/mcuxpressoide_10.1.1_606/ide/tools/bin/../lib/gcc/arm-none-eabi/6.3.1/../../../../arm-none-eabi/lib/thumb/v6-m\libcr_c.a(_writebuf.o)
                              c:/nxp/mcuxpressoide_10.1.1_606/ide/tools/bin/../lib/gcc/arm-none-eabi/6.3.1/../../../../arm-none-eabi/lib/thumb/v6-m\libcr_c.a(_deferredlazyseek.o) (_Cwritebuf)
c:/nxp/mcuxpressoide_10.1.1_606/ide/tools/bin/../lib/gcc/arm-none-eabi/6.3.1/../../../../arm-none-eabi/lib/thumb/v6-m\libcr_c.a(alloc.o)
                              c:/nxp/mcuxpressoide_10.1.1_606/ide/tools/bin/../lib/gcc/arm-none-eabi/6.3.1/../../../../arm-none-eabi/lib/thumb/v6-m\libcr_c.a(_deferredlazyseek.o) (_Csys_alloc)
c:/nxp/mcuxpressoide_10.1.1_606/ide/tools/bin/../lib/gcc/arm-none-eabi/6.3.1/../../../../arm-none-eabi/lib/thumb/v6-m\libcr_c.a(fputs.o)
                              c:/nxp/mcuxpressoide_10.1.1_606/ide/tools/bin/../lib/gcc/arm-none-eabi/6.3.1/../../../../arm-none-eabi/lib/thumb/v6-m\libcr_semihost_nf.a(_cr_assert.o) (fputs)
c:/nxp/mcuxpressoide_10.1.1_606/ide/tools/bin/../lib/gcc/arm-none-eabi/6.3.1/../../../../arm-none-eabi/lib/thumb/v6-m\libcr_c.a(fseek.o)
                              c:/nxp/mcuxpressoide_10.1.1_606/ide/tools/bin/../lib/gcc/arm-none-eabi/6.3.1/../../../../arm-none-eabi/lib/thumb/v6-m\libcr_c.a(_deferredlazyseek.o) (fseek)
c:/nxp/mcuxpressoide_10.1.1_606/ide/tools/bin/../lib/gcc/arm-none-eabi/6.3.1/../../../../arm-none-eabi/lib/thumb/v6-m\libcr_c.a(ftell.o)
                              c:/nxp/mcuxpressoide_10.1.1_606/ide/tools/bin/../lib/gcc/arm-none-eabi/6.3.1/../../../../arm-none-eabi/lib/thumb/v6-m\libcr_c.a(fseek.o) (ftell)
c:/nxp/mcuxpressoide_10.1.1_606/ide/tools/bin/../lib/gcc/arm-none-eabi/6.3.1/../../../../arm-none-eabi/lib/thumb/v6-m\libcr_c.a(initio.o)
                              c:/nxp/mcuxpressoide_10.1.1_606/ide/tools/bin/../lib/gcc/arm-none-eabi/6.3.1/../../../../arm-none-eabi/lib/thumb/v6-m\libcr_semihost_nf.a(_cr__main.o) (_initio)
c:/nxp/mcuxpressoide_10.1.1_606/ide/tools/bin/../lib/gcc/arm-none-eabi/6.3.1/../../../../arm-none-eabi/lib/thumb/v6-m\libcr_c.a(printf.o)
                              ./source/ADC_test.o (_printf)
c:/nxp/mcuxpressoide_10.1.1_606/ide/tools/bin/../lib/gcc/arm-none-eabi/6.3.1/../../../../arm-none-eabi/lib/thumb/v6-m\libcr_c.a(setvbuf.o)
                              c:/nxp/mcuxpressoide_10.1.1_606/ide/tools/bin/../lib/gcc/arm-none-eabi/6.3.1/../../../../arm-none-eabi/lib/thumb/v6-m\libcr_c.a(initio.o) (setvbuf)
c:/nxp/mcuxpressoide_10.1.1_606/ide/tools/bin/../lib/gcc/arm-none-eabi/6.3.1/../../../../arm-none-eabi/lib/thumb/v6-m\libcr_c.a(strlen.o)
                              c:/nxp/mcuxpressoide_10.1.1_606/ide/tools/bin/../lib/gcc/arm-none-eabi/6.3.1/../../../../arm-none-eabi/lib/thumb/v6-m\libcr_c.a(printf.o) (strlen)
c:/nxp/mcuxpressoide_10.1.1_606/ide/tools/bin/../lib/gcc/arm-none-eabi/6.3.1/../../../../arm-none-eabi/lib/thumb/v6-m\libcr_c.a(__init_alloc.o)
                              c:/nxp/mcuxpressoide_10.1.1_606/ide/tools/bin/../lib/gcc/arm-none-eabi/6.3.1/../../../../arm-none-eabi/lib/thumb/v6-m\libcr_c.a(alloc.o) (__heaps)
c:/nxp/mcuxpressoide_10.1.1_606/ide/tools/bin/../lib/gcc/arm-none-eabi/6.3.1/../../../../arm-none-eabi/lib/thumb/v6-m\libcr_c.a(_cr_sbrk.o)
                              c:/nxp/mcuxpressoide_10.1.1_606/ide/tools/bin/../lib/gcc/arm-none-eabi/6.3.1/../../../../arm-none-eabi/lib/thumb/v6-m\libcr_c.a(alloc.o) (_sbrk)
c:/nxp/mcuxpressoide_10.1.1_606/ide/tools/bin/../lib/gcc/arm-none-eabi/6.3.1/../../../../arm-none-eabi/lib/thumb/v6-m\libcr_c.a(_fdopen.o)
                              c:/nxp/mcuxpressoide_10.1.1_606/ide/tools/bin/../lib/gcc/arm-none-eabi/6.3.1/../../../../arm-none-eabi/lib/thumb/v6-m\libcr_c.a(initio.o) (_fdopen)
c:/nxp/mcuxpressoide_10.1.1_606/ide/tools/bin/../lib/gcc/arm-none-eabi/6.3.1/../../../../arm-none-eabi/lib/thumb/v6-m\libcr_c.a(errno.o)
                              c:/nxp/mcuxpressoide_10.1.1_606/ide/tools/bin/../lib/gcc/arm-none-eabi/6.3.1/../../../../arm-none-eabi/lib/thumb/v6-m\libcr_c.a(ftell.o) (errno)
c:/nxp/mcuxpressoide_10.1.1_606/ide/tools/bin/../lib/gcc/arm-none-eabi/6.3.1/../../../../arm-none-eabi/lib/thumb/v6-m\libcr_c.a(fclose.o)
                              c:/nxp/mcuxpressoide_10.1.1_606/ide/tools/bin/../lib/gcc/arm-none-eabi/6.3.1/../../../../arm-none-eabi/lib/thumb/v6-m\libcr_c.a(initio.o) (fclose)
c:/nxp/mcuxpressoide_10.1.1_606/ide/tools/bin/../lib/gcc/arm-none-eabi/6.3.1/../../../../arm-none-eabi/lib/thumb/v6-m\libcr_c.a(fflush.o)
                              c:/nxp/mcuxpressoide_10.1.1_606/ide/tools/bin/../lib/gcc/arm-none-eabi/6.3.1/../../../../arm-none-eabi/lib/thumb/v6-m\libcr_c.a(fclose.o) (fflush)
c:/nxp/mcuxpressoide_10.1.1_606/ide/tools/bin/../lib/gcc/arm-none-eabi/6.3.1/../../../../arm-none-eabi/lib/thumb/v6-m\libcr_c.a(remove.o)
                              c:/nxp/mcuxpressoide_10.1.1_606/ide/tools/bin/../lib/gcc/arm-none-eabi/6.3.1/../../../../arm-none-eabi/lib/thumb/v6-m\libcr_c.a(fclose.o) (remove)
c:/nxp/mcuxpressoide_10.1.1_606/ide/tools/bin/../lib/gcc/arm-none-eabi/6.3.1/../../../../arm-none-eabi/lib/thumb/v6-m\libcr_c.a(_cr_check_heap.o)
                              c:/nxp/mcuxpressoide_10.1.1_606/ide/tools/bin/../lib/gcc/arm-none-eabi/6.3.1/../../../../arm-none-eabi/lib/thumb/v6-m\libcr_c.a(_cr_sbrk.o) (__check_heap_overflow)
c:/nxp/mcuxpressoide_10.1.1_606/ide/tools/bin/../lib/gcc/arm-none-eabi/6.3.1/../../../../arm-none-eabi/lib/thumb/v6-m\libcr_c.a(_do_fflush.o)
                              c:/nxp/mcuxpressoide_10.1.1_606/ide/tools/bin/../lib/gcc/arm-none-eabi/6.3.1/../../../../arm-none-eabi/lib/thumb/v6-m\libcr_c.a(fflush.o) (_do_fflush)
c:/nxp/mcuxpressoide_10.1.1_606/ide/tools/bin/../lib/gcc/arm-none-eabi/6.3.1/thumb/v6-m\libcr_eabihelpers.a(division_32.o)
                              ./drivers/fsl_clock.o (__aeabi_uidiv)
c:/nxp/mcuxpressoide_10.1.1_606/ide/tools/bin/../lib/gcc/arm-none-eabi/6.3.1/thumb/v6-m\libcr_eabihelpers.a(division_idiv0.o)
                              c:/nxp/mcuxpressoide_10.1.1_606/ide/tools/bin/../lib/gcc/arm-none-eabi/6.3.1/thumb/v6-m\libcr_eabihelpers.a(division_32.o) (__aeabi_idiv0)
c:/nxp/mcuxpressoide_10.1.1_606/ide/tools/bin/../lib/gcc/arm-none-eabi/6.3.1/thumb/v6-m\libcr_eabihelpers.a(llong.o)
                              c:/nxp/mcuxpressoide_10.1.1_606/ide/tools/bin/../lib/gcc/arm-none-eabi/6.3.1/../../../../arm-none-eabi/lib/thumb/v6-m\libcr_c.a(printf.o) (__aeabi_lmul)
c:/nxp/mcuxpressoide_10.1.1_606/ide/tools/bin/../lib/gcc/arm-none-eabi/6.3.1/thumb/v6-m\libcr_eabihelpers.a(memcpy.o)
                              c:/nxp/mcuxpressoide_10.1.1_606/ide/tools/bin/../lib/gcc/arm-none-eabi/6.3.1/../../../../arm-none-eabi/lib/thumb/v6-m\libcr_c.a(memcpy.o) (__aeabi_memcpy)
c:/nxp/mcuxpressoide_10.1.1_606/ide/tools/bin/../lib/gcc/arm-none-eabi/6.3.1/../../../../arm-none-eabi/lib/thumb/v6-m\libcr_semihost_nf.a(__sys_close.o)
                              c:/nxp/mcuxpressoide_10.1.1_606/ide/tools/bin/../lib/gcc/arm-none-eabi/6.3.1/../../../../arm-none-eabi/lib/thumb/v6-m\libcr_c.a(fclose.o) (__sys_close)
c:/nxp/mcuxpressoide_10.1.1_606/ide/tools/bin/../lib/gcc/arm-none-eabi/6.3.1/../../../../arm-none-eabi/lib/thumb/v6-m\libcr_semihost_nf.a(__sys_flen.o)
                              c:/nxp/mcuxpressoide_10.1.1_606/ide/tools/bin/../lib/gcc/arm-none-eabi/6.3.1/../../../../arm-none-eabi/lib/thumb/v6-m\libcr_c.a(_writebuf.o) (__sys_flen)
c:/nxp/mcuxpressoide_10.1.1_606/ide/tools/bin/../lib/gcc/arm-none-eabi/6.3.1/../../../../arm-none-eabi/lib/thumb/v6-m\libcr_semihost_nf.a(__sys_istty.o)
                              c:/nxp/mcuxpressoide_10.1.1_606/ide/tools/bin/../lib/gcc/arm-none-eabi/6.3.1/../../../../arm-none-eabi/lib/thumb/v6-m\libcr_c.a(_deferredlazyseek.o) (__sys_istty)
c:/nxp/mcuxpressoide_10.1.1_606/ide/tools/bin/../lib/gcc/arm-none-eabi/6.3.1/../../../../arm-none-eabi/lib/thumb/v6-m\libcr_semihost_nf.a(__sys_remove.o)
                              c:/nxp/mcuxpressoide_10.1.1_606/ide/tools/bin/../lib/gcc/arm-none-eabi/6.3.1/../../../../arm-none-eabi/lib/thumb/v6-m\libcr_c.a(remove.o) (__sys_remove)
c:/nxp/mcuxpressoide_10.1.1_606/ide/tools/bin/../lib/gcc/arm-none-eabi/6.3.1/../../../../arm-none-eabi/lib/thumb/v6-m\libcr_semihost_nf.a(__sys_rename.o)
                              c:/nxp/mcuxpressoide_10.1.1_606/ide/tools/bin/../lib/gcc/arm-none-eabi/6.3.1/../../../../arm-none-eabi/lib/thumb/v6-m\libcr_c.a(remove.o) (__sys_rename)
c:/nxp/mcuxpressoide_10.1.1_606/ide/tools/bin/../lib/gcc/arm-none-eabi/6.3.1/../../../../arm-none-eabi/lib/thumb/v6-m\libcr_semihost_nf.a(__sys_seek.o)
                              c:/nxp/mcuxpressoide_10.1.1_606/ide/tools/bin/../lib/gcc/arm-none-eabi/6.3.1/../../../../arm-none-eabi/lib/thumb/v6-m\libcr_c.a(_writebuf.o) (__sys_seek)
c:/nxp/mcuxpressoide_10.1.1_606/ide/tools/bin/../lib/gcc/arm-none-eabi/6.3.1/../../../../arm-none-eabi/lib/thumb/v6-m\libcr_semihost_nf.a(__sys_tmpnam.o)
                              c:/nxp/mcuxpressoide_10.1.1_606/ide/tools/bin/../lib/gcc/arm-none-eabi/6.3.1/../../../../arm-none-eabi/lib/thumb/v6-m\libcr_c.a(fclose.o) (__sys_tmpnam)
c:/nxp/mcuxpressoide_10.1.1_606/ide/tools/bin/../lib/gcc/arm-none-eabi/6.3.1/../../../../arm-none-eabi/lib/thumb/v6-m\libcr_semihost_nf.a(__sys_write.o)
                              c:/nxp/mcuxpressoide_10.1.1_606/ide/tools/bin/../lib/gcc/arm-none-eabi/6.3.1/../../../../arm-none-eabi/lib/thumb/v6-m\libcr_c.a(_writebuf.o) (__sys_write)

Discarded input sections

 .group         0x00000000        0x8 ./utilities/fsl_debug_console.o
 .group         0x00000000        0x8 ./utilities/fsl_debug_console.o
 .group         0x00000000        0x8 ./utilities/fsl_debug_console.o
 .group         0x00000000        0x8 ./utilities/fsl_debug_console.o
 .group         0x00000000        0x8 ./utilities/fsl_debug_console.o
 .group         0x00000000        0x8 ./utilities/fsl_debug_console.o
 .group         0x00000000        0x8 ./utilities/fsl_debug_console.o
 .group         0x00000000        0x8 ./utilities/fsl_debug_console.o
 .group         0x00000000        0x8 ./utilities/fsl_debug_console.o
 .group         0x00000000        0x8 ./utilities/fsl_debug_console.o
 .group         0x00000000        0x8 ./utilities/fsl_debug_console.o
 .group         0x00000000        0x8 ./utilities/fsl_debug_console.o
 .group         0x00000000        0x8 ./utilities/fsl_debug_console.o
 .group         0x00000000        0x8 ./utilities/fsl_debug_console.o
 .group         0x00000000        0x8 ./utilities/fsl_debug_console.o
 .group         0x00000000        0x8 ./utilities/fsl_debug_console.o
 .group         0x00000000        0x8 ./utilities/fsl_debug_console.o
 .group         0x00000000        0x8 ./utilities/fsl_debug_console.o
Memory Configuration

Name             Origin             Length             Attributes
PROGRAM_FLASH    0x00000000         0x00010000         xr
SRAM             0x1ffff000         0x00004000         xrw
USB_RAM          0x400fe000         0x00000200         xrw
*default*        0x00000000         0xffffffff

Linker script and memory map

LOAD ./utilities/fsl_debug_console.o
LOAD ./startup/startup_mkl27z644.o
LOAD ./source/ADC_test.o
LOAD ./source/mtb.o
LOAD ./source/semihost_hardfault.o
LOAD ./drivers/fsl_clock.o
LOAD ./drivers/fsl_common.o
LOAD ./drivers/fsl_flash.o
LOAD ./drivers/fsl_gpio.o
LOAD ./drivers/fsl_lpuart.o
LOAD ./drivers/fsl_smc.o
LOAD ./drivers/fsl_uart.o
LOAD ./board/board.o
LOAD ./board/clock_config.o
LOAD ./board/peripherals.o
LOAD ./board/pin_mux.o
LOAD ./CMSIS/system_MKL27Z644.o
START GROUP
LOAD c:/nxp/mcuxpressoide_10.1.1_606/ide/tools/bin/../lib/gcc/arm-none-eabi/6.3.1/../../../../arm-none-eabi/lib/thumb/v6-m\libcr_semihost_nf.a
LOAD c:/nxp/mcuxpressoide_10.1.1_606/ide/tools/bin/../lib/gcc/arm-none-eabi/6.3.1/../../../../arm-none-eabi/lib/thumb/v6-m\libcr_c.a
LOAD c:/nxp/mcuxpressoide_10.1.1_606/ide/tools/bin/../lib/gcc/arm-none-eabi/6.3.1/thumb/v6-m\libcr_eabihelpers.a
END GROUP
                0x00000000                __base_PROGRAM_FLASH = 0x0
                0x00000000                __base_Flash = 0x0
                0x00010000                __top_PROGRAM_FLASH = 0x10000
                0x00010000                __top_Flash = 0x10000
                0x1ffff000                __base_SRAM = 0x1ffff000
                0x1ffff000                __base_RAM = 0x1ffff000
                0x20003000                __top_SRAM = 0x20003000
                0x20003000                __top_RAM = 0x20003000
                0x400fe000                __base_USB_RAM = 0x400fe000
                0x400fe000                __base_RAM2 = 0x400fe000
                0x400fe200                __top_USB_RAM = 0x400fe200
                0x400fe200                __top_RAM2 = 0x400fe200

.text           0x00000000     0x369c
 FILL mask 0xff
                0x00000000                __vectors_start__ = ABSOLUTE (.)
 *(.isr_vector)
 .isr_vector    0x00000000       0xc0 ./startup/startup_mkl27z644.o
                0x00000000                g_pfnVectors
                0x00000000                __Vectors
                0x000000c0                . = ALIGN (0x4)
                0x000000c0                __section_table_start = .
                0x000000c0                __data_section_table = .
                0x000000c0        0x4 LONG 0x369c LOADADDR (.data)
                0x000000c4        0x4 LONG 0x1ffff080 ADDR (.data)
                0x000000c8        0x4 LONG 0x4 SIZEOF (.data)
                0x000000cc        0x4 LONG 0x369c LOADADDR (.data_RAM2)
                0x000000d0        0x4 LONG 0x400fe000 ADDR (.data_RAM2)
                0x000000d4        0x4 LONG 0x0 SIZEOF (.data_RAM2)
                0x000000d8                __data_section_table_end = .
                0x000000d8                __bss_section_table = .
                0x000000d8        0x4 LONG 0x1ffff084 ADDR (.bss)
                0x000000dc        0x4 LONG 0xe0 SIZEOF (.bss)
                0x000000e0        0x4 LONG 0x400fe000 ADDR (.bss_RAM2)
                0x000000e4        0x4 LONG 0x0 SIZEOF (.bss_RAM2)
                0x000000e8                __bss_section_table_end = .
                0x000000e8                __section_table_end = .
 *(.after_vectors*)
 .after_vectors.init_data
                0x000000e8       0x16 ./startup/startup_mkl27z644.o
                0x000000e8                data_init
 .after_vectors.init_bss
                0x000000fe       0x12 ./startup/startup_mkl27z644.o
                0x000000fe                bss_init
 .after_vectors.reset
                0x00000110       0x4c ./startup/startup_mkl27z644.o
                0x00000110                ResetISR
 .after_vectors
                0x0000015c      0x10c ./startup/startup_mkl27z644.o
                0x0000015c                NMI_Handler
                0x00000160                SVC_Handler
                0x00000162                PendSV_Handler
                0x00000164                SysTick_Handler
                0x00000166                PIT_DriverIRQHandler
                0x00000166                SPI1_DriverIRQHandler
                0x00000166                LPTMR0_DriverIRQHandler
                0x00000166                DMA0_DriverIRQHandler
                0x00000166                I2C0_DriverIRQHandler
                0x00000166                Reserved39_DriverIRQHandler
                0x00000166                Reserved42_DriverIRQHandler
                0x00000166                Reserved43_DriverIRQHandler
                0x00000166                DMA2_DriverIRQHandler
                0x00000166                TPM2_DriverIRQHandler
                0x00000166                CMP0_DriverIRQHandler
                0x00000166                ADC0_DriverIRQHandler
                0x00000166                RTC_Seconds_DriverIRQHandler
                0x00000166                LLWU_DriverIRQHandler
                0x00000166                SPI0_DriverIRQHandler
                0x00000166                I2C1_DriverIRQHandler
                0x00000166                PORTB_PORTC_PORTD_PORTE_DriverIRQHandler
                0x00000166                DMA1_DriverIRQHandler
                0x00000166                FTFA_DriverIRQHandler
                0x00000166                IntDefaultHandler
                0x00000166                USB0_DriverIRQHandler
                0x00000166                Reserved41_DriverIRQHandler
                0x00000166                TPM0_DriverIRQHandler
                0x00000166                PMC_DriverIRQHandler
                0x00000166                RTC_DriverIRQHandler
                0x00000166                TPM1_DriverIRQHandler
                0x00000166                Reserved20_DriverIRQHandler
                0x00000166                DMA3_DriverIRQHandler
                0x00000166                PORTA_DriverIRQHandler
                0x00000166                Reserved45_DriverIRQHandler
                0x00000166                UART2_FLEXIO_DriverIRQHandler
                0x00000168                DMA0_IRQHandler
                0x00000170                DMA1_IRQHandler
                0x00000178                DMA2_IRQHandler
                0x00000180                DMA3_IRQHandler
                0x00000188                Reserved20_IRQHandler
                0x00000190                FTFA_IRQHandler
                0x00000198                PMC_IRQHandler
                0x000001a0                LLWU_IRQHandler
                0x000001a8                I2C0_IRQHandler
                0x000001b0                I2C1_IRQHandler
                0x000001b8                SPI0_IRQHandler
                0x000001c0                SPI1_IRQHandler
                0x000001c8                LPUART0_IRQHandler
                0x000001d0                LPUART1_IRQHandler
                0x000001d8                UART2_FLEXIO_IRQHandler
                0x000001e8                CMP0_IRQHandler
                0x000001f0                TPM0_IRQHandler
                0x000001f8                TPM1_IRQHandler
                0x00000200                TPM2_IRQHandler
                0x00000208                RTC_IRQHandler
                0x00000210                RTC_Seconds_IRQHandler
                0x00000218                PIT_IRQHandler
                0x00000220                Reserved39_IRQHandler
                0x00000228                USB0_IRQHandler
                0x00000230                Reserved41_IRQHandler
                0x00000238                Reserved42_IRQHandler
                0x00000240                Reserved43_IRQHandler
                0x00000248                LPTMR0_IRQHandler
                0x00000250                Reserved45_IRQHandler
                0x00000258                PORTA_IRQHandler
                0x00000260                PORTB_PORTC_PORTD_PORTE_IRQHandler
                0x00000400                . = 0x400
 *fill*         0x00000268      0x198 ff
                0x00000400                PROVIDE (__FLASH_CONFIG_START__, .)
 *(.FlashConfig)
 .FlashConfig   0x00000400       0x10 ./startup/startup_mkl27z644.o
                0x00000400                Flash_Config
                0x00000410                PROVIDE (__FLASH_CONFIG_END__, .)
                0x00000001                ASSERT (! ((__FLASH_CONFIG_START__ == __FLASH_CONFIG_END__)), Linker Flash Config Support Enabled, but no .FlashConfig section provided within application)
 *(.text*)
 .text.UART_EnableTx
                0x00000410       0x40 ./utilities/fsl_debug_console.o
 .text.UART_EnableRx
                0x00000450       0x40 ./utilities/fsl_debug_console.o
 .text.LPUART_EnableTx
                0x00000490       0x40 ./utilities/fsl_debug_console.o
 .text.LPUART_EnableRx
                0x000004d0       0x40 ./utilities/fsl_debug_console.o
 .text.DbgConsole_Init
                0x00000510       0xf4 ./utilities/fsl_debug_console.o
                0x00000510                DbgConsole_Init
 .text.NVIC_EnableIRQ
                0x00000604       0x2c ./source/ADC_test.o
 .text.ADC0_IRQHandler
                0x00000630       0x28 ./source/ADC_test.o
                0x00000630                ADC0_IRQHandler
 .text.main     0x00000658      0x148 ./source/ADC_test.o
                0x00000658                main
 .text.HardFault_Handler
                0x000007a0       0x2c ./source/semihost_hardfault.o
                0x000007a0                HardFault_Handler
 .text.CLOCK_SetEr32kClock
                0x000007cc       0x30 ./drivers/fsl_clock.o
 .text.CLOCK_SetSimConfig
                0x000007fc       0x2c ./drivers/fsl_clock.o
                0x000007fc                CLOCK_SetSimConfig
 .text.CLOCK_GetPeriphClkFreq
                0x00000828       0x34 ./drivers/fsl_clock.o
                0x00000828                CLOCK_GetPeriphClkFreq
 .text.CLOCK_SetMcgliteConfig
                0x0000085c      0x110 ./drivers/fsl_clock.o
                0x0000085c                CLOCK_SetMcgliteConfig
 .text.CLOCK_EnableClock
                0x0000096c       0x38 ./drivers/fsl_lpuart.o
 .text.LPUART_GetInstance
                0x000009a4       0x4c ./drivers/fsl_lpuart.o
                0x000009a4                LPUART_GetInstance
 .text.LPUART_Init
                0x000009f0      0x294 ./drivers/fsl_lpuart.o
                0x000009f0                LPUART_Init
 .text.LPUART_GetDefaultConfig
                0x00000c84       0x50 ./drivers/fsl_lpuart.o
                0x00000c84                LPUART_GetDefaultConfig
 .text.LPUART_GetStatusFlags
                0x00000cd4       0x18 ./drivers/fsl_lpuart.o
                0x00000cd4                LPUART_GetStatusFlags
 .text.LPUART_ClearStatusFlags
                0x00000cec       0x88 ./drivers/fsl_lpuart.o
                0x00000cec                LPUART_ClearStatusFlags
 .text.LPUART_WriteBlocking
                0x00000d74       0x4c ./drivers/fsl_lpuart.o
                0x00000d74                LPUART_WriteBlocking
 .text.LPUART_ReadBlocking
                0x00000dc0       0xd8 ./drivers/fsl_lpuart.o
                0x00000dc0                LPUART_ReadBlocking
 .text.LPUART0_DriverIRQHandler
                0x00000e98       0x24 ./drivers/fsl_lpuart.o
                0x00000e98                LPUART0_DriverIRQHandler
 .text.LPUART1_DriverIRQHandler
                0x00000ebc       0x24 ./drivers/fsl_lpuart.o
                0x00000ebc                LPUART1_DriverIRQHandler
 .text.CLOCK_EnableClock
                0x00000ee0       0x38 ./drivers/fsl_uart.o
 .text.UART_GetInstance
                0x00000f18       0x54 ./drivers/fsl_uart.o
                0x00000f18                UART_GetInstance
 .text.UART_Init
                0x00000f6c      0x1fc ./drivers/fsl_uart.o
                0x00000f6c                UART_Init
 .text.UART_GetDefaultConfig
                0x00001168       0x3c ./drivers/fsl_uart.o
                0x00001168                UART_GetDefaultConfig
 .text.UART_GetStatusFlags
                0x000011a4       0x26 ./drivers/fsl_uart.o
                0x000011a4                UART_GetStatusFlags
 .text.UART_WriteBlocking
                0x000011ca       0x3a ./drivers/fsl_uart.o
                0x000011ca                UART_WriteBlocking
 .text.UART_ReadBlocking
                0x00001204       0x98 ./drivers/fsl_uart.o
                0x00001204                UART_ReadBlocking
 .text.CLOCK_SetLpuart0Clock
                0x0000129c       0x38 ./board/board.o
 .text.BOARD_InitDebugConsole
                0x000012d4       0x30 ./board/board.o
                0x000012d4                BOARD_InitDebugConsole
 .text.CLOCK_SetSimSafeDivs
                0x00001304       0x20 ./board/clock_config.o
 .text.BOARD_InitBootClocks
                0x00001324        0xe ./board/clock_config.o
                0x00001324                BOARD_InitBootClocks
 *fill*         0x00001332        0x2 ff
 .text.BOARD_BootClockRUN
                0x00001334       0x34 ./board/clock_config.o
                0x00001334                BOARD_BootClockRUN
 .text.BOARD_InitBootPeripherals
                0x00001368        0xa ./board/peripherals.o
                0x00001368                BOARD_InitBootPeripherals
 *fill*         0x00001372        0x2 ff
 .text.CLOCK_EnableClock
                0x00001374       0x38 ./board/pin_mux.o
 .text.PORT_SetPinMux
                0x000013ac       0x40 ./board/pin_mux.o
 .text.BOARD_InitBootPins
                0x000013ec        0xe ./board/pin_mux.o
                0x000013ec                BOARD_InitBootPins
 *fill*         0x000013fa        0x2 ff
 .text.BOARD_InitPins
                0x000013fc       0x4c ./board/pin_mux.o
                0x000013fc                BOARD_InitPins
 .text.SystemInit
                0x00001448       0x3c ./CMSIS/system_MKL27Z644.o
                0x00001448                SystemInit
 .text.__main   0x00001484        0xc c:/nxp/mcuxpressoide_10.1.1_606/ide/tools/bin/../lib/gcc/arm-none-eabi/6.3.1/../../../../arm-none-eabi/lib/thumb/v6-m\libcr_semihost_nf.a(_cr__main.o)
                0x00001484                __CR_SEMIHOST
                0x00001484                __main
 .text.__assertion_failed
                0x00001490       0x4c c:/nxp/mcuxpressoide_10.1.1_606/ide/tools/bin/../lib/gcc/arm-none-eabi/6.3.1/../../../../arm-none-eabi/lib/thumb/v6-m\libcr_semihost_nf.a(_cr_assert.o)
                0x00001490                __assertion_failed
 .text.__sys_appexit
                0x000014dc        0xc c:/nxp/mcuxpressoide_10.1.1_606/ide/tools/bin/../lib/gcc/arm-none-eabi/6.3.1/../../../../arm-none-eabi/lib/thumb/v6-m\libcr_semihost_nf.a(__sys_appexit.o)
                0x000014dc                __sys_appexit
                0x000014dc                __exit
 .text.memset   0x000014e8        0x8 c:/nxp/mcuxpressoide_10.1.1_606/ide/tools/bin/../lib/gcc/arm-none-eabi/6.3.1/../../../../arm-none-eabi/lib/thumb/v6-m\libcr_c.a(memset.o)
                0x000014e8                memset
 .text._deferredlazyseek
                0x000014f0       0x40 c:/nxp/mcuxpressoide_10.1.1_606/ide/tools/bin/../lib/gcc/arm-none-eabi/6.3.1/../../../../arm-none-eabi/lib/thumb/v6-m\libcr_c.a(_deferredlazyseek.o)
                0x000014f0                _deferredlazyseek
 .text.__flsbuf
                0x00001530      0x150 c:/nxp/mcuxpressoide_10.1.1_606/ide/tools/bin/../lib/gcc/arm-none-eabi/6.3.1/../../../../arm-none-eabi/lib/thumb/v6-m\libcr_c.a(_deferredlazyseek.o)
                0x00001530                __flsbuf
 .text._fflush  0x00001680       0x5c c:/nxp/mcuxpressoide_10.1.1_606/ide/tools/bin/../lib/gcc/arm-none-eabi/6.3.1/../../../../arm-none-eabi/lib/thumb/v6-m\libcr_c.a(_fflush.o)
                0x00001680                _fflush
 .text._Cwritebuf
                0x000016dc       0x68 c:/nxp/mcuxpressoide_10.1.1_606/ide/tools/bin/../lib/gcc/arm-none-eabi/6.3.1/../../../../arm-none-eabi/lib/thumb/v6-m\libcr_c.a(_writebuf.o)
                0x000016dc                _Cwritebuf
 .text.malloc   0x00001744       0xcc c:/nxp/mcuxpressoide_10.1.1_606/ide/tools/bin/../lib/gcc/arm-none-eabi/6.3.1/../../../../arm-none-eabi/lib/thumb/v6-m\libcr_c.a(alloc.o)
                0x00001744                malloc
 .text.free     0x00001810       0x2c c:/nxp/mcuxpressoide_10.1.1_606/ide/tools/bin/../lib/gcc/arm-none-eabi/6.3.1/../../../../arm-none-eabi/lib/thumb/v6-m\libcr_c.a(alloc.o)
                0x00001810                free
 .text._Csys_alloc
                0x0000183c       0x20 c:/nxp/mcuxpressoide_10.1.1_606/ide/tools/bin/../lib/gcc/arm-none-eabi/6.3.1/../../../../arm-none-eabi/lib/thumb/v6-m\libcr_c.a(alloc.o)
                0x0000183c                _Csys_alloc
 .text.fputs    0x0000185c       0x2e c:/nxp/mcuxpressoide_10.1.1_606/ide/tools/bin/../lib/gcc/arm-none-eabi/6.3.1/../../../../arm-none-eabi/lib/thumb/v6-m\libcr_c.a(fputs.o)
                0x0000185c                fputs
 *fill*         0x0000188a        0x2 ff
 .text.fseek    0x0000188c       0xf0 c:/nxp/mcuxpressoide_10.1.1_606/ide/tools/bin/../lib/gcc/arm-none-eabi/6.3.1/../../../../arm-none-eabi/lib/thumb/v6-m\libcr_c.a(fseek.o)
                0x0000188c                fseek
 .text.ftell    0x0000197c       0x48 c:/nxp/mcuxpressoide_10.1.1_606/ide/tools/bin/../lib/gcc/arm-none-eabi/6.3.1/../../../../arm-none-eabi/lib/thumb/v6-m\libcr_c.a(ftell.o)
                0x0000197c                ftell
 .text._initio  0x000019c4       0x7c c:/nxp/mcuxpressoide_10.1.1_606/ide/tools/bin/../lib/gcc/arm-none-eabi/6.3.1/../../../../arm-none-eabi/lib/thumb/v6-m\libcr_c.a(initio.o)
                0x000019c4                _initio
 .text.no_fp_display
                0x00001a40        0x4 c:/nxp/mcuxpressoide_10.1.1_606/ide/tools/bin/../lib/gcc/arm-none-eabi/6.3.1/../../../../arm-none-eabi/lib/thumb/v6-m\libcr_c.a(printf.o)
 .text.__vfprintf
                0x00001a44      0xce0 c:/nxp/mcuxpressoide_10.1.1_606/ide/tools/bin/../lib/gcc/arm-none-eabi/6.3.1/../../../../arm-none-eabi/lib/thumb/v6-m\libcr_c.a(printf.o)
                0x00001a44                __vfprintf
 .text._vsnprintf
                0x00002724       0x60 c:/nxp/mcuxpressoide_10.1.1_606/ide/tools/bin/../lib/gcc/arm-none-eabi/6.3.1/../../../../arm-none-eabi/lib/thumb/v6-m\libcr_c.a(printf.o)
                0x00002724                _vsnprintf
 .text._printf  0x00002784       0x50 c:/nxp/mcuxpressoide_10.1.1_606/ide/tools/bin/../lib/gcc/arm-none-eabi/6.3.1/../../../../arm-none-eabi/lib/thumb/v6-m\libcr_c.a(printf.o)
                0x00002784                _printf
 .text.setvbuf  0x000027d4       0x48 c:/nxp/mcuxpressoide_10.1.1_606/ide/tools/bin/../lib/gcc/arm-none-eabi/6.3.1/../../../../arm-none-eabi/lib/thumb/v6-m\libcr_c.a(setvbuf.o)
                0x000027d4                setvbuf
 .text.strlen   0x0000281c       0x58 c:/nxp/mcuxpressoide_10.1.1_606/ide/tools/bin/../lib/gcc/arm-none-eabi/6.3.1/../../../../arm-none-eabi/lib/thumb/v6-m\libcr_c.a(strlen.o)
                0x0000281c                strlen
 .text._sbrk    0x00002874       0x40 c:/nxp/mcuxpressoide_10.1.1_606/ide/tools/bin/../lib/gcc/arm-none-eabi/6.3.1/../../../../arm-none-eabi/lib/thumb/v6-m\libcr_c.a(_cr_sbrk.o)
                0x00002874                _sbrk
 .text._fdopen  0x000028b4       0x74 c:/nxp/mcuxpressoide_10.1.1_606/ide/tools/bin/../lib/gcc/arm-none-eabi/6.3.1/../../../../arm-none-eabi/lib/thumb/v6-m\libcr_c.a(_fdopen.o)
                0x000028b4                _fdopen
 .text.fclose   0x00002928       0x5c c:/nxp/mcuxpressoide_10.1.1_606/ide/tools/bin/../lib/gcc/arm-none-eabi/6.3.1/../../../../arm-none-eabi/lib/thumb/v6-m\libcr_c.a(fclose.o)
                0x00002928                fclose
 .text.fflush   0x00002984       0x44 c:/nxp/mcuxpressoide_10.1.1_606/ide/tools/bin/../lib/gcc/arm-none-eabi/6.3.1/../../../../arm-none-eabi/lib/thumb/v6-m\libcr_c.a(fflush.o)
                0x00002984                fflush
 .text.remove   0x000029c8       0x12 c:/nxp/mcuxpressoide_10.1.1_606/ide/tools/bin/../lib/gcc/arm-none-eabi/6.3.1/../../../../arm-none-eabi/lib/thumb/v6-m\libcr_c.a(remove.o)
                0x000029c8                remove
 *fill*         0x000029da        0x2 ff
 .text.__check_heap_overflow
                0x000029dc       0x18 c:/nxp/mcuxpressoide_10.1.1_606/ide/tools/bin/../lib/gcc/arm-none-eabi/6.3.1/../../../../arm-none-eabi/lib/thumb/v6-m\libcr_c.a(_cr_check_heap.o)
                0x000029dc                __check_heap_overflow
 .text._do_fflush
                0x000029f4       0x44 c:/nxp/mcuxpressoide_10.1.1_606/ide/tools/bin/../lib/gcc/arm-none-eabi/6.3.1/../../../../arm-none-eabi/lib/thumb/v6-m\libcr_c.a(_do_fflush.o)
                0x000029f4                _do_fflush
 .text.__aeabi_division_idivmod
                0x00002a38       0x78 c:/nxp/mcuxpressoide_10.1.1_606/ide/tools/bin/../lib/gcc/arm-none-eabi/6.3.1/thumb/v6-m\libcr_eabihelpers.a(division_32.o)
                0x00002a38                __aeabi_idivmod
                0x00002a38                __aeabi_idiv
                0x00002a3e                __aeabi_uidivmod
                0x00002a3e                __aeabi_uidiv
 .text.__aeabi_division_idiv0
                0x00002ab0        0x2 c:/nxp/mcuxpressoide_10.1.1_606/ide/tools/bin/../lib/gcc/arm-none-eabi/6.3.1/thumb/v6-m\libcr_eabihelpers.a(division_idiv0.o)
                0x00002ab0                __aeabi_idiv0
 .text.__aeabi_llong_lmul
                0x00002ab2       0x2e c:/nxp/mcuxpressoide_10.1.1_606/ide/tools/bin/../lib/gcc/arm-none-eabi/6.3.1/thumb/v6-m\libcr_eabihelpers.a(llong.o)
                0x00002ab2                __aeabi_lmul
 .text.__aeabi_memset_lowlevel
                0x00002ae0       0x2a c:/nxp/mcuxpressoide_10.1.1_606/ide/tools/bin/../lib/gcc/arm-none-eabi/6.3.1/thumb/v6-m\libcr_eabihelpers.a(memcpy.o)
                0x00002ae0                __aeabi_lowlevel_memset
 .text.__sys_close
                0x00002b0a        0xc c:/nxp/mcuxpressoide_10.1.1_606/ide/tools/bin/../lib/gcc/arm-none-eabi/6.3.1/../../../../arm-none-eabi/lib/thumb/v6-m\libcr_semihost_nf.a(__sys_close.o)
                0x00002b0a                __sys_close
 .text.__sys_flen
                0x00002b16        0xc c:/nxp/mcuxpressoide_10.1.1_606/ide/tools/bin/../lib/gcc/arm-none-eabi/6.3.1/../../../../arm-none-eabi/lib/thumb/v6-m\libcr_semihost_nf.a(__sys_flen.o)
                0x00002b16                __sys_flen
 .text.__sys_istty
                0x00002b22        0xc c:/nxp/mcuxpressoide_10.1.1_606/ide/tools/bin/../lib/gcc/arm-none-eabi/6.3.1/../../../../arm-none-eabi/lib/thumb/v6-m\libcr_semihost_nf.a(__sys_istty.o)
                0x00002b22                __sys_istty
 .text.__sys_remove
                0x00002b2e        0xc c:/nxp/mcuxpressoide_10.1.1_606/ide/tools/bin/../lib/gcc/arm-none-eabi/6.3.1/../../../../arm-none-eabi/lib/thumb/v6-m\libcr_semihost_nf.a(__sys_remove.o)
                0x00002b2e                __sys_remove
 .text.__sys_seek
                0x00002b3a        0xc c:/nxp/mcuxpressoide_10.1.1_606/ide/tools/bin/../lib/gcc/arm-none-eabi/6.3.1/../../../../arm-none-eabi/lib/thumb/v6-m\libcr_semihost_nf.a(__sys_seek.o)
                0x00002b3a                __sys_seek
 .text.__sys_tmpnam
                0x00002b46        0xc c:/nxp/mcuxpressoide_10.1.1_606/ide/tools/bin/../lib/gcc/arm-none-eabi/6.3.1/../../../../arm-none-eabi/lib/thumb/v6-m\libcr_semihost_nf.a(__sys_tmpnam.o)
                0x00002b46                __sys_tmpnam
 .text.__sys_write
                0x00002b52        0xc c:/nxp/mcuxpressoide_10.1.1_606/ide/tools/bin/../lib/gcc/arm-none-eabi/6.3.1/../../../../arm-none-eabi/lib/thumb/v6-m\libcr_semihost_nf.a(__sys_write.o)
                0x00002b52                __sys_write
 *(.rodata .rodata.* .constdata .constdata.*)
 *fill*         0x00002b5e        0x2 ff
 .rodata        0x00002b60       0xaa ./source/ADC_test.o
 *fill*         0x00002c0a        0x2 ff
 .rodata        0x00002c0c       0xae ./drivers/fsl_clock.o
 *fill*         0x00002cba        0x2 ff
 .rodata.s_lpuartBases
                0x00002cbc        0x8 ./drivers/fsl_lpuart.o
 .rodata.s_lpuartClock
                0x00002cc4        0x8 ./drivers/fsl_lpuart.o
 .rodata        0x00002ccc      0x4da ./drivers/fsl_lpuart.o
 *fill*         0x000031a6        0x2 ff
 .rodata.s_uartBases
                0x000031a8        0xc ./drivers/fsl_uart.o
 .rodata.s_uartClock
                0x000031b4        0xc ./drivers/fsl_uart.o
 .rodata        0x000031c0      0x45b ./drivers/fsl_uart.o
 *fill*         0x0000361b        0x1 ff
 .rodata.mcgliteConfig_BOARD_BootClockRUN
                0x0000361c        0x6 ./board/clock_config.o
                0x0000361c                mcgliteConfig_BOARD_BootClockRUN
 *fill*         0x00003622        0x2 ff
 .rodata.simConfig_BOARD_BootClockRUN
                0x00003624        0x8 ./board/clock_config.o
                0x00003624                simConfig_BOARD_BootClockRUN
 .rodata.__assertion_failed.str1.1
                0x0000362c       0x15 c:/nxp/mcuxpressoide_10.1.1_606/ide/tools/bin/../lib/gcc/arm-none-eabi/6.3.1/../../../../arm-none-eabi/lib/thumb/v6-m\libcr_semihost_nf.a(_cr_assert.o)
 *fill*         0x00003641        0x3 ff
 .rodata.__num_Ciob_streams
                0x00003644        0x4 c:/nxp/mcuxpressoide_10.1.1_606/ide/tools/bin/../lib/gcc/arm-none-eabi/6.3.1/../../../../arm-none-eabi/lib/thumb/v6-m\libcr_semihost_nf.a(__ciob.o)
                0x00003644                __num_Ciob_streams
 .rodata._Csys_alloc.str1.1
                0x00003648       0x18 c:/nxp/mcuxpressoide_10.1.1_606/ide/tools/bin/../lib/gcc/arm-none-eabi/6.3.1/../../../../arm-none-eabi/lib/thumb/v6-m\libcr_c.a(alloc.o)
 .rodata._initio.str1.1
                0x00003660        0x4 c:/nxp/mcuxpressoide_10.1.1_606/ide/tools/bin/../lib/gcc/arm-none-eabi/6.3.1/../../../../arm-none-eabi/lib/thumb/v6-m\libcr_c.a(initio.o)
 .rodata.__vfprintf.str1.1
                0x00003664       0x35 c:/nxp/mcuxpressoide_10.1.1_606/ide/tools/bin/../lib/gcc/arm-none-eabi/6.3.1/../../../../arm-none-eabi/lib/thumb/v6-m\libcr_c.a(printf.o)
                                 0x38 (size before relaxing)
                0x0000369c                . = ALIGN (0x4)
 *fill*         0x00003699        0x3 ff

.glue_7         0x0000369c        0x0
 .glue_7        0x0000369c        0x0 linker stubs

.glue_7t        0x0000369c        0x0
 .glue_7t       0x0000369c        0x0 linker stubs

.vfp11_veneer   0x0000369c        0x0
 .vfp11_veneer  0x0000369c        0x0 linker stubs

.v4_bx          0x0000369c        0x0
 .v4_bx         0x0000369c        0x0 linker stubs

.iplt           0x0000369c        0x0
 .iplt          0x0000369c        0x0 ./utilities/fsl_debug_console.o

.rel.dyn        0x0000369c        0x0
 .rel.iplt      0x0000369c        0x0 ./utilities/fsl_debug_console.o

.ARM.extab
 *(.ARM.extab* .gnu.linkonce.armextab.*)
                0x0000369c                __exidx_start = .

.ARM.exidx
 *(.ARM.exidx* .gnu.linkonce.armexidx.*)
                0x0000369c                __exidx_end = .
                0x0000369c                _etext = .

.m_usb_data
 *(m_usb_bdt)

.mtb_buffer_RAM2
 *(.mtb.$RAM2*)
 *(.mtb.$USB_RAM*)

.data_RAM2      0x400fe000        0x0 load address 0x0000369c
 FILL mask 0xff
                [!provide]                PROVIDE (__start_data_RAM2, .)
 *(.ramfunc.$RAM2)
 *(.ramfunc.$USB_RAM)
 *(.data.$RAM2*)
 *(.data.$USB_RAM*)
                0x400fe000                . = ALIGN (0x4)
                [!provide]                PROVIDE (__end_data_RAM2, .)

.mtb_buffer_default
                0x1ffff000       0x80
 *(.mtb*)
 .mtb.$RAM1     0x1ffff000       0x80 ./source/mtb.o
                0x1ffff000                __mtb_buffer__

.uninit_RESERVED
                0x1ffff080        0x0
 *(.bss.$RESERVED*)
                0x1ffff080                . = ALIGN (0x4)
                0x1ffff080                _end_uninit_RESERVED = .

.data           0x1ffff080        0x4 load address 0x0000369c
 FILL mask 0xff
                0x1ffff080                _data = .
 *(vtable)
 *(.ramfunc*)
 *(.data*)
 .data.SystemCoreClock
                0x1ffff080        0x4 ./CMSIS/system_MKL27Z644.o
                0x1ffff080                SystemCoreClock
                0x1ffff084                . = ALIGN (0x4)
                0x1ffff084                _edata = .

.igot.plt       0x1ffff084        0x0 load address 0x000036a0
 .igot.plt      0x1ffff084        0x0 ./utilities/fsl_debug_console.o

.bss_RAM2       0x400fe000        0x0
                [!provide]                PROVIDE (__start_bss_RAM2, .)
 *(.bss.$RAM2*)
 *(.bss.$USB_RAM*)
                0x400fe000                . = ALIGN ((. != 0x0)?0x4:0x1)
                [!provide]                PROVIDE (__end_bss_RAM2, .)

.bss            0x1ffff084       0xe0
                0x1ffff084                _bss = .
 *(.bss*)
 .bss.s_debugConsole
                0x1ffff084       0x10 ./utilities/fsl_debug_console.o
 .bss.gADC0Value
                0x1ffff094        0x2 ./source/ADC_test.o
                0x1ffff094                gADC0Value
 .bss.gADCFlag  0x1ffff096        0x1 ./source/ADC_test.o
                0x1ffff096                gADCFlag
 *fill*         0x1ffff097        0x1 
 .bss.s_lpuartHandle
                0x1ffff098        0x8 ./drivers/fsl_lpuart.o
 .bss.s_lpuartIsr
                0x1ffff0a0        0x4 ./drivers/fsl_lpuart.o
 .bss.__Ciob    0x1ffff0a4       0xb4 c:/nxp/mcuxpressoide_10.1.1_606/ide/tools/bin/../lib/gcc/arm-none-eabi/6.3.1/../../../../arm-none-eabi/lib/thumb/v6-m\libcr_semihost_nf.a(__ciob.o)
                0x1ffff0a4                __Ciob
 .bss.__end_of_heap
                0x1ffff158        0x4 c:/nxp/mcuxpressoide_10.1.1_606/ide/tools/bin/../lib/gcc/arm-none-eabi/6.3.1/../../../../arm-none-eabi/lib/thumb/v6-m\libcr_c.a(__init_alloc.o)
                0x1ffff158                __end_of_heap
 .bss.__heaps   0x1ffff15c        0x4 c:/nxp/mcuxpressoide_10.1.1_606/ide/tools/bin/../lib/gcc/arm-none-eabi/6.3.1/../../../../arm-none-eabi/lib/thumb/v6-m\libcr_c.a(__init_alloc.o)
                0x1ffff15c                __heaps
 .bss.errno     0x1ffff160        0x4 c:/nxp/mcuxpressoide_10.1.1_606/ide/tools/bin/../lib/gcc/arm-none-eabi/6.3.1/../../../../arm-none-eabi/lib/thumb/v6-m\libcr_c.a(errno.o)
                0x1ffff160                errno
 *(COMMON)
                0x1ffff164                . = ALIGN (0x4)
                0x1ffff164                _ebss = .
                [!provide]                PROVIDE (end, .)

.noinit_RAM2    0x400fe000        0x0
 *(.noinit.$RAM2*)
 *(.noinit.$USB_RAM*)
                0x400fe000                . = ALIGN (0x4)

.noinit         0x1ffff164        0x0
                0x1ffff164                _noinit = .
 *(.noinit*)
                0x1ffff164                . = ALIGN (0x4)
                0x1ffff164                _end_noinit = .
                0x00000400                _HeapSize = 0x400

.heap           0x1ffff164      0x400
                0x1ffff164                _pvHeapStart = .
                0x1ffff564                . = (. + _HeapSize)
 *fill*         0x1ffff164      0x400 
                0x1ffff564                . = ALIGN (0x4)
                0x1ffff564                _pvHeapLimit = .
                0x00000400                _StackSize = 0x400

.heap2stackfill
                0x1ffff564      0x400
                0x1ffff964                . = (. + _StackSize)
 *fill*         0x1ffff564      0x400 

.stack          0x20002c00        0x0
                0x20002c00                _vStackBase = .
                0x20002c00                . = ALIGN (0x4)
                0x20003000                _vStackTop = (. + _StackSize)
                0x00000000                _image_start = LOADADDR (.text)
                0x000036a0                _image_end = (LOADADDR (.data) + SIZEOF (.data))
                0x000036a0                _image_size = (_image_end - _image_start)
OUTPUT(ADC_test.axf elf32-littlearm)

.debug_info     0x00000000     0x8b90
 .debug_info    0x00000000      0xa86 ./utilities/fsl_debug_console.o
 .debug_info    0x00000a86      0x4a2 ./startup/startup_mkl27z644.o
 .debug_info    0x00000f28     0x2999 ./source/ADC_test.o
 .debug_info    0x000038c1       0x51 ./source/mtb.o
 .debug_info    0x00003912       0x3b ./source/semihost_hardfault.o
 .debug_info    0x0000394d     0x10ef ./drivers/fsl_clock.o
 .debug_info    0x00004a3c     0x141d ./drivers/fsl_lpuart.o
 .debug_info    0x00005e59     0x147d ./drivers/fsl_uart.o
 .debug_info    0x000072d6      0x6a2 ./board/board.o
 .debug_info    0x00007978      0x888 ./board/clock_config.o
 .debug_info    0x00008200       0x3b ./board/peripherals.o
 .debug_info    0x0000823b      0x572 ./board/pin_mux.o
 .debug_info    0x000087ad      0x3e3 ./CMSIS/system_MKL27Z644.o

.debug_abbrev   0x00000000     0x1534
 .debug_abbrev  0x00000000      0x223 ./utilities/fsl_debug_console.o
 .debug_abbrev  0x00000223      0x16d ./startup/startup_mkl27z644.o
 .debug_abbrev  0x00000390      0x29b ./source/ADC_test.o
 .debug_abbrev  0x0000062b       0x41 ./source/mtb.o
 .debug_abbrev  0x0000066c       0x2f ./source/semihost_hardfault.o
 .debug_abbrev  0x0000069b      0x2d2 ./drivers/fsl_clock.o
 .debug_abbrev  0x0000096d      0x2ba ./drivers/fsl_lpuart.o
 .debug_abbrev  0x00000c27      0x304 ./drivers/fsl_uart.o
 .debug_abbrev  0x00000f2b      0x174 ./board/board.o
 .debug_abbrev  0x0000109f      0x195 ./board/clock_config.o
 .debug_abbrev  0x00001234       0x2f ./board/peripherals.o
 .debug_abbrev  0x00001263      0x195 ./board/pin_mux.o
 .debug_abbrev  0x000013f8      0x13c ./CMSIS/system_MKL27Z644.o

.debug_aranges  0x00000000      0x610
 .debug_aranges
                0x00000000       0x48 ./utilities/fsl_debug_console.o
 .debug_aranges
                0x00000048      0x160 ./startup/startup_mkl27z644.o
 .debug_aranges
                0x000001a8       0x30 ./source/ADC_test.o
 .debug_aranges
                0x000001d8       0x18 ./source/mtb.o
 .debug_aranges
                0x000001f0       0x20 ./source/semihost_hardfault.o
 .debug_aranges
                0x00000210       0xd0 ./drivers/fsl_clock.o
 .debug_aranges
                0x000002e0      0x120 ./drivers/fsl_lpuart.o
 .debug_aranges
                0x00000400      0x120 ./drivers/fsl_uart.o
 .debug_aranges
                0x00000520       0x28 ./board/board.o
 .debug_aranges
                0x00000548       0x48 ./board/clock_config.o
 .debug_aranges
                0x00000590       0x20 ./board/peripherals.o
 .debug_aranges
                0x000005b0       0x38 ./board/pin_mux.o
 .debug_aranges
                0x000005e8       0x28 ./CMSIS/system_MKL27Z644.o

.debug_ranges   0x00000000      0x538
 .debug_ranges  0x00000000       0x38 ./utilities/fsl_debug_console.o
 .debug_ranges  0x00000038      0x150 ./startup/startup_mkl27z644.o
 .debug_ranges  0x00000188       0x20 ./source/ADC_test.o
 .debug_ranges  0x000001a8       0x10 ./source/semihost_hardfault.o
 .debug_ranges  0x000001b8       0xc0 ./drivers/fsl_clock.o
 .debug_ranges  0x00000278      0x110 ./drivers/fsl_lpuart.o
 .debug_ranges  0x00000388      0x110 ./drivers/fsl_uart.o
 .debug_ranges  0x00000498       0x18 ./board/board.o
 .debug_ranges  0x000004b0       0x38 ./board/clock_config.o
 .debug_ranges  0x000004e8       0x10 ./board/peripherals.o
 .debug_ranges  0x000004f8       0x28 ./board/pin_mux.o
 .debug_ranges  0x00000520       0x18 ./CMSIS/system_MKL27Z644.o

.debug_macro    0x00000000     0xa46f
 .debug_macro   0x00000000      0x13a ./utilities/fsl_debug_console.o
 .debug_macro   0x0000013a      0x8da ./utilities/fsl_debug_console.o
 .debug_macro   0x00000a14       0x10 ./utilities/fsl_debug_console.o
 .debug_macro   0x00000a24       0x16 ./utilities/fsl_debug_console.o
 .debug_macro   0x00000a3a       0x10 ./utilities/fsl_debug_console.o
 .debug_macro   0x00000a4a      0x12d ./utilities/fsl_debug_console.o
 .debug_macro   0x00000b77       0x28 ./utilities/fsl_debug_console.o
 .debug_macro   0x00000b9f       0xc4 ./utilities/fsl_debug_console.o
 .debug_macro   0x00000c63       0x16 ./utilities/fsl_debug_console.o
 .debug_macro   0x00000c79       0x22 ./utilities/fsl_debug_console.o
 .debug_macro   0x00000c9b      0x5b2 ./utilities/fsl_debug_console.o
 .debug_macro   0x0000124d       0x10 ./utilities/fsl_debug_console.o
 .debug_macro   0x0000125d       0x3f ./utilities/fsl_debug_console.o
 .debug_macro   0x0000129c       0x3a ./utilities/fsl_debug_console.o
 .debug_macro   0x000012d6       0x26 ./utilities/fsl_debug_console.o
 .debug_macro   0x000012fc      0x329 ./utilities/fsl_debug_console.o
 .debug_macro   0x00001625       0x3e ./utilities/fsl_debug_console.o
 .debug_macro   0x00001663     0x547b ./utilities/fsl_debug_console.o
 .debug_macro   0x00006ade     0x1320 ./utilities/fsl_debug_console.o
 .debug_macro   0x00007dfe       0x3a ./utilities/fsl_debug_console.o
 .debug_macro   0x00007e38       0xeb ./utilities/fsl_debug_console.o
 .debug_macro   0x00007f23       0x35 ./utilities/fsl_debug_console.o
 .debug_macro   0x00007f58       0xd2 ./utilities/fsl_debug_console.o
 .debug_macro   0x0000802a       0x2e ./utilities/fsl_debug_console.o
 .debug_macro   0x00008058       0x10 ./utilities/fsl_debug_console.o
 .debug_macro   0x00008068       0x10 ./utilities/fsl_debug_console.o
 .debug_macro   0x00008078       0x29 ./startup/startup_mkl27z644.o
 .debug_macro   0x000080a1      0x156 ./source/ADC_test.o
 .debug_macro   0x000081f7       0xd8 ./source/ADC_test.o
 .debug_macro   0x000082cf       0x10 ./source/ADC_test.o
 .debug_macro   0x000082df       0x10 ./source/ADC_test.o
 .debug_macro   0x000082ef      0x100 ./source/ADC_test.o
 .debug_macro   0x000083ef      0x308 ./source/ADC_test.o
 .debug_macro   0x000086f7       0xca ./source/ADC_test.o
 .debug_macro   0x000087c1      0x253 ./source/ADC_test.o
 .debug_macro   0x00008a14     0x1271 ./source/ADC_test.o
 .debug_macro   0x00009c85       0x2f ./source/mtb.o
 .debug_macro   0x00009cb4       0x82 ./source/mtb.o
 .debug_macro   0x00009d36       0x10 ./source/mtb.o
 .debug_macro   0x00009d46       0x11 ./source/semihost_hardfault.o
 .debug_macro   0x00009d57      0x118 ./drivers/fsl_clock.o
 .debug_macro   0x00009e6f       0x1c ./drivers/fsl_clock.o
 .debug_macro   0x00009e8b       0xec ./drivers/fsl_lpuart.o
 .debug_macro   0x00009f77       0xf2 ./drivers/fsl_uart.o
 .debug_macro   0x0000a069      0x125 ./board/board.o
 .debug_macro   0x0000a18e       0x16 ./board/board.o
 .debug_macro   0x0000a1a4      0x105 ./board/clock_config.o
 .debug_macro   0x0000a2a9       0x1b ./board/peripherals.o
 .debug_macro   0x0000a2c4      0x107 ./board/pin_mux.o
 .debug_macro   0x0000a3cb       0x10 ./board/pin_mux.o
 .debug_macro   0x0000a3db       0x94 ./CMSIS/system_MKL27Z644.o

.debug_line     0x00000000     0x2758
 .debug_line    0x00000000      0x36d ./utilities/fsl_debug_console.o
 .debug_line    0x0000036d      0x12a ./startup/startup_mkl27z644.o
 .debug_line    0x00000497      0x376 ./source/ADC_test.o
 .debug_line    0x0000080d       0x95 ./source/mtb.o
 .debug_line    0x000008a2       0x54 ./source/semihost_hardfault.o
 .debug_line    0x000008f6      0x4b5 ./drivers/fsl_clock.o
 .debug_line    0x00000dab      0x772 ./drivers/fsl_lpuart.o
 .debug_line    0x0000151d      0x75d ./drivers/fsl_uart.o
 .debug_line    0x00001c7a      0x30b ./board/board.o
 .debug_line    0x00001f85      0x2fc ./board/clock_config.o
 .debug_line    0x00002281       0x58 ./board/peripherals.o
 .debug_line    0x000022d9      0x2c2 ./board/pin_mux.o
 .debug_line    0x0000259b      0x1bd ./CMSIS/system_MKL27Z644.o

.debug_str      0x00000000    0x40667
 .debug_str     0x00000000    0x33cec ./utilities/fsl_debug_console.o
                              0x33fc4 (size before relaxing)
 .debug_str     0x00033cec      0x41d ./startup/startup_mkl27z644.o
                               0x29d5 (size before relaxing)
 .debug_str     0x00034109     0xa02e ./source/ADC_test.o
                              0x3d798 (size before relaxing)
 .debug_str     0x0003e137      0x532 ./source/mtb.o
                               0x2aa6 (size before relaxing)
 .debug_str     0x0003e669       0x1f ./source/semihost_hardfault.o
                               0x2597 (size before relaxing)
 .debug_str     0x0003e688      0xab2 ./drivers/fsl_clock.o
                              0x33f54 (size before relaxing)
 .debug_str     0x0003f13a      0xa3e ./drivers/fsl_lpuart.o
                              0x3414b (size before relaxing)
 .debug_str     0x0003fb78      0x528 ./drivers/fsl_uart.o
                              0x34033 (size before relaxing)
 .debug_str     0x000400a0       0x4d ./board/board.o
                              0x33e46 (size before relaxing)
 .debug_str     0x000400ed      0x2e8 ./board/clock_config.o
                              0x3382c (size before relaxing)
 .debug_str     0x000403d5       0x31 ./board/peripherals.o
                               0x25a8 (size before relaxing)
 .debug_str     0x00040406      0x1f3 ./board/pin_mux.o
                              0x33072 (size before relaxing)
 .debug_str     0x000405f9       0x6e ./CMSIS/system_MKL27Z644.o
                              0x32332 (size before relaxing)

.comment        0x00000000       0x7f
 .comment       0x00000000       0x7f ./utilities/fsl_debug_console.o
                                 0x80 (size before relaxing)
 .comment       0x0000007f       0x80 ./startup/startup_mkl27z644.o
 .comment       0x0000007f       0x80 ./source/ADC_test.o
 .comment       0x0000007f       0x80 ./source/mtb.o
 .comment       0x0000007f       0x80 ./source/semihost_hardfault.o
 .comment       0x0000007f       0x80 ./drivers/fsl_clock.o
 .comment       0x0000007f       0x80 ./drivers/fsl_lpuart.o
 .comment       0x0000007f       0x80 ./drivers/fsl_uart.o
 .comment       0x0000007f       0x80 ./board/board.o
 .comment       0x0000007f       0x80 ./board/clock_config.o
 .comment       0x0000007f       0x80 ./board/peripherals.o
 .comment       0x0000007f       0x80 ./board/pin_mux.o
 .comment       0x0000007f       0x80 ./CMSIS/system_MKL27Z644.o
 .comment       0x0000007f       0x80 c:/nxp/mcuxpressoide_10.1.1_606/ide/tools/bin/../lib/gcc/arm-none-eabi/6.3.1/../../../../arm-none-eabi/lib/thumb/v6-m\libcr_semihost_nf.a(_cr__main.o)
 .comment       0x0000007f       0x80 c:/nxp/mcuxpressoide_10.1.1_606/ide/tools/bin/../lib/gcc/arm-none-eabi/6.3.1/../../../../arm-none-eabi/lib/thumb/v6-m\libcr_semihost_nf.a(_cr_assert.o)
 .comment       0x0000007f       0x80 c:/nxp/mcuxpressoide_10.1.1_606/ide/tools/bin/../lib/gcc/arm-none-eabi/6.3.1/../../../../arm-none-eabi/lib/thumb/v6-m\libcr_semihost_nf.a(__ciob.o)
 .comment       0x0000007f       0x80 c:/nxp/mcuxpressoide_10.1.1_606/ide/tools/bin/../lib/gcc/arm-none-eabi/6.3.1/../../../../arm-none-eabi/lib/thumb/v6-m\libcr_c.a(memset.o)
 .comment       0x0000007f       0x80 c:/nxp/mcuxpressoide_10.1.1_606/ide/tools/bin/../lib/gcc/arm-none-eabi/6.3.1/../../../../arm-none-eabi/lib/thumb/v6-m\libcr_c.a(_deferredlazyseek.o)
 .comment       0x0000007f       0x80 c:/nxp/mcuxpressoide_10.1.1_606/ide/tools/bin/../lib/gcc/arm-none-eabi/6.3.1/../../../../arm-none-eabi/lib/thumb/v6-m\libcr_c.a(_fflush.o)
 .comment       0x0000007f       0x80 c:/nxp/mcuxpressoide_10.1.1_606/ide/tools/bin/../lib/gcc/arm-none-eabi/6.3.1/../../../../arm-none-eabi/lib/thumb/v6-m\libcr_c.a(_writebuf.o)
 .comment       0x0000007f       0x80 c:/nxp/mcuxpressoide_10.1.1_606/ide/tools/bin/../lib/gcc/arm-none-eabi/6.3.1/../../../../arm-none-eabi/lib/thumb/v6-m\libcr_c.a(alloc.o)
 .comment       0x0000007f       0x80 c:/nxp/mcuxpressoide_10.1.1_606/ide/tools/bin/../lib/gcc/arm-none-eabi/6.3.1/../../../../arm-none-eabi/lib/thumb/v6-m\libcr_c.a(fputs.o)
 .comment       0x0000007f       0x80 c:/nxp/mcuxpressoide_10.1.1_606/ide/tools/bin/../lib/gcc/arm-none-eabi/6.3.1/../../../../arm-none-eabi/lib/thumb/v6-m\libcr_c.a(fseek.o)
 .comment       0x0000007f       0x80 c:/nxp/mcuxpressoide_10.1.1_606/ide/tools/bin/../lib/gcc/arm-none-eabi/6.3.1/../../../../arm-none-eabi/lib/thumb/v6-m\libcr_c.a(ftell.o)
 .comment       0x0000007f       0x80 c:/nxp/mcuxpressoide_10.1.1_606/ide/tools/bin/../lib/gcc/arm-none-eabi/6.3.1/../../../../arm-none-eabi/lib/thumb/v6-m\libcr_c.a(initio.o)
 .comment       0x0000007f       0x80 c:/nxp/mcuxpressoide_10.1.1_606/ide/tools/bin/../lib/gcc/arm-none-eabi/6.3.1/../../../../arm-none-eabi/lib/thumb/v6-m\libcr_c.a(printf.o)
 .comment       0x0000007f       0x80 c:/nxp/mcuxpressoide_10.1.1_606/ide/tools/bin/../lib/gcc/arm-none-eabi/6.3.1/../../../../arm-none-eabi/lib/thumb/v6-m\libcr_c.a(setvbuf.o)
 .comment       0x0000007f       0x80 c:/nxp/mcuxpressoide_10.1.1_606/ide/tools/bin/../lib/gcc/arm-none-eabi/6.3.1/../../../../arm-none-eabi/lib/thumb/v6-m\libcr_c.a(strlen.o)
 .comment       0x0000007f       0x80 c:/nxp/mcuxpressoide_10.1.1_606/ide/tools/bin/../lib/gcc/arm-none-eabi/6.3.1/../../../../arm-none-eabi/lib/thumb/v6-m\libcr_c.a(__init_alloc.o)
 .comment       0x0000007f       0x80 c:/nxp/mcuxpressoide_10.1.1_606/ide/tools/bin/../lib/gcc/arm-none-eabi/6.3.1/../../../../arm-none-eabi/lib/thumb/v6-m\libcr_c.a(_cr_sbrk.o)
 .comment       0x0000007f       0x80 c:/nxp/mcuxpressoide_10.1.1_606/ide/tools/bin/../lib/gcc/arm-none-eabi/6.3.1/../../../../arm-none-eabi/lib/thumb/v6-m\libcr_c.a(_fdopen.o)
 .comment       0x0000007f       0x80 c:/nxp/mcuxpressoide_10.1.1_606/ide/tools/bin/../lib/gcc/arm-none-eabi/6.3.1/../../../../arm-none-eabi/lib/thumb/v6-m\libcr_c.a(errno.o)
 .comment       0x0000007f       0x80 c:/nxp/mcuxpressoide_10.1.1_606/ide/tools/bin/../lib/gcc/arm-none-eabi/6.3.1/../../../../arm-none-eabi/lib/thumb/v6-m\libcr_c.a(fclose.o)
 .comment       0x0000007f       0x80 c:/nxp/mcuxpressoide_10.1.1_606/ide/tools/bin/../lib/gcc/arm-none-eabi/6.3.1/../../../../arm-none-eabi/lib/thumb/v6-m\libcr_c.a(fflush.o)
 .comment       0x0000007f       0x80 c:/nxp/mcuxpressoide_10.1.1_606/ide/tools/bin/../lib/gcc/arm-none-eabi/6.3.1/../../../../arm-none-eabi/lib/thumb/v6-m\libcr_c.a(remove.o)
 .comment       0x0000007f       0x80 c:/nxp/mcuxpressoide_10.1.1_606/ide/tools/bin/../lib/gcc/arm-none-eabi/6.3.1/../../../../arm-none-eabi/lib/thumb/v6-m\libcr_c.a(_cr_check_heap.o)
 .comment       0x0000007f       0x80 c:/nxp/mcuxpressoide_10.1.1_606/ide/tools/bin/../lib/gcc/arm-none-eabi/6.3.1/../../../../arm-none-eabi/lib/thumb/v6-m\libcr_c.a(_do_fflush.o)

.ARM.attributes
                0x00000000       0x30
 .ARM.attributes
                0x00000000       0x32 ./utilities/fsl_debug_console.o
 .ARM.attributes
                0x00000032       0x32 ./startup/startup_mkl27z644.o
 .ARM.attributes
                0x00000064       0x32 ./source/ADC_test.o
 .ARM.attributes
                0x00000096       0x32 ./source/mtb.o
 .ARM.attributes
                0x000000c8       0x32 ./source/semihost_hardfault.o
 .ARM.attributes
                0x000000fa       0x32 ./drivers/fsl_clock.o
 .ARM.attributes
                0x0000012c       0x32 ./drivers/fsl_lpuart.o
 .ARM.attributes
                0x0000015e       0x32 ./drivers/fsl_uart.o
 .ARM.attributes
                0x00000190       0x32 ./board/board.o
 .ARM.attributes
                0x000001c2       0x32 ./board/clock_config.o
 .ARM.attributes
                0x000001f4       0x32 ./board/peripherals.o
 .ARM.attributes
                0x00000226       0x32 ./board/pin_mux.o
 .ARM.attributes
                0x00000258       0x32 ./CMSIS/system_MKL27Z644.o
 .ARM.attributes
                0x0000028a       0x31 c:/nxp/mcuxpressoide_10.1.1_606/ide/tools/bin/../lib/gcc/arm-none-eabi/6.3.1/../../../../arm-none-eabi/lib/thumb/v6-m\libcr_semihost_nf.a(_cr__main.o)
 .ARM.attributes
                0x000002bb       0x31 c:/nxp/mcuxpressoide_10.1.1_606/ide/tools/bin/../lib/gcc/arm-none-eabi/6.3.1/../../../../arm-none-eabi/lib/thumb/v6-m\libcr_semihost_nf.a(_cr_assert.o)
 .ARM.attributes
                0x000002ec       0x31 c:/nxp/mcuxpressoide_10.1.1_606/ide/tools/bin/../lib/gcc/arm-none-eabi/6.3.1/../../../../arm-none-eabi/lib/thumb/v6-m\libcr_semihost_nf.a(__ciob.o)
 .ARM.attributes
                0x0000031d       0x21 c:/nxp/mcuxpressoide_10.1.1_606/ide/tools/bin/../lib/gcc/arm-none-eabi/6.3.1/../../../../arm-none-eabi/lib/thumb/v6-m\libcr_semihost_nf.a(__sys_appexit.o)
 .ARM.attributes
                0x0000033e       0x31 c:/nxp/mcuxpressoide_10.1.1_606/ide/tools/bin/../lib/gcc/arm-none-eabi/6.3.1/../../../../arm-none-eabi/lib/thumb/v6-m\libcr_c.a(memset.o)
 .ARM.attributes
                0x0000036f       0x31 c:/nxp/mcuxpressoide_10.1.1_606/ide/tools/bin/../lib/gcc/arm-none-eabi/6.3.1/../../../../arm-none-eabi/lib/thumb/v6-m\libcr_c.a(_deferredlazyseek.o)
 .ARM.attributes
                0x000003a0       0x31 c:/nxp/mcuxpressoide_10.1.1_606/ide/tools/bin/../lib/gcc/arm-none-eabi/6.3.1/../../../../arm-none-eabi/lib/thumb/v6-m\libcr_c.a(_fflush.o)
 .ARM.attributes
                0x000003d1       0x31 c:/nxp/mcuxpressoide_10.1.1_606/ide/tools/bin/../lib/gcc/arm-none-eabi/6.3.1/../../../../arm-none-eabi/lib/thumb/v6-m\libcr_c.a(_writebuf.o)
 .ARM.attributes
                0x00000402       0x31 c:/nxp/mcuxpressoide_10.1.1_606/ide/tools/bin/../lib/gcc/arm-none-eabi/6.3.1/../../../../arm-none-eabi/lib/thumb/v6-m\libcr_c.a(alloc.o)
 .ARM.attributes
                0x00000433       0x31 c:/nxp/mcuxpressoide_10.1.1_606/ide/tools/bin/../lib/gcc/arm-none-eabi/6.3.1/../../../../arm-none-eabi/lib/thumb/v6-m\libcr_c.a(fputs.o)
 .ARM.attributes
                0x00000464       0x31 c:/nxp/mcuxpressoide_10.1.1_606/ide/tools/bin/../lib/gcc/arm-none-eabi/6.3.1/../../../../arm-none-eabi/lib/thumb/v6-m\libcr_c.a(fseek.o)
 .ARM.attributes
                0x00000495       0x31 c:/nxp/mcuxpressoide_10.1.1_606/ide/tools/bin/../lib/gcc/arm-none-eabi/6.3.1/../../../../arm-none-eabi/lib/thumb/v6-m\libcr_c.a(ftell.o)
 .ARM.attributes
                0x000004c6       0x31 c:/nxp/mcuxpressoide_10.1.1_606/ide/tools/bin/../lib/gcc/arm-none-eabi/6.3.1/../../../../arm-none-eabi/lib/thumb/v6-m\libcr_c.a(initio.o)
 .ARM.attributes
                0x000004f7       0x31 c:/nxp/mcuxpressoide_10.1.1_606/ide/tools/bin/../lib/gcc/arm-none-eabi/6.3.1/../../../../arm-none-eabi/lib/thumb/v6-m\libcr_c.a(printf.o)
 .ARM.attributes
                0x00000528       0x31 c:/nxp/mcuxpressoide_10.1.1_606/ide/tools/bin/../lib/gcc/arm-none-eabi/6.3.1/../../../../arm-none-eabi/lib/thumb/v6-m\libcr_c.a(setvbuf.o)
 .ARM.attributes
                0x00000559       0x31 c:/nxp/mcuxpressoide_10.1.1_606/ide/tools/bin/../lib/gcc/arm-none-eabi/6.3.1/../../../../arm-none-eabi/lib/thumb/v6-m\libcr_c.a(strlen.o)
 .ARM.attributes
                0x0000058a       0x31 c:/nxp/mcuxpressoide_10.1.1_606/ide/tools/bin/../lib/gcc/arm-none-eabi/6.3.1/../../../../arm-none-eabi/lib/thumb/v6-m\libcr_c.a(__init_alloc.o)
 .ARM.attributes
                0x000005bb       0x31 c:/nxp/mcuxpressoide_10.1.1_606/ide/tools/bin/../lib/gcc/arm-none-eabi/6.3.1/../../../../arm-none-eabi/lib/thumb/v6-m\libcr_c.a(_cr_sbrk.o)
 .ARM.attributes
                0x000005ec       0x31 c:/nxp/mcuxpressoide_10.1.1_606/ide/tools/bin/../lib/gcc/arm-none-eabi/6.3.1/../../../../arm-none-eabi/lib/thumb/v6-m\libcr_c.a(_fdopen.o)
 .ARM.attributes
                0x0000061d       0x31 c:/nxp/mcuxpressoide_10.1.1_606/ide/tools/bin/../lib/gcc/arm-none-eabi/6.3.1/../../../../arm-none-eabi/lib/thumb/v6-m\libcr_c.a(errno.o)
 .ARM.attributes
                0x0000064e       0x31 c:/nxp/mcuxpressoide_10.1.1_606/ide/tools/bin/../lib/gcc/arm-none-eabi/6.3.1/../../../../arm-none-eabi/lib/thumb/v6-m\libcr_c.a(fclose.o)
 .ARM.attributes
                0x0000067f       0x31 c:/nxp/mcuxpressoide_10.1.1_606/ide/tools/bin/../lib/gcc/arm-none-eabi/6.3.1/../../../../arm-none-eabi/lib/thumb/v6-m\libcr_c.a(fflush.o)
 .ARM.attributes
                0x000006b0       0x31 c:/nxp/mcuxpressoide_10.1.1_606/ide/tools/bin/../lib/gcc/arm-none-eabi/6.3.1/../../../../arm-none-eabi/lib/thumb/v6-m\libcr_c.a(remove.o)
 .ARM.attributes
                0x000006e1       0x31 c:/nxp/mcuxpressoide_10.1.1_606/ide/tools/bin/../lib/gcc/arm-none-eabi/6.3.1/../../../../arm-none-eabi/lib/thumb/v6-m\libcr_c.a(_cr_check_heap.o)
 .ARM.attributes
                0x00000712       0x31 c:/nxp/mcuxpressoide_10.1.1_606/ide/tools/bin/../lib/gcc/arm-none-eabi/6.3.1/../../../../arm-none-eabi/lib/thumb/v6-m\libcr_c.a(_do_fflush.o)
 .ARM.attributes
                0x00000743       0x21 c:/nxp/mcuxpressoide_10.1.1_606/ide/tools/bin/../lib/gcc/arm-none-eabi/6.3.1/thumb/v6-m\libcr_eabihelpers.a(division_32.o)
 .ARM.attributes
                0x00000764       0x21 c:/nxp/mcuxpressoide_10.1.1_606/ide/tools/bin/../lib/gcc/arm-none-eabi/6.3.1/thumb/v6-m\libcr_eabihelpers.a(division_idiv0.o)
 .ARM.attributes
                0x00000785       0x21 c:/nxp/mcuxpressoide_10.1.1_606/ide/tools/bin/../lib/gcc/arm-none-eabi/6.3.1/thumb/v6-m\libcr_eabihelpers.a(llong.o)
 .ARM.attributes
                0x000007a6       0x21 c:/nxp/mcuxpressoide_10.1.1_606/ide/tools/bin/../lib/gcc/arm-none-eabi/6.3.1/thumb/v6-m\libcr_eabihelpers.a(memcpy.o)
 .ARM.attributes
                0x000007c7       0x21 c:/nxp/mcuxpressoide_10.1.1_606/ide/tools/bin/../lib/gcc/arm-none-eabi/6.3.1/../../../../arm-none-eabi/lib/thumb/v6-m\libcr_semihost_nf.a(__sys_close.o)
 .ARM.attributes
                0x000007e8       0x21 c:/nxp/mcuxpressoide_10.1.1_606/ide/tools/bin/../lib/gcc/arm-none-eabi/6.3.1/../../../../arm-none-eabi/lib/thumb/v6-m\libcr_semihost_nf.a(__sys_flen.o)
 .ARM.attributes
                0x00000809       0x21 c:/nxp/mcuxpressoide_10.1.1_606/ide/tools/bin/../lib/gcc/arm-none-eabi/6.3.1/../../../../arm-none-eabi/lib/thumb/v6-m\libcr_semihost_nf.a(__sys_istty.o)
 .ARM.attributes
                0x0000082a       0x21 c:/nxp/mcuxpressoide_10.1.1_606/ide/tools/bin/../lib/gcc/arm-none-eabi/6.3.1/../../../../arm-none-eabi/lib/thumb/v6-m\libcr_semihost_nf.a(__sys_remove.o)
 .ARM.attributes
                0x0000084b       0x21 c:/nxp/mcuxpressoide_10.1.1_606/ide/tools/bin/../lib/gcc/arm-none-eabi/6.3.1/../../../../arm-none-eabi/lib/thumb/v6-m\libcr_semihost_nf.a(__sys_seek.o)
 .ARM.attributes
                0x0000086c       0x21 c:/nxp/mcuxpressoide_10.1.1_606/ide/tools/bin/../lib/gcc/arm-none-eabi/6.3.1/../../../../arm-none-eabi/lib/thumb/v6-m\libcr_semihost_nf.a(__sys_tmpnam.o)
 .ARM.attributes
                0x0000088d       0x21 c:/nxp/mcuxpressoide_10.1.1_606/ide/tools/bin/../lib/gcc/arm-none-eabi/6.3.1/../../../../arm-none-eabi/lib/thumb/v6-m\libcr_semihost_nf.a(__sys_write.o)

.debug_frame    0x00000000     0x1240
 .debug_frame   0x00000000       0xcc ./utilities/fsl_debug_console.o
 .debug_frame   0x000000cc      0x3b0 ./startup/startup_mkl27z644.o
 .debug_frame   0x0000047c       0x68 ./source/ADC_test.o
 .debug_frame   0x000004e4       0x20 ./source/semihost_hardfault.o
 .debug_frame   0x00000504      0x2d8 ./drivers/fsl_clock.o
 .debug_frame   0x000007dc      0x428 ./drivers/fsl_lpuart.o
 .debug_frame   0x00000c04      0x42c ./drivers/fsl_uart.o
 .debug_frame   0x00001030       0x50 ./board/board.o
 .debug_frame   0x00001080       0xc0 ./board/clock_config.o
 .debug_frame   0x00001140       0x2c ./board/peripherals.o
 .debug_frame   0x0000116c       0x88 ./board/pin_mux.o
 .debug_frame   0x000011f4       0x4c ./CMSIS/system_MKL27Z644.o
